{
	"contracts/Job-Portal.sol": {
		"JobPortal": {
			"abi": [
				{
					"inputs": [
						{
							"internalType": "string",
							"name": "_name",
							"type": "string"
						},
						{
							"internalType": "string",
							"name": "_laborHistory",
							"type": "string"
						},
						{
							"internalType": "string",
							"name": "_skills",
							"type": "string"
						},
						{
							"internalType": "string",
							"name": "_availability",
							"type": "string"
						},
						{
							"internalType": "string",
							"name": "_otherDetails",
							"type": "string"
						}
					],
					"name": "addApplicant",
					"outputs": [],
					"stateMutability": "nonpayable",
					"type": "function"
				},
				{
					"inputs": [
						{
							"internalType": "string",
							"name": "_jobname",
							"type": "string"
						},
						{
							"internalType": "string",
							"name": "_description",
							"type": "string"
						},
						{
							"internalType": "uint256",
							"name": "_salary",
							"type": "uint256"
						}
					],
					"name": "addJob",
					"outputs": [],
					"stateMutability": "nonpayable",
					"type": "function"
				},
				{
					"inputs": [
						{
							"internalType": "uint256",
							"name": "_applicantId",
							"type": "uint256"
						},
						{
							"internalType": "uint256",
							"name": "_jobId",
							"type": "uint256"
						}
					],
					"name": "applyForJob",
					"outputs": [],
					"stateMutability": "nonpayable",
					"type": "function"
				},
				{
					"inputs": [
						{
							"internalType": "uint256",
							"name": "_id",
							"type": "uint256"
						}
					],
					"name": "getApplicantDetails",
					"outputs": [
						{
							"internalType": "uint256",
							"name": "",
							"type": "uint256"
						},
						{
							"internalType": "string",
							"name": "",
							"type": "string"
						},
						{
							"internalType": "string",
							"name": "",
							"type": "string"
						},
						{
							"internalType": "string",
							"name": "",
							"type": "string"
						},
						{
							"internalType": "string",
							"name": "",
							"type": "string"
						},
						{
							"internalType": "string",
							"name": "",
							"type": "string"
						},
						{
							"internalType": "uint256",
							"name": "",
							"type": "uint256"
						}
					],
					"stateMutability": "view",
					"type": "function"
				},
				{
					"inputs": [
						{
							"internalType": "uint256",
							"name": "_id",
							"type": "uint256"
						}
					],
					"name": "getJobDetails",
					"outputs": [
						{
							"internalType": "uint256",
							"name": "",
							"type": "uint256"
						},
						{
							"internalType": "string",
							"name": "",
							"type": "string"
						},
						{
							"internalType": "string",
							"name": "",
							"type": "string"
						},
						{
							"internalType": "uint256",
							"name": "",
							"type": "uint256"
						},
						{
							"internalType": "address",
							"name": "",
							"type": "address"
						},
						{
							"internalType": "uint256",
							"name": "",
							"type": "uint256"
						}
					],
					"stateMutability": "view",
					"type": "function"
				}
			],
			"devdoc": {
				"kind": "dev",
				"methods": {},
				"version": 1
			},
			"evm": {
				"assembly": "    /* \"contracts/Job-Portal.sol\":70:2161  contract JobPortal... */\n  mstore(0x40, 0x80)\n  callvalue\n  dup1\n  iszero\n  tag_1\n  jumpi\n  0x00\n  dup1\n  revert\ntag_1:\n  pop\n  dataSize(sub_0)\n  dup1\n  dataOffset(sub_0)\n  0x00\n  codecopy\n  0x00\n  return\nstop\n\nsub_0: assembly {\n        /* \"contracts/Job-Portal.sol\":70:2161  contract JobPortal... */\n      mstore(0x40, 0x80)\n      callvalue\n      dup1\n      iszero\n      tag_1\n      jumpi\n      0x00\n      dup1\n      revert\n    tag_1:\n      pop\n      jumpi(tag_2, lt(calldatasize, 0x04))\n      shr(0xe0, calldataload(0x00))\n      dup1\n      0x4cac35c6\n      eq\n      tag_3\n      jumpi\n      dup1\n      0x558e0a7b\n      eq\n      tag_4\n      jumpi\n      dup1\n      0x8798a47b\n      eq\n      tag_5\n      jumpi\n      dup1\n      0xbfc7a66e\n      eq\n      tag_6\n      jumpi\n      dup1\n      0xfa6b104a\n      eq\n      tag_7\n      jumpi\n    tag_2:\n      0x00\n      dup1\n      revert\n        /* \"contracts/Job-Portal.sol\":1648:1907  function getJobDetails(uint256 _id) public view returns (uint256, string memory, string memory, uint256, address, uint256) {... */\n    tag_3:\n      tag_8\n      0x04\n      dup1\n      calldatasize\n      sub\n      dup2\n      add\n      swap1\n      tag_9\n      swap2\n      swap1\n      tag_10\n      jump\t// in\n    tag_9:\n      tag_11\n      jump\t// in\n    tag_8:\n      mload(0x40)\n      tag_12\n      swap7\n      swap6\n      swap5\n      swap4\n      swap3\n      swap2\n      swap1\n      tag_13\n      jump\t// in\n    tag_12:\n      mload(0x40)\n      dup1\n      swap2\n      sub\n      swap1\n      return\n        /* \"contracts/Job-Portal.sol\":633:954  function addApplicant(string memory _name, string memory _laborHistory, string memory _skills, string memory _availability, string memory _otherDetails) public {... */\n    tag_4:\n      tag_14\n      0x04\n      dup1\n      calldatasize\n      sub\n      dup2\n      add\n      swap1\n      tag_15\n      swap2\n      swap1\n      tag_16\n      jump\t// in\n    tag_15:\n      tag_17\n      jump\t// in\n    tag_14:\n      stop\n        /* \"contracts/Job-Portal.sol\":990:1370  function getApplicantDetails(uint256 _id) public view returns (uint256, string memory, string memory, string memory, string memory, string memory, uint256) {... */\n    tag_5:\n      tag_18\n      0x04\n      dup1\n      calldatasize\n      sub\n      dup2\n      add\n      swap1\n      tag_19\n      swap2\n      swap1\n      tag_10\n      jump\t// in\n    tag_19:\n      tag_20\n      jump\t// in\n    tag_18:\n      mload(0x40)\n      tag_21\n      swap8\n      swap7\n      swap6\n      swap5\n      swap4\n      swap3\n      swap2\n      swap1\n      tag_22\n      jump\t// in\n    tag_21:\n      mload(0x40)\n      dup1\n      swap2\n      sub\n      swap1\n      return\n        /* \"contracts/Job-Portal.sol\":1951:2156  function applyForJob(uint256 _applicantId, uint256 _jobId) public {... */\n    tag_6:\n      tag_23\n      0x04\n      dup1\n      calldatasize\n      sub\n      dup2\n      add\n      swap1\n      tag_24\n      swap2\n      swap1\n      tag_25\n      jump\t// in\n    tag_24:\n      tag_26\n      jump\t// in\n    tag_23:\n      stop\n        /* \"contracts/Job-Portal.sol\":1411:1618  function addJob(string memory _jobname, string memory _description, uint256 _salary) public {... */\n    tag_7:\n      tag_27\n      0x04\n      dup1\n      calldatasize\n      sub\n      dup2\n      add\n      swap1\n      tag_28\n      swap2\n      swap1\n      tag_29\n      jump\t// in\n    tag_28:\n      tag_30\n      jump\t// in\n    tag_27:\n      stop\n        /* \"contracts/Job-Portal.sol\":1648:1907  function getJobDetails(uint256 _id) public view returns (uint256, string memory, string memory, uint256, address, uint256) {... */\n    tag_11:\n        /* \"contracts/Job-Portal.sol\":1705:1712  uint256 */\n      0x00\n        /* \"contracts/Job-Portal.sol\":1714:1727  string memory */\n      0x60\n        /* \"contracts/Job-Portal.sol\":1729:1742  string memory */\n      dup1\n        /* \"contracts/Job-Portal.sol\":1744:1751  uint256 */\n      0x00\n        /* \"contracts/Job-Portal.sol\":1753:1760  address */\n      dup1\n        /* \"contracts/Job-Portal.sol\":1762:1769  uint256 */\n      0x00\n        /* \"contracts/Job-Portal.sol\":1781:1795  Job memory job */\n      dup1\n        /* \"contracts/Job-Portal.sol\":1798:1802  jobs */\n      0x01\n        /* \"contracts/Job-Portal.sol\":1798:1807  jobs[_id] */\n      0x00\n        /* \"contracts/Job-Portal.sol\":1803:1806  _id */\n      dup10\n        /* \"contracts/Job-Portal.sol\":1798:1807  jobs[_id] */\n      dup2\n      mstore\n      0x20\n      add\n      swap1\n      dup2\n      mstore\n      0x20\n      add\n      0x00\n      keccak256\n        /* \"contracts/Job-Portal.sol\":1781:1807  Job memory job = jobs[_id] */\n      mload(0x40)\n      dup1\n      0xc0\n      add\n      0x40\n      mstore\n      swap1\n      dup2\n      0x00\n      dup3\n      add\n      sload\n      dup2\n      mstore\n      0x20\n      add\n      0x01\n      dup3\n      add\n      dup1\n      sload\n      tag_32\n      swap1\n      tag_33\n      jump\t// in\n    tag_32:\n      dup1\n      0x1f\n      add\n      0x20\n      dup1\n      swap2\n      div\n      mul\n      0x20\n      add\n      mload(0x40)\n      swap1\n      dup2\n      add\n      0x40\n      mstore\n      dup1\n      swap3\n      swap2\n      swap1\n      dup2\n      dup2\n      mstore\n      0x20\n      add\n      dup3\n      dup1\n      sload\n      tag_34\n      swap1\n      tag_33\n      jump\t// in\n    tag_34:\n      dup1\n      iszero\n      tag_35\n      jumpi\n      dup1\n      0x1f\n      lt\n      tag_36\n      jumpi\n      0x0100\n      dup1\n      dup4\n      sload\n      div\n      mul\n      dup4\n      mstore\n      swap2\n      0x20\n      add\n      swap2\n      jump(tag_35)\n    tag_36:\n      dup3\n      add\n      swap2\n      swap1\n      0x00\n      mstore\n      keccak256(0x00, 0x20)\n      swap1\n    tag_37:\n      dup2\n      sload\n      dup2\n      mstore\n      swap1\n      0x01\n      add\n      swap1\n      0x20\n      add\n      dup1\n      dup4\n      gt\n      tag_37\n      jumpi\n      dup3\n      swap1\n      sub\n      0x1f\n      and\n      dup3\n      add\n      swap2\n    tag_35:\n      pop\n      pop\n      pop\n      pop\n      pop\n      dup2\n      mstore\n      0x20\n      add\n      0x02\n      dup3\n      add\n      dup1\n      sload\n      tag_38\n      swap1\n      tag_33\n      jump\t// in\n    tag_38:\n      dup1\n      0x1f\n      add\n      0x20\n      dup1\n      swap2\n      div\n      mul\n      0x20\n      add\n      mload(0x40)\n      swap1\n      dup2\n      add\n      0x40\n      mstore\n      dup1\n      swap3\n      swap2\n      swap1\n      dup2\n      dup2\n      mstore\n      0x20\n      add\n      dup3\n      dup1\n      sload\n      tag_39\n      swap1\n      tag_33\n      jump\t// in\n    tag_39:\n      dup1\n      iszero\n      tag_40\n      jumpi\n      dup1\n      0x1f\n      lt\n      tag_41\n      jumpi\n      0x0100\n      dup1\n      dup4\n      sload\n      div\n      mul\n      dup4\n      mstore\n      swap2\n      0x20\n      add\n      swap2\n      jump(tag_40)\n    tag_41:\n      dup3\n      add\n      swap2\n      swap1\n      0x00\n      mstore\n      keccak256(0x00, 0x20)\n      swap1\n    tag_42:\n      dup2\n      sload\n      dup2\n      mstore\n      swap1\n      0x01\n      add\n      swap1\n      0x20\n      add\n      dup1\n      dup4\n      gt\n      tag_42\n      jumpi\n      dup3\n      swap1\n      sub\n      0x1f\n      and\n      dup3\n      add\n      swap2\n    tag_40:\n      pop\n      pop\n      pop\n      pop\n      pop\n      dup2\n      mstore\n      0x20\n      add\n      0x03\n      dup3\n      add\n      sload\n      dup2\n      mstore\n      0x20\n      add\n      0x04\n      dup3\n      add\n      0x00\n      swap1\n      sload\n      swap1\n      0x0100\n      exp\n      swap1\n      div\n      0xffffffffffffffffffffffffffffffffffffffff\n      and\n      0xffffffffffffffffffffffffffffffffffffffff\n      and\n      0xffffffffffffffffffffffffffffffffffffffff\n      and\n      dup2\n      mstore\n      0x20\n      add\n      0x05\n      dup3\n      add\n      sload\n      dup2\n      mstore\n      pop\n      pop\n      swap1\n      pop\n        /* \"contracts/Job-Portal.sol\":1825:1828  job */\n      dup1\n        /* \"contracts/Job-Portal.sol\":1825:1831  job.id */\n      0x00\n      add\n      mload\n        /* \"contracts/Job-Portal.sol\":1833:1836  job */\n      dup2\n        /* \"contracts/Job-Portal.sol\":1833:1844  job.jobname */\n      0x20\n      add\n      mload\n        /* \"contracts/Job-Portal.sol\":1846:1849  job */\n      dup3\n        /* \"contracts/Job-Portal.sol\":1846:1861  job.description */\n      0x40\n      add\n      mload\n        /* \"contracts/Job-Portal.sol\":1863:1866  job */\n      dup4\n        /* \"contracts/Job-Portal.sol\":1863:1873  job.salary */\n      0x60\n      add\n      mload\n        /* \"contracts/Job-Portal.sol\":1875:1878  job */\n      dup5\n        /* \"contracts/Job-Portal.sol\":1875:1887  job.provider */\n      0x80\n      add\n      mload\n        /* \"contracts/Job-Portal.sol\":1889:1892  job */\n      dup6\n        /* \"contracts/Job-Portal.sol\":1889:1899  job.rating */\n      0xa0\n      add\n      mload\n        /* \"contracts/Job-Portal.sol\":1817:1900  return (job.id, job.jobname, job.description, job.salary, job.provider, job.rating) */\n      swap7\n      pop\n      swap7\n      pop\n      swap7\n      pop\n      swap7\n      pop\n      swap7\n      pop\n      swap7\n      pop\n      pop\n        /* \"contracts/Job-Portal.sol\":1648:1907  function getJobDetails(uint256 _id) public view returns (uint256, string memory, string memory, uint256, address, uint256) {... */\n      swap2\n      swap4\n      swap6\n      pop\n      swap2\n      swap4\n      swap6\n      jump\t// out\n        /* \"contracts/Job-Portal.sol\":633:954  function addApplicant(string memory _name, string memory _laborHistory, string memory _skills, string memory _availability, string memory _otherDetails) public {... */\n    tag_17:\n        /* \"contracts/Job-Portal.sol\":803:817  applicantCount */\n      0x02\n      0x00\n        /* \"contracts/Job-Portal.sol\":803:819  applicantCount++ */\n      dup2\n      sload\n      dup1\n      swap3\n      swap2\n      swap1\n      tag_44\n      swap1\n      tag_45\n      jump\t// in\n    tag_44:\n      swap2\n      swap1\n      pop\n      sstore\n      pop\n        /* \"contracts/Job-Portal.sol\":858:947  Applicant(applicantCount, _name, _laborHistory, _skills, _availability, _otherDetails, 0) */\n      mload(0x40)\n      dup1\n      0xe0\n      add\n      0x40\n      mstore\n      dup1\n        /* \"contracts/Job-Portal.sol\":868:882  applicantCount */\n      sload(0x02)\n        /* \"contracts/Job-Portal.sol\":858:947  Applicant(applicantCount, _name, _laborHistory, _skills, _availability, _otherDetails, 0) */\n      dup2\n      mstore\n      0x20\n      add\n        /* \"contracts/Job-Portal.sol\":884:889  _name */\n      dup7\n        /* \"contracts/Job-Portal.sol\":858:947  Applicant(applicantCount, _name, _laborHistory, _skills, _availability, _otherDetails, 0) */\n      dup2\n      mstore\n      0x20\n      add\n        /* \"contracts/Job-Portal.sol\":891:904  _laborHistory */\n      dup6\n        /* \"contracts/Job-Portal.sol\":858:947  Applicant(applicantCount, _name, _laborHistory, _skills, _availability, _otherDetails, 0) */\n      dup2\n      mstore\n      0x20\n      add\n        /* \"contracts/Job-Portal.sol\":906:913  _skills */\n      dup5\n        /* \"contracts/Job-Portal.sol\":858:947  Applicant(applicantCount, _name, _laborHistory, _skills, _availability, _otherDetails, 0) */\n      dup2\n      mstore\n      0x20\n      add\n        /* \"contracts/Job-Portal.sol\":915:928  _availability */\n      dup4\n        /* \"contracts/Job-Portal.sol\":858:947  Applicant(applicantCount, _name, _laborHistory, _skills, _availability, _otherDetails, 0) */\n      dup2\n      mstore\n      0x20\n      add\n        /* \"contracts/Job-Portal.sol\":930:943  _otherDetails */\n      dup3\n        /* \"contracts/Job-Portal.sol\":858:947  Applicant(applicantCount, _name, _laborHistory, _skills, _availability, _otherDetails, 0) */\n      dup2\n      mstore\n      0x20\n      add\n        /* \"contracts/Job-Portal.sol\":945:946  0 */\n      0x00\n        /* \"contracts/Job-Portal.sol\":858:947  Applicant(applicantCount, _name, _laborHistory, _skills, _availability, _otherDetails, 0) */\n      dup2\n      mstore\n      pop\n        /* \"contracts/Job-Portal.sol\":829:839  applicants */\n      0x00\n        /* \"contracts/Job-Portal.sol\":829:855  applicants[applicantCount] */\n      dup1\n        /* \"contracts/Job-Portal.sol\":840:854  applicantCount */\n      sload(0x02)\n        /* \"contracts/Job-Portal.sol\":829:855  applicants[applicantCount] */\n      dup2\n      mstore\n      0x20\n      add\n      swap1\n      dup2\n      mstore\n      0x20\n      add\n      0x00\n      keccak256\n        /* \"contracts/Job-Portal.sol\":829:947  applicants[applicantCount] = Applicant(applicantCount, _name, _laborHistory, _skills, _availability, _otherDetails, 0) */\n      0x00\n      dup3\n      add\n      mload\n      dup2\n      0x00\n      add\n      sstore\n      0x20\n      dup3\n      add\n      mload\n      dup2\n      0x01\n      add\n      swap1\n      dup2\n      tag_46\n      swap2\n      swap1\n      tag_47\n      jump\t// in\n    tag_46:\n      pop\n      0x40\n      dup3\n      add\n      mload\n      dup2\n      0x02\n      add\n      swap1\n      dup2\n      tag_48\n      swap2\n      swap1\n      tag_47\n      jump\t// in\n    tag_48:\n      pop\n      0x60\n      dup3\n      add\n      mload\n      dup2\n      0x03\n      add\n      swap1\n      dup2\n      tag_49\n      swap2\n      swap1\n      tag_47\n      jump\t// in\n    tag_49:\n      pop\n      0x80\n      dup3\n      add\n      mload\n      dup2\n      0x04\n      add\n      swap1\n      dup2\n      tag_50\n      swap2\n      swap1\n      tag_47\n      jump\t// in\n    tag_50:\n      pop\n      0xa0\n      dup3\n      add\n      mload\n      dup2\n      0x05\n      add\n      swap1\n      dup2\n      tag_51\n      swap2\n      swap1\n      tag_47\n      jump\t// in\n    tag_51:\n      pop\n      0xc0\n      dup3\n      add\n      mload\n      dup2\n      0x06\n      add\n      sstore\n      swap1\n      pop\n      pop\n        /* \"contracts/Job-Portal.sol\":633:954  function addApplicant(string memory _name, string memory _laborHistory, string memory _skills, string memory _availability, string memory _otherDetails) public {... */\n      pop\n      pop\n      pop\n      pop\n      pop\n      jump\t// out\n        /* \"contracts/Job-Portal.sol\":990:1370  function getApplicantDetails(uint256 _id) public view returns (uint256, string memory, string memory, string memory, string memory, string memory, uint256) {... */\n    tag_20:\n        /* \"contracts/Job-Portal.sol\":1053:1060  uint256 */\n      0x00\n        /* \"contracts/Job-Portal.sol\":1062:1075  string memory */\n      0x60\n        /* \"contracts/Job-Portal.sol\":1077:1090  string memory */\n      dup1\n        /* \"contracts/Job-Portal.sol\":1092:1105  string memory */\n      0x60\n        /* \"contracts/Job-Portal.sol\":1107:1120  string memory */\n      dup1\n        /* \"contracts/Job-Portal.sol\":1122:1135  string memory */\n      0x60\n        /* \"contracts/Job-Portal.sol\":1137:1144  uint256 */\n      0x00\n        /* \"contracts/Job-Portal.sol\":1156:1182  Applicant memory applicant */\n      dup1\n        /* \"contracts/Job-Portal.sol\":1185:1195  applicants */\n      0x00\n        /* \"contracts/Job-Portal.sol\":1185:1200  applicants[_id] */\n      dup1\n        /* \"contracts/Job-Portal.sol\":1196:1199  _id */\n      dup11\n        /* \"contracts/Job-Portal.sol\":1185:1200  applicants[_id] */\n      dup2\n      mstore\n      0x20\n      add\n      swap1\n      dup2\n      mstore\n      0x20\n      add\n      0x00\n      keccak256\n        /* \"contracts/Job-Portal.sol\":1156:1200  Applicant memory applicant = applicants[_id] */\n      mload(0x40)\n      dup1\n      0xe0\n      add\n      0x40\n      mstore\n      swap1\n      dup2\n      0x00\n      dup3\n      add\n      sload\n      dup2\n      mstore\n      0x20\n      add\n      0x01\n      dup3\n      add\n      dup1\n      sload\n      tag_53\n      swap1\n      tag_33\n      jump\t// in\n    tag_53:\n      dup1\n      0x1f\n      add\n      0x20\n      dup1\n      swap2\n      div\n      mul\n      0x20\n      add\n      mload(0x40)\n      swap1\n      dup2\n      add\n      0x40\n      mstore\n      dup1\n      swap3\n      swap2\n      swap1\n      dup2\n      dup2\n      mstore\n      0x20\n      add\n      dup3\n      dup1\n      sload\n      tag_54\n      swap1\n      tag_33\n      jump\t// in\n    tag_54:\n      dup1\n      iszero\n      tag_55\n      jumpi\n      dup1\n      0x1f\n      lt\n      tag_56\n      jumpi\n      0x0100\n      dup1\n      dup4\n      sload\n      div\n      mul\n      dup4\n      mstore\n      swap2\n      0x20\n      add\n      swap2\n      jump(tag_55)\n    tag_56:\n      dup3\n      add\n      swap2\n      swap1\n      0x00\n      mstore\n      keccak256(0x00, 0x20)\n      swap1\n    tag_57:\n      dup2\n      sload\n      dup2\n      mstore\n      swap1\n      0x01\n      add\n      swap1\n      0x20\n      add\n      dup1\n      dup4\n      gt\n      tag_57\n      jumpi\n      dup3\n      swap1\n      sub\n      0x1f\n      and\n      dup3\n      add\n      swap2\n    tag_55:\n      pop\n      pop\n      pop\n      pop\n      pop\n      dup2\n      mstore\n      0x20\n      add\n      0x02\n      dup3\n      add\n      dup1\n      sload\n      tag_58\n      swap1\n      tag_33\n      jump\t// in\n    tag_58:\n      dup1\n      0x1f\n      add\n      0x20\n      dup1\n      swap2\n      div\n      mul\n      0x20\n      add\n      mload(0x40)\n      swap1\n      dup2\n      add\n      0x40\n      mstore\n      dup1\n      swap3\n      swap2\n      swap1\n      dup2\n      dup2\n      mstore\n      0x20\n      add\n      dup3\n      dup1\n      sload\n      tag_59\n      swap1\n      tag_33\n      jump\t// in\n    tag_59:\n      dup1\n      iszero\n      tag_60\n      jumpi\n      dup1\n      0x1f\n      lt\n      tag_61\n      jumpi\n      0x0100\n      dup1\n      dup4\n      sload\n      div\n      mul\n      dup4\n      mstore\n      swap2\n      0x20\n      add\n      swap2\n      jump(tag_60)\n    tag_61:\n      dup3\n      add\n      swap2\n      swap1\n      0x00\n      mstore\n      keccak256(0x00, 0x20)\n      swap1\n    tag_62:\n      dup2\n      sload\n      dup2\n      mstore\n      swap1\n      0x01\n      add\n      swap1\n      0x20\n      add\n      dup1\n      dup4\n      gt\n      tag_62\n      jumpi\n      dup3\n      swap1\n      sub\n      0x1f\n      and\n      dup3\n      add\n      swap2\n    tag_60:\n      pop\n      pop\n      pop\n      pop\n      pop\n      dup2\n      mstore\n      0x20\n      add\n      0x03\n      dup3\n      add\n      dup1\n      sload\n      tag_63\n      swap1\n      tag_33\n      jump\t// in\n    tag_63:\n      dup1\n      0x1f\n      add\n      0x20\n      dup1\n      swap2\n      div\n      mul\n      0x20\n      add\n      mload(0x40)\n      swap1\n      dup2\n      add\n      0x40\n      mstore\n      dup1\n      swap3\n      swap2\n      swap1\n      dup2\n      dup2\n      mstore\n      0x20\n      add\n      dup3\n      dup1\n      sload\n      tag_64\n      swap1\n      tag_33\n      jump\t// in\n    tag_64:\n      dup1\n      iszero\n      tag_65\n      jumpi\n      dup1\n      0x1f\n      lt\n      tag_66\n      jumpi\n      0x0100\n      dup1\n      dup4\n      sload\n      div\n      mul\n      dup4\n      mstore\n      swap2\n      0x20\n      add\n      swap2\n      jump(tag_65)\n    tag_66:\n      dup3\n      add\n      swap2\n      swap1\n      0x00\n      mstore\n      keccak256(0x00, 0x20)\n      swap1\n    tag_67:\n      dup2\n      sload\n      dup2\n      mstore\n      swap1\n      0x01\n      add\n      swap1\n      0x20\n      add\n      dup1\n      dup4\n      gt\n      tag_67\n      jumpi\n      dup3\n      swap1\n      sub\n      0x1f\n      and\n      dup3\n      add\n      swap2\n    tag_65:\n      pop\n      pop\n      pop\n      pop\n      pop\n      dup2\n      mstore\n      0x20\n      add\n      0x04\n      dup3\n      add\n      dup1\n      sload\n      tag_68\n      swap1\n      tag_33\n      jump\t// in\n    tag_68:\n      dup1\n      0x1f\n      add\n      0x20\n      dup1\n      swap2\n      div\n      mul\n      0x20\n      add\n      mload(0x40)\n      swap1\n      dup2\n      add\n      0x40\n      mstore\n      dup1\n      swap3\n      swap2\n      swap1\n      dup2\n      dup2\n      mstore\n      0x20\n      add\n      dup3\n      dup1\n      sload\n      tag_69\n      swap1\n      tag_33\n      jump\t// in\n    tag_69:\n      dup1\n      iszero\n      tag_70\n      jumpi\n      dup1\n      0x1f\n      lt\n      tag_71\n      jumpi\n      0x0100\n      dup1\n      dup4\n      sload\n      div\n      mul\n      dup4\n      mstore\n      swap2\n      0x20\n      add\n      swap2\n      jump(tag_70)\n    tag_71:\n      dup3\n      add\n      swap2\n      swap1\n      0x00\n      mstore\n      keccak256(0x00, 0x20)\n      swap1\n    tag_72:\n      dup2\n      sload\n      dup2\n      mstore\n      swap1\n      0x01\n      add\n      swap1\n      0x20\n      add\n      dup1\n      dup4\n      gt\n      tag_72\n      jumpi\n      dup3\n      swap1\n      sub\n      0x1f\n      and\n      dup3\n      add\n      swap2\n    tag_70:\n      pop\n      pop\n      pop\n      pop\n      pop\n      dup2\n      mstore\n      0x20\n      add\n      0x05\n      dup3\n      add\n      dup1\n      sload\n      tag_73\n      swap1\n      tag_33\n      jump\t// in\n    tag_73:\n      dup1\n      0x1f\n      add\n      0x20\n      dup1\n      swap2\n      div\n      mul\n      0x20\n      add\n      mload(0x40)\n      swap1\n      dup2\n      add\n      0x40\n      mstore\n      dup1\n      swap3\n      swap2\n      swap1\n      dup2\n      dup2\n      mstore\n      0x20\n      add\n      dup3\n      dup1\n      sload\n      tag_74\n      swap1\n      tag_33\n      jump\t// in\n    tag_74:\n      dup1\n      iszero\n      tag_75\n      jumpi\n      dup1\n      0x1f\n      lt\n      tag_76\n      jumpi\n      0x0100\n      dup1\n      dup4\n      sload\n      div\n      mul\n      dup4\n      mstore\n      swap2\n      0x20\n      add\n      swap2\n      jump(tag_75)\n    tag_76:\n      dup3\n      add\n      swap2\n      swap1\n      0x00\n      mstore\n      keccak256(0x00, 0x20)\n      swap1\n    tag_77:\n      dup2\n      sload\n      dup2\n      mstore\n      swap1\n      0x01\n      add\n      swap1\n      0x20\n      add\n      dup1\n      dup4\n      gt\n      tag_77\n      jumpi\n      dup3\n      swap1\n      sub\n      0x1f\n      and\n      dup3\n      add\n      swap2\n    tag_75:\n      pop\n      pop\n      pop\n      pop\n      pop\n      dup2\n      mstore\n      0x20\n      add\n      0x06\n      dup3\n      add\n      sload\n      dup2\n      mstore\n      pop\n      pop\n      swap1\n      pop\n        /* \"contracts/Job-Portal.sol\":1218:1227  applicant */\n      dup1\n        /* \"contracts/Job-Portal.sol\":1218:1230  applicant.id */\n      0x00\n      add\n      mload\n        /* \"contracts/Job-Portal.sol\":1232:1241  applicant */\n      dup2\n        /* \"contracts/Job-Portal.sol\":1232:1246  applicant.name */\n      0x20\n      add\n      mload\n        /* \"contracts/Job-Portal.sol\":1248:1257  applicant */\n      dup3\n        /* \"contracts/Job-Portal.sol\":1248:1270  applicant.laborhistory */\n      0x40\n      add\n      mload\n        /* \"contracts/Job-Portal.sol\":1272:1281  applicant */\n      dup4\n        /* \"contracts/Job-Portal.sol\":1272:1288  applicant.skills */\n      0x60\n      add\n      mload\n        /* \"contracts/Job-Portal.sol\":1290:1299  applicant */\n      dup5\n        /* \"contracts/Job-Portal.sol\":1290:1312  applicant.availability */\n      0x80\n      add\n      mload\n        /* \"contracts/Job-Portal.sol\":1314:1323  applicant */\n      dup6\n        /* \"contracts/Job-Portal.sol\":1314:1344  applicant.otherpersonaldetails */\n      0xa0\n      add\n      mload\n        /* \"contracts/Job-Portal.sol\":1346:1355  applicant */\n      dup7\n        /* \"contracts/Job-Portal.sol\":1346:1362  applicant.rating */\n      0xc0\n      add\n      mload\n        /* \"contracts/Job-Portal.sol\":1210:1363  return (applicant.id, applicant.name, applicant.laborhistory, applicant.skills, applicant.availability, applicant.otherpersonaldetails, applicant.rating) */\n      swap8\n      pop\n      swap8\n      pop\n      swap8\n      pop\n      swap8\n      pop\n      swap8\n      pop\n      swap8\n      pop\n      swap8\n      pop\n      pop\n        /* \"contracts/Job-Portal.sol\":990:1370  function getApplicantDetails(uint256 _id) public view returns (uint256, string memory, string memory, string memory, string memory, string memory, uint256) {... */\n      swap2\n      swap4\n      swap6\n      swap8\n      swap1\n      swap3\n      swap5\n      swap7\n      pop\n      jump\t// out\n        /* \"contracts/Job-Portal.sol\":1951:2156  function applyForJob(uint256 _applicantId, uint256 _jobId) public {... */\n    tag_26:\n        /* \"contracts/Job-Portal.sol\":2062:2063  1 */\n      0x01\n        /* \"contracts/Job-Portal.sol\":2027:2037  applicants */\n      0x00\n        /* \"contracts/Job-Portal.sol\":2027:2051  applicants[_applicantId] */\n      dup1\n        /* \"contracts/Job-Portal.sol\":2038:2050  _applicantId */\n      dup5\n        /* \"contracts/Job-Portal.sol\":2027:2051  applicants[_applicantId] */\n      dup2\n      mstore\n      0x20\n      add\n      swap1\n      dup2\n      mstore\n      0x20\n      add\n      0x00\n      keccak256\n        /* \"contracts/Job-Portal.sol\":2027:2058  applicants[_applicantId].rating */\n      0x06\n      add\n      0x00\n        /* \"contracts/Job-Portal.sol\":2027:2063  applicants[_applicantId].rating += 1 */\n      dup3\n      dup3\n      sload\n      tag_79\n      swap2\n      swap1\n      tag_80\n      jump\t// in\n    tag_79:\n      swap3\n      pop\n      pop\n      dup2\n      swap1\n      sstore\n      pop\n        /* \"contracts/Job-Portal.sol\":2125:2126  1 */\n      0x01\n        /* \"contracts/Job-Portal.sol\":2102:2106  jobs */\n      dup1\n        /* \"contracts/Job-Portal.sol\":2102:2114  jobs[_jobId] */\n      0x00\n        /* \"contracts/Job-Portal.sol\":2107:2113  _jobId */\n      dup4\n        /* \"contracts/Job-Portal.sol\":2102:2114  jobs[_jobId] */\n      dup2\n      mstore\n      0x20\n      add\n      swap1\n      dup2\n      mstore\n      0x20\n      add\n      0x00\n      keccak256\n        /* \"contracts/Job-Portal.sol\":2102:2121  jobs[_jobId].rating */\n      0x05\n      add\n      0x00\n        /* \"contracts/Job-Portal.sol\":2102:2126  jobs[_jobId].rating += 1 */\n      dup3\n      dup3\n      sload\n      tag_81\n      swap2\n      swap1\n      tag_80\n      jump\t// in\n    tag_81:\n      swap3\n      pop\n      pop\n      dup2\n      swap1\n      sstore\n      pop\n        /* \"contracts/Job-Portal.sol\":1951:2156  function applyForJob(uint256 _applicantId, uint256 _jobId) public {... */\n      pop\n      pop\n      jump\t// out\n        /* \"contracts/Job-Portal.sol\":1411:1618  function addJob(string memory _jobname, string memory _description, uint256 _salary) public {... */\n    tag_30:\n        /* \"contracts/Job-Portal.sol\":1513:1521  jobCount */\n      0x03\n      0x00\n        /* \"contracts/Job-Portal.sol\":1513:1523  jobCount++ */\n      dup2\n      sload\n      dup1\n      swap3\n      swap2\n      swap1\n      tag_83\n      swap1\n      tag_45\n      jump\t// in\n    tag_83:\n      swap2\n      swap1\n      pop\n      sstore\n      pop\n        /* \"contracts/Job-Portal.sol\":1550:1611  Job(jobCount, _jobname, _description, _salary, msg.sender, 0) */\n      mload(0x40)\n      dup1\n      0xc0\n      add\n      0x40\n      mstore\n      dup1\n        /* \"contracts/Job-Portal.sol\":1554:1562  jobCount */\n      sload(0x03)\n        /* \"contracts/Job-Portal.sol\":1550:1611  Job(jobCount, _jobname, _description, _salary, msg.sender, 0) */\n      dup2\n      mstore\n      0x20\n      add\n        /* \"contracts/Job-Portal.sol\":1564:1572  _jobname */\n      dup5\n        /* \"contracts/Job-Portal.sol\":1550:1611  Job(jobCount, _jobname, _description, _salary, msg.sender, 0) */\n      dup2\n      mstore\n      0x20\n      add\n        /* \"contracts/Job-Portal.sol\":1574:1586  _description */\n      dup4\n        /* \"contracts/Job-Portal.sol\":1550:1611  Job(jobCount, _jobname, _description, _salary, msg.sender, 0) */\n      dup2\n      mstore\n      0x20\n      add\n        /* \"contracts/Job-Portal.sol\":1588:1595  _salary */\n      dup3\n        /* \"contracts/Job-Portal.sol\":1550:1611  Job(jobCount, _jobname, _description, _salary, msg.sender, 0) */\n      dup2\n      mstore\n      0x20\n      add\n        /* \"contracts/Job-Portal.sol\":1597:1607  msg.sender */\n      caller\n        /* \"contracts/Job-Portal.sol\":1550:1611  Job(jobCount, _jobname, _description, _salary, msg.sender, 0) */\n      0xffffffffffffffffffffffffffffffffffffffff\n      and\n      dup2\n      mstore\n      0x20\n      add\n        /* \"contracts/Job-Portal.sol\":1609:1610  0 */\n      0x00\n        /* \"contracts/Job-Portal.sol\":1550:1611  Job(jobCount, _jobname, _description, _salary, msg.sender, 0) */\n      dup2\n      mstore\n      pop\n        /* \"contracts/Job-Portal.sol\":1533:1537  jobs */\n      0x01\n        /* \"contracts/Job-Portal.sol\":1533:1547  jobs[jobCount] */\n      0x00\n        /* \"contracts/Job-Portal.sol\":1538:1546  jobCount */\n      sload(0x03)\n        /* \"contracts/Job-Portal.sol\":1533:1547  jobs[jobCount] */\n      dup2\n      mstore\n      0x20\n      add\n      swap1\n      dup2\n      mstore\n      0x20\n      add\n      0x00\n      keccak256\n        /* \"contracts/Job-Portal.sol\":1533:1611  jobs[jobCount] = Job(jobCount, _jobname, _description, _salary, msg.sender, 0) */\n      0x00\n      dup3\n      add\n      mload\n      dup2\n      0x00\n      add\n      sstore\n      0x20\n      dup3\n      add\n      mload\n      dup2\n      0x01\n      add\n      swap1\n      dup2\n      tag_84\n      swap2\n      swap1\n      tag_47\n      jump\t// in\n    tag_84:\n      pop\n      0x40\n      dup3\n      add\n      mload\n      dup2\n      0x02\n      add\n      swap1\n      dup2\n      tag_85\n      swap2\n      swap1\n      tag_47\n      jump\t// in\n    tag_85:\n      pop\n      0x60\n      dup3\n      add\n      mload\n      dup2\n      0x03\n      add\n      sstore\n      0x80\n      dup3\n      add\n      mload\n      dup2\n      0x04\n      add\n      exp(0x0100, 0x00)\n      dup2\n      sload\n      dup2\n      0xffffffffffffffffffffffffffffffffffffffff\n      mul\n      not\n      and\n      swap1\n      dup4\n      0xffffffffffffffffffffffffffffffffffffffff\n      and\n      mul\n      or\n      swap1\n      sstore\n      pop\n      0xa0\n      dup3\n      add\n      mload\n      dup2\n      0x05\n      add\n      sstore\n      swap1\n      pop\n      pop\n        /* \"contracts/Job-Portal.sol\":1411:1618  function addJob(string memory _jobname, string memory _description, uint256 _salary) public {... */\n      pop\n      pop\n      pop\n      jump\t// out\n        /* \"#utility.yul\":7:82   */\n    tag_86:\n        /* \"#utility.yul\":40:46   */\n      0x00\n        /* \"#utility.yul\":73:75   */\n      0x40\n        /* \"#utility.yul\":67:76   */\n      mload\n        /* \"#utility.yul\":57:76   */\n      swap1\n      pop\n        /* \"#utility.yul\":7:82   */\n      swap1\n      jump\t// out\n        /* \"#utility.yul\":88:205   */\n    tag_87:\n        /* \"#utility.yul\":197:198   */\n      0x00\n        /* \"#utility.yul\":194:195   */\n      dup1\n        /* \"#utility.yul\":187:199   */\n      revert\n        /* \"#utility.yul\":211:328   */\n    tag_88:\n        /* \"#utility.yul\":320:321   */\n      0x00\n        /* \"#utility.yul\":317:318   */\n      dup1\n        /* \"#utility.yul\":310:322   */\n      revert\n        /* \"#utility.yul\":334:411   */\n    tag_89:\n        /* \"#utility.yul\":371:378   */\n      0x00\n        /* \"#utility.yul\":400:405   */\n      dup2\n        /* \"#utility.yul\":389:405   */\n      swap1\n      pop\n        /* \"#utility.yul\":334:411   */\n      swap2\n      swap1\n      pop\n      jump\t// out\n        /* \"#utility.yul\":417:539   */\n    tag_90:\n        /* \"#utility.yul\":490:514   */\n      tag_133\n        /* \"#utility.yul\":508:513   */\n      dup2\n        /* \"#utility.yul\":490:514   */\n      tag_89\n      jump\t// in\n    tag_133:\n        /* \"#utility.yul\":483:488   */\n      dup2\n        /* \"#utility.yul\":480:515   */\n      eq\n        /* \"#utility.yul\":470:533   */\n      tag_134\n      jumpi\n        /* \"#utility.yul\":529:530   */\n      0x00\n        /* \"#utility.yul\":526:527   */\n      dup1\n        /* \"#utility.yul\":519:531   */\n      revert\n        /* \"#utility.yul\":470:533   */\n    tag_134:\n        /* \"#utility.yul\":417:539   */\n      pop\n      jump\t// out\n        /* \"#utility.yul\":545:684   */\n    tag_91:\n        /* \"#utility.yul\":591:596   */\n      0x00\n        /* \"#utility.yul\":629:635   */\n      dup2\n        /* \"#utility.yul\":616:636   */\n      calldataload\n        /* \"#utility.yul\":607:636   */\n      swap1\n      pop\n        /* \"#utility.yul\":645:678   */\n      tag_136\n        /* \"#utility.yul\":672:677   */\n      dup2\n        /* \"#utility.yul\":645:678   */\n      tag_90\n      jump\t// in\n    tag_136:\n        /* \"#utility.yul\":545:684   */\n      swap3\n      swap2\n      pop\n      pop\n      jump\t// out\n        /* \"#utility.yul\":690:1019   */\n    tag_10:\n        /* \"#utility.yul\":749:755   */\n      0x00\n        /* \"#utility.yul\":798:800   */\n      0x20\n        /* \"#utility.yul\":786:795   */\n      dup3\n        /* \"#utility.yul\":777:784   */\n      dup5\n        /* \"#utility.yul\":773:796   */\n      sub\n        /* \"#utility.yul\":769:801   */\n      slt\n        /* \"#utility.yul\":766:885   */\n      iszero\n      tag_138\n      jumpi\n        /* \"#utility.yul\":804:883   */\n      tag_139\n      tag_87\n      jump\t// in\n    tag_139:\n        /* \"#utility.yul\":766:885   */\n    tag_138:\n        /* \"#utility.yul\":924:925   */\n      0x00\n        /* \"#utility.yul\":949:1002   */\n      tag_140\n        /* \"#utility.yul\":994:1001   */\n      dup5\n        /* \"#utility.yul\":985:991   */\n      dup3\n        /* \"#utility.yul\":974:983   */\n      dup6\n        /* \"#utility.yul\":970:992   */\n      add\n        /* \"#utility.yul\":949:1002   */\n      tag_91\n      jump\t// in\n    tag_140:\n        /* \"#utility.yul\":939:1002   */\n      swap2\n      pop\n        /* \"#utility.yul\":895:1012   */\n      pop\n        /* \"#utility.yul\":690:1019   */\n      swap3\n      swap2\n      pop\n      pop\n      jump\t// out\n        /* \"#utility.yul\":1025:1143   */\n    tag_92:\n        /* \"#utility.yul\":1112:1136   */\n      tag_142\n        /* \"#utility.yul\":1130:1135   */\n      dup2\n        /* \"#utility.yul\":1112:1136   */\n      tag_89\n      jump\t// in\n    tag_142:\n        /* \"#utility.yul\":1107:1110   */\n      dup3\n        /* \"#utility.yul\":1100:1137   */\n      mstore\n        /* \"#utility.yul\":1025:1143   */\n      pop\n      pop\n      jump\t// out\n        /* \"#utility.yul\":1149:1248   */\n    tag_93:\n        /* \"#utility.yul\":1201:1207   */\n      0x00\n        /* \"#utility.yul\":1235:1240   */\n      dup2\n        /* \"#utility.yul\":1229:1241   */\n      mload\n        /* \"#utility.yul\":1219:1241   */\n      swap1\n      pop\n        /* \"#utility.yul\":1149:1248   */\n      swap2\n      swap1\n      pop\n      jump\t// out\n        /* \"#utility.yul\":1254:1423   */\n    tag_94:\n        /* \"#utility.yul\":1338:1349   */\n      0x00\n        /* \"#utility.yul\":1372:1378   */\n      dup3\n        /* \"#utility.yul\":1367:1370   */\n      dup3\n        /* \"#utility.yul\":1360:1379   */\n      mstore\n        /* \"#utility.yul\":1412:1416   */\n      0x20\n        /* \"#utility.yul\":1407:1410   */\n      dup3\n        /* \"#utility.yul\":1403:1417   */\n      add\n        /* \"#utility.yul\":1388:1417   */\n      swap1\n      pop\n        /* \"#utility.yul\":1254:1423   */\n      swap3\n      swap2\n      pop\n      pop\n      jump\t// out\n        /* \"#utility.yul\":1429:1675   */\n    tag_95:\n        /* \"#utility.yul\":1510:1511   */\n      0x00\n        /* \"#utility.yul\":1520:1633   */\n    tag_146:\n        /* \"#utility.yul\":1534:1540   */\n      dup4\n        /* \"#utility.yul\":1531:1532   */\n      dup2\n        /* \"#utility.yul\":1528:1541   */\n      lt\n        /* \"#utility.yul\":1520:1633   */\n      iszero\n      tag_148\n      jumpi\n        /* \"#utility.yul\":1619:1620   */\n      dup1\n        /* \"#utility.yul\":1614:1617   */\n      dup3\n        /* \"#utility.yul\":1610:1621   */\n      add\n        /* \"#utility.yul\":1604:1622   */\n      mload\n        /* \"#utility.yul\":1600:1601   */\n      dup2\n        /* \"#utility.yul\":1595:1598   */\n      dup5\n        /* \"#utility.yul\":1591:1602   */\n      add\n        /* \"#utility.yul\":1584:1623   */\n      mstore\n        /* \"#utility.yul\":1556:1558   */\n      0x20\n        /* \"#utility.yul\":1553:1554   */\n      dup2\n        /* \"#utility.yul\":1549:1559   */\n      add\n        /* \"#utility.yul\":1544:1559   */\n      swap1\n      pop\n        /* \"#utility.yul\":1520:1633   */\n      jump(tag_146)\n    tag_148:\n        /* \"#utility.yul\":1667:1668   */\n      0x00\n        /* \"#utility.yul\":1658:1664   */\n      dup5\n        /* \"#utility.yul\":1653:1656   */\n      dup5\n        /* \"#utility.yul\":1649:1665   */\n      add\n        /* \"#utility.yul\":1642:1669   */\n      mstore\n        /* \"#utility.yul\":1491:1675   */\n      pop\n        /* \"#utility.yul\":1429:1675   */\n      pop\n      pop\n      pop\n      jump\t// out\n        /* \"#utility.yul\":1681:1783   */\n    tag_96:\n        /* \"#utility.yul\":1722:1728   */\n      0x00\n        /* \"#utility.yul\":1773:1775   */\n      0x1f\n        /* \"#utility.yul\":1769:1776   */\n      not\n        /* \"#utility.yul\":1764:1766   */\n      0x1f\n        /* \"#utility.yul\":1757:1762   */\n      dup4\n        /* \"#utility.yul\":1753:1767   */\n      add\n        /* \"#utility.yul\":1749:1777   */\n      and\n        /* \"#utility.yul\":1739:1777   */\n      swap1\n      pop\n        /* \"#utility.yul\":1681:1783   */\n      swap2\n      swap1\n      pop\n      jump\t// out\n        /* \"#utility.yul\":1789:2166   */\n    tag_97:\n        /* \"#utility.yul\":1877:1880   */\n      0x00\n        /* \"#utility.yul\":1905:1944   */\n      tag_151\n        /* \"#utility.yul\":1938:1943   */\n      dup3\n        /* \"#utility.yul\":1905:1944   */\n      tag_93\n      jump\t// in\n    tag_151:\n        /* \"#utility.yul\":1960:2031   */\n      tag_152\n        /* \"#utility.yul\":2024:2030   */\n      dup2\n        /* \"#utility.yul\":2019:2022   */\n      dup6\n        /* \"#utility.yul\":1960:2031   */\n      tag_94\n      jump\t// in\n    tag_152:\n        /* \"#utility.yul\":1953:2031   */\n      swap4\n      pop\n        /* \"#utility.yul\":2040:2105   */\n      tag_153\n        /* \"#utility.yul\":2098:2104   */\n      dup2\n        /* \"#utility.yul\":2093:2096   */\n      dup6\n        /* \"#utility.yul\":2086:2090   */\n      0x20\n        /* \"#utility.yul\":2079:2084   */\n      dup7\n        /* \"#utility.yul\":2075:2091   */\n      add\n        /* \"#utility.yul\":2040:2105   */\n      tag_95\n      jump\t// in\n    tag_153:\n        /* \"#utility.yul\":2130:2159   */\n      tag_154\n        /* \"#utility.yul\":2152:2158   */\n      dup2\n        /* \"#utility.yul\":2130:2159   */\n      tag_96\n      jump\t// in\n    tag_154:\n        /* \"#utility.yul\":2125:2128   */\n      dup5\n        /* \"#utility.yul\":2121:2160   */\n      add\n        /* \"#utility.yul\":2114:2160   */\n      swap2\n      pop\n        /* \"#utility.yul\":1881:2166   */\n      pop\n        /* \"#utility.yul\":1789:2166   */\n      swap3\n      swap2\n      pop\n      pop\n      jump\t// out\n        /* \"#utility.yul\":2172:2298   */\n    tag_98:\n        /* \"#utility.yul\":2209:2216   */\n      0x00\n        /* \"#utility.yul\":2249:2291   */\n      0xffffffffffffffffffffffffffffffffffffffff\n        /* \"#utility.yul\":2242:2247   */\n      dup3\n        /* \"#utility.yul\":2238:2292   */\n      and\n        /* \"#utility.yul\":2227:2292   */\n      swap1\n      pop\n        /* \"#utility.yul\":2172:2298   */\n      swap2\n      swap1\n      pop\n      jump\t// out\n        /* \"#utility.yul\":2304:2400   */\n    tag_99:\n        /* \"#utility.yul\":2341:2348   */\n      0x00\n        /* \"#utility.yul\":2370:2394   */\n      tag_157\n        /* \"#utility.yul\":2388:2393   */\n      dup3\n        /* \"#utility.yul\":2370:2394   */\n      tag_98\n      jump\t// in\n    tag_157:\n        /* \"#utility.yul\":2359:2394   */\n      swap1\n      pop\n        /* \"#utility.yul\":2304:2400   */\n      swap2\n      swap1\n      pop\n      jump\t// out\n        /* \"#utility.yul\":2406:2524   */\n    tag_100:\n        /* \"#utility.yul\":2493:2517   */\n      tag_159\n        /* \"#utility.yul\":2511:2516   */\n      dup2\n        /* \"#utility.yul\":2493:2517   */\n      tag_99\n      jump\t// in\n    tag_159:\n        /* \"#utility.yul\":2488:2491   */\n      dup3\n        /* \"#utility.yul\":2481:2518   */\n      mstore\n        /* \"#utility.yul\":2406:2524   */\n      pop\n      pop\n      jump\t// out\n        /* \"#utility.yul\":2530:3487   */\n    tag_13:\n        /* \"#utility.yul\":2803:2807   */\n      0x00\n        /* \"#utility.yul\":2841:2844   */\n      0xc0\n        /* \"#utility.yul\":2830:2839   */\n      dup3\n        /* \"#utility.yul\":2826:2845   */\n      add\n        /* \"#utility.yul\":2818:2845   */\n      swap1\n      pop\n        /* \"#utility.yul\":2855:2926   */\n      tag_161\n        /* \"#utility.yul\":2923:2924   */\n      0x00\n        /* \"#utility.yul\":2912:2921   */\n      dup4\n        /* \"#utility.yul\":2908:2925   */\n      add\n        /* \"#utility.yul\":2899:2905   */\n      dup10\n        /* \"#utility.yul\":2855:2926   */\n      tag_92\n      jump\t// in\n    tag_161:\n        /* \"#utility.yul\":2973:2982   */\n      dup2\n        /* \"#utility.yul\":2967:2971   */\n      dup2\n        /* \"#utility.yul\":2963:2983   */\n      sub\n        /* \"#utility.yul\":2958:2960   */\n      0x20\n        /* \"#utility.yul\":2947:2956   */\n      dup4\n        /* \"#utility.yul\":2943:2961   */\n      add\n        /* \"#utility.yul\":2936:2984   */\n      mstore\n        /* \"#utility.yul\":3001:3079   */\n      tag_162\n        /* \"#utility.yul\":3074:3078   */\n      dup2\n        /* \"#utility.yul\":3065:3071   */\n      dup9\n        /* \"#utility.yul\":3001:3079   */\n      tag_97\n      jump\t// in\n    tag_162:\n        /* \"#utility.yul\":2993:3079   */\n      swap1\n      pop\n        /* \"#utility.yul\":3126:3135   */\n      dup2\n        /* \"#utility.yul\":3120:3124   */\n      dup2\n        /* \"#utility.yul\":3116:3136   */\n      sub\n        /* \"#utility.yul\":3111:3113   */\n      0x40\n        /* \"#utility.yul\":3100:3109   */\n      dup4\n        /* \"#utility.yul\":3096:3114   */\n      add\n        /* \"#utility.yul\":3089:3137   */\n      mstore\n        /* \"#utility.yul\":3154:3232   */\n      tag_163\n        /* \"#utility.yul\":3227:3231   */\n      dup2\n        /* \"#utility.yul\":3218:3224   */\n      dup8\n        /* \"#utility.yul\":3154:3232   */\n      tag_97\n      jump\t// in\n    tag_163:\n        /* \"#utility.yul\":3146:3232   */\n      swap1\n      pop\n        /* \"#utility.yul\":3242:3314   */\n      tag_164\n        /* \"#utility.yul\":3310:3312   */\n      0x60\n        /* \"#utility.yul\":3299:3308   */\n      dup4\n        /* \"#utility.yul\":3295:3313   */\n      add\n        /* \"#utility.yul\":3286:3292   */\n      dup7\n        /* \"#utility.yul\":3242:3314   */\n      tag_92\n      jump\t// in\n    tag_164:\n        /* \"#utility.yul\":3324:3397   */\n      tag_165\n        /* \"#utility.yul\":3392:3395   */\n      0x80\n        /* \"#utility.yul\":3381:3390   */\n      dup4\n        /* \"#utility.yul\":3377:3396   */\n      add\n        /* \"#utility.yul\":3368:3374   */\n      dup6\n        /* \"#utility.yul\":3324:3397   */\n      tag_100\n      jump\t// in\n    tag_165:\n        /* \"#utility.yul\":3407:3480   */\n      tag_166\n        /* \"#utility.yul\":3475:3478   */\n      0xa0\n        /* \"#utility.yul\":3464:3473   */\n      dup4\n        /* \"#utility.yul\":3460:3479   */\n      add\n        /* \"#utility.yul\":3451:3457   */\n      dup5\n        /* \"#utility.yul\":3407:3480   */\n      tag_92\n      jump\t// in\n    tag_166:\n        /* \"#utility.yul\":2530:3487   */\n      swap8\n      swap7\n      pop\n      pop\n      pop\n      pop\n      pop\n      pop\n      pop\n      jump\t// out\n        /* \"#utility.yul\":3493:3610   */\n    tag_101:\n        /* \"#utility.yul\":3602:3603   */\n      0x00\n        /* \"#utility.yul\":3599:3600   */\n      dup1\n        /* \"#utility.yul\":3592:3604   */\n      revert\n        /* \"#utility.yul\":3616:3733   */\n    tag_102:\n        /* \"#utility.yul\":3725:3726   */\n      0x00\n        /* \"#utility.yul\":3722:3723   */\n      dup1\n        /* \"#utility.yul\":3715:3727   */\n      revert\n        /* \"#utility.yul\":3739:3919   */\n    tag_103:\n        /* \"#utility.yul\":3787:3864   */\n      0x4e487b7100000000000000000000000000000000000000000000000000000000\n        /* \"#utility.yul\":3784:3785   */\n      0x00\n        /* \"#utility.yul\":3777:3865   */\n      mstore\n        /* \"#utility.yul\":3884:3888   */\n      0x41\n        /* \"#utility.yul\":3881:3882   */\n      0x04\n        /* \"#utility.yul\":3874:3889   */\n      mstore\n        /* \"#utility.yul\":3908:3912   */\n      0x24\n        /* \"#utility.yul\":3905:3906   */\n      0x00\n        /* \"#utility.yul\":3898:3913   */\n      revert\n        /* \"#utility.yul\":3925:4206   */\n    tag_104:\n        /* \"#utility.yul\":4008:4035   */\n      tag_171\n        /* \"#utility.yul\":4030:4034   */\n      dup3\n        /* \"#utility.yul\":4008:4035   */\n      tag_96\n      jump\t// in\n    tag_171:\n        /* \"#utility.yul\":4000:4006   */\n      dup2\n        /* \"#utility.yul\":3996:4036   */\n      add\n        /* \"#utility.yul\":4138:4144   */\n      dup2\n        /* \"#utility.yul\":4126:4136   */\n      dup2\n        /* \"#utility.yul\":4123:4145   */\n      lt\n        /* \"#utility.yul\":4102:4120   */\n      0xffffffffffffffff\n        /* \"#utility.yul\":4090:4100   */\n      dup3\n        /* \"#utility.yul\":4087:4121   */\n      gt\n        /* \"#utility.yul\":4084:4146   */\n      or\n        /* \"#utility.yul\":4081:4169   */\n      iszero\n      tag_172\n      jumpi\n        /* \"#utility.yul\":4149:4167   */\n      tag_173\n      tag_103\n      jump\t// in\n    tag_173:\n        /* \"#utility.yul\":4081:4169   */\n    tag_172:\n        /* \"#utility.yul\":4189:4199   */\n      dup1\n        /* \"#utility.yul\":4185:4187   */\n      0x40\n        /* \"#utility.yul\":4178:4200   */\n      mstore\n        /* \"#utility.yul\":3968:4206   */\n      pop\n        /* \"#utility.yul\":3925:4206   */\n      pop\n      pop\n      jump\t// out\n        /* \"#utility.yul\":4212:4341   */\n    tag_105:\n        /* \"#utility.yul\":4246:4252   */\n      0x00\n        /* \"#utility.yul\":4273:4293   */\n      tag_175\n      tag_86\n      jump\t// in\n    tag_175:\n        /* \"#utility.yul\":4263:4293   */\n      swap1\n      pop\n        /* \"#utility.yul\":4302:4335   */\n      tag_176\n        /* \"#utility.yul\":4330:4334   */\n      dup3\n        /* \"#utility.yul\":4322:4328   */\n      dup3\n        /* \"#utility.yul\":4302:4335   */\n      tag_104\n      jump\t// in\n    tag_176:\n        /* \"#utility.yul\":4212:4341   */\n      swap2\n      swap1\n      pop\n      jump\t// out\n        /* \"#utility.yul\":4347:4655   */\n    tag_106:\n        /* \"#utility.yul\":4409:4413   */\n      0x00\n        /* \"#utility.yul\":4499:4517   */\n      0xffffffffffffffff\n        /* \"#utility.yul\":4491:4497   */\n      dup3\n        /* \"#utility.yul\":4488:4518   */\n      gt\n        /* \"#utility.yul\":4485:4541   */\n      iszero\n      tag_178\n      jumpi\n        /* \"#utility.yul\":4521:4539   */\n      tag_179\n      tag_103\n      jump\t// in\n    tag_179:\n        /* \"#utility.yul\":4485:4541   */\n    tag_178:\n        /* \"#utility.yul\":4559:4588   */\n      tag_180\n        /* \"#utility.yul\":4581:4587   */\n      dup3\n        /* \"#utility.yul\":4559:4588   */\n      tag_96\n      jump\t// in\n    tag_180:\n        /* \"#utility.yul\":4551:4588   */\n      swap1\n      pop\n        /* \"#utility.yul\":4643:4647   */\n      0x20\n        /* \"#utility.yul\":4637:4641   */\n      dup2\n        /* \"#utility.yul\":4633:4648   */\n      add\n        /* \"#utility.yul\":4625:4648   */\n      swap1\n      pop\n        /* \"#utility.yul\":4347:4655   */\n      swap2\n      swap1\n      pop\n      jump\t// out\n        /* \"#utility.yul\":4661:4807   */\n    tag_107:\n        /* \"#utility.yul\":4758:4764   */\n      dup3\n        /* \"#utility.yul\":4753:4756   */\n      dup2\n        /* \"#utility.yul\":4748:4751   */\n      dup4\n        /* \"#utility.yul\":4735:4765   */\n      calldatacopy\n        /* \"#utility.yul\":4799:4800   */\n      0x00\n        /* \"#utility.yul\":4790:4796   */\n      dup4\n        /* \"#utility.yul\":4785:4788   */\n      dup4\n        /* \"#utility.yul\":4781:4797   */\n      add\n        /* \"#utility.yul\":4774:4801   */\n      mstore\n        /* \"#utility.yul\":4661:4807   */\n      pop\n      pop\n      pop\n      jump\t// out\n        /* \"#utility.yul\":4813:5238   */\n    tag_108:\n        /* \"#utility.yul\":4891:4896   */\n      0x00\n        /* \"#utility.yul\":4916:4982   */\n      tag_183\n        /* \"#utility.yul\":4932:4981   */\n      tag_184\n        /* \"#utility.yul\":4974:4980   */\n      dup5\n        /* \"#utility.yul\":4932:4981   */\n      tag_106\n      jump\t// in\n    tag_184:\n        /* \"#utility.yul\":4916:4982   */\n      tag_105\n      jump\t// in\n    tag_183:\n        /* \"#utility.yul\":4907:4982   */\n      swap1\n      pop\n        /* \"#utility.yul\":5005:5011   */\n      dup3\n        /* \"#utility.yul\":4998:5003   */\n      dup2\n        /* \"#utility.yul\":4991:5012   */\n      mstore\n        /* \"#utility.yul\":5043:5047   */\n      0x20\n        /* \"#utility.yul\":5036:5041   */\n      dup2\n        /* \"#utility.yul\":5032:5048   */\n      add\n        /* \"#utility.yul\":5081:5084   */\n      dup5\n        /* \"#utility.yul\":5072:5078   */\n      dup5\n        /* \"#utility.yul\":5067:5070   */\n      dup5\n        /* \"#utility.yul\":5063:5079   */\n      add\n        /* \"#utility.yul\":5060:5085   */\n      gt\n        /* \"#utility.yul\":5057:5169   */\n      iszero\n      tag_185\n      jumpi\n        /* \"#utility.yul\":5088:5167   */\n      tag_186\n      tag_102\n      jump\t// in\n    tag_186:\n        /* \"#utility.yul\":5057:5169   */\n    tag_185:\n        /* \"#utility.yul\":5178:5232   */\n      tag_187\n        /* \"#utility.yul\":5225:5231   */\n      dup5\n        /* \"#utility.yul\":5220:5223   */\n      dup3\n        /* \"#utility.yul\":5215:5218   */\n      dup6\n        /* \"#utility.yul\":5178:5232   */\n      tag_107\n      jump\t// in\n    tag_187:\n        /* \"#utility.yul\":4897:5238   */\n      pop\n        /* \"#utility.yul\":4813:5238   */\n      swap4\n      swap3\n      pop\n      pop\n      pop\n      jump\t// out\n        /* \"#utility.yul\":5258:5598   */\n    tag_109:\n        /* \"#utility.yul\":5314:5319   */\n      0x00\n        /* \"#utility.yul\":5363:5366   */\n      dup3\n        /* \"#utility.yul\":5356:5360   */\n      0x1f\n        /* \"#utility.yul\":5348:5354   */\n      dup4\n        /* \"#utility.yul\":5344:5361   */\n      add\n        /* \"#utility.yul\":5340:5367   */\n      slt\n        /* \"#utility.yul\":5330:5452   */\n      tag_189\n      jumpi\n        /* \"#utility.yul\":5371:5450   */\n      tag_190\n      tag_101\n      jump\t// in\n    tag_190:\n        /* \"#utility.yul\":5330:5452   */\n    tag_189:\n        /* \"#utility.yul\":5488:5494   */\n      dup2\n        /* \"#utility.yul\":5475:5495   */\n      calldataload\n        /* \"#utility.yul\":5513:5592   */\n      tag_191\n        /* \"#utility.yul\":5588:5591   */\n      dup5\n        /* \"#utility.yul\":5580:5586   */\n      dup3\n        /* \"#utility.yul\":5573:5577   */\n      0x20\n        /* \"#utility.yul\":5565:5571   */\n      dup7\n        /* \"#utility.yul\":5561:5578   */\n      add\n        /* \"#utility.yul\":5513:5592   */\n      tag_108\n      jump\t// in\n    tag_191:\n        /* \"#utility.yul\":5504:5592   */\n      swap2\n      pop\n        /* \"#utility.yul\":5320:5598   */\n      pop\n        /* \"#utility.yul\":5258:5598   */\n      swap3\n      swap2\n      pop\n      pop\n      jump\t// out\n        /* \"#utility.yul\":5604:7415   */\n    tag_16:\n        /* \"#utility.yul\":5749:5755   */\n      0x00\n        /* \"#utility.yul\":5757:5763   */\n      dup1\n        /* \"#utility.yul\":5765:5771   */\n      0x00\n        /* \"#utility.yul\":5773:5779   */\n      dup1\n        /* \"#utility.yul\":5781:5787   */\n      0x00\n        /* \"#utility.yul\":5830:5833   */\n      0xa0\n        /* \"#utility.yul\":5818:5827   */\n      dup7\n        /* \"#utility.yul\":5809:5816   */\n      dup9\n        /* \"#utility.yul\":5805:5828   */\n      sub\n        /* \"#utility.yul\":5801:5834   */\n      slt\n        /* \"#utility.yul\":5798:5918   */\n      iszero\n      tag_193\n      jumpi\n        /* \"#utility.yul\":5837:5916   */\n      tag_194\n      tag_87\n      jump\t// in\n    tag_194:\n        /* \"#utility.yul\":5798:5918   */\n    tag_193:\n        /* \"#utility.yul\":5985:5986   */\n      0x00\n        /* \"#utility.yul\":5974:5983   */\n      dup7\n        /* \"#utility.yul\":5970:5987   */\n      add\n        /* \"#utility.yul\":5957:5988   */\n      calldataload\n        /* \"#utility.yul\":6015:6033   */\n      0xffffffffffffffff\n        /* \"#utility.yul\":6007:6013   */\n      dup2\n        /* \"#utility.yul\":6004:6034   */\n      gt\n        /* \"#utility.yul\":6001:6118   */\n      iszero\n      tag_195\n      jumpi\n        /* \"#utility.yul\":6037:6116   */\n      tag_196\n      tag_88\n      jump\t// in\n    tag_196:\n        /* \"#utility.yul\":6001:6118   */\n    tag_195:\n        /* \"#utility.yul\":6142:6205   */\n      tag_197\n        /* \"#utility.yul\":6197:6204   */\n      dup9\n        /* \"#utility.yul\":6188:6194   */\n      dup3\n        /* \"#utility.yul\":6177:6186   */\n      dup10\n        /* \"#utility.yul\":6173:6195   */\n      add\n        /* \"#utility.yul\":6142:6205   */\n      tag_109\n      jump\t// in\n    tag_197:\n        /* \"#utility.yul\":6132:6205   */\n      swap6\n      pop\n        /* \"#utility.yul\":5928:6215   */\n      pop\n        /* \"#utility.yul\":6282:6284   */\n      0x20\n        /* \"#utility.yul\":6271:6280   */\n      dup7\n        /* \"#utility.yul\":6267:6285   */\n      add\n        /* \"#utility.yul\":6254:6286   */\n      calldataload\n        /* \"#utility.yul\":6313:6331   */\n      0xffffffffffffffff\n        /* \"#utility.yul\":6305:6311   */\n      dup2\n        /* \"#utility.yul\":6302:6332   */\n      gt\n        /* \"#utility.yul\":6299:6416   */\n      iszero\n      tag_198\n      jumpi\n        /* \"#utility.yul\":6335:6414   */\n      tag_199\n      tag_88\n      jump\t// in\n    tag_199:\n        /* \"#utility.yul\":6299:6416   */\n    tag_198:\n        /* \"#utility.yul\":6440:6503   */\n      tag_200\n        /* \"#utility.yul\":6495:6502   */\n      dup9\n        /* \"#utility.yul\":6486:6492   */\n      dup3\n        /* \"#utility.yul\":6475:6484   */\n      dup10\n        /* \"#utility.yul\":6471:6493   */\n      add\n        /* \"#utility.yul\":6440:6503   */\n      tag_109\n      jump\t// in\n    tag_200:\n        /* \"#utility.yul\":6430:6503   */\n      swap5\n      pop\n        /* \"#utility.yul\":6225:6513   */\n      pop\n        /* \"#utility.yul\":6580:6582   */\n      0x40\n        /* \"#utility.yul\":6569:6578   */\n      dup7\n        /* \"#utility.yul\":6565:6583   */\n      add\n        /* \"#utility.yul\":6552:6584   */\n      calldataload\n        /* \"#utility.yul\":6611:6629   */\n      0xffffffffffffffff\n        /* \"#utility.yul\":6603:6609   */\n      dup2\n        /* \"#utility.yul\":6600:6630   */\n      gt\n        /* \"#utility.yul\":6597:6714   */\n      iszero\n      tag_201\n      jumpi\n        /* \"#utility.yul\":6633:6712   */\n      tag_202\n      tag_88\n      jump\t// in\n    tag_202:\n        /* \"#utility.yul\":6597:6714   */\n    tag_201:\n        /* \"#utility.yul\":6738:6801   */\n      tag_203\n        /* \"#utility.yul\":6793:6800   */\n      dup9\n        /* \"#utility.yul\":6784:6790   */\n      dup3\n        /* \"#utility.yul\":6773:6782   */\n      dup10\n        /* \"#utility.yul\":6769:6791   */\n      add\n        /* \"#utility.yul\":6738:6801   */\n      tag_109\n      jump\t// in\n    tag_203:\n        /* \"#utility.yul\":6728:6801   */\n      swap4\n      pop\n        /* \"#utility.yul\":6523:6811   */\n      pop\n        /* \"#utility.yul\":6878:6880   */\n      0x60\n        /* \"#utility.yul\":6867:6876   */\n      dup7\n        /* \"#utility.yul\":6863:6881   */\n      add\n        /* \"#utility.yul\":6850:6882   */\n      calldataload\n        /* \"#utility.yul\":6909:6927   */\n      0xffffffffffffffff\n        /* \"#utility.yul\":6901:6907   */\n      dup2\n        /* \"#utility.yul\":6898:6928   */\n      gt\n        /* \"#utility.yul\":6895:7012   */\n      iszero\n      tag_204\n      jumpi\n        /* \"#utility.yul\":6931:7010   */\n      tag_205\n      tag_88\n      jump\t// in\n    tag_205:\n        /* \"#utility.yul\":6895:7012   */\n    tag_204:\n        /* \"#utility.yul\":7036:7099   */\n      tag_206\n        /* \"#utility.yul\":7091:7098   */\n      dup9\n        /* \"#utility.yul\":7082:7088   */\n      dup3\n        /* \"#utility.yul\":7071:7080   */\n      dup10\n        /* \"#utility.yul\":7067:7089   */\n      add\n        /* \"#utility.yul\":7036:7099   */\n      tag_109\n      jump\t// in\n    tag_206:\n        /* \"#utility.yul\":7026:7099   */\n      swap3\n      pop\n        /* \"#utility.yul\":6821:7109   */\n      pop\n        /* \"#utility.yul\":7176:7179   */\n      0x80\n        /* \"#utility.yul\":7165:7174   */\n      dup7\n        /* \"#utility.yul\":7161:7180   */\n      add\n        /* \"#utility.yul\":7148:7181   */\n      calldataload\n        /* \"#utility.yul\":7208:7226   */\n      0xffffffffffffffff\n        /* \"#utility.yul\":7200:7206   */\n      dup2\n        /* \"#utility.yul\":7197:7227   */\n      gt\n        /* \"#utility.yul\":7194:7311   */\n      iszero\n      tag_207\n      jumpi\n        /* \"#utility.yul\":7230:7309   */\n      tag_208\n      tag_88\n      jump\t// in\n    tag_208:\n        /* \"#utility.yul\":7194:7311   */\n    tag_207:\n        /* \"#utility.yul\":7335:7398   */\n      tag_209\n        /* \"#utility.yul\":7390:7397   */\n      dup9\n        /* \"#utility.yul\":7381:7387   */\n      dup3\n        /* \"#utility.yul\":7370:7379   */\n      dup10\n        /* \"#utility.yul\":7366:7388   */\n      add\n        /* \"#utility.yul\":7335:7398   */\n      tag_109\n      jump\t// in\n    tag_209:\n        /* \"#utility.yul\":7325:7398   */\n      swap2\n      pop\n        /* \"#utility.yul\":7119:7408   */\n      pop\n        /* \"#utility.yul\":5604:7415   */\n      swap3\n      swap6\n      pop\n      swap3\n      swap6\n      swap1\n      swap4\n      pop\n      jump\t// out\n        /* \"#utility.yul\":7421:8762   */\n    tag_22:\n        /* \"#utility.yul\":7782:7786   */\n      0x00\n        /* \"#utility.yul\":7820:7823   */\n      0xe0\n        /* \"#utility.yul\":7809:7818   */\n      dup3\n        /* \"#utility.yul\":7805:7824   */\n      add\n        /* \"#utility.yul\":7797:7824   */\n      swap1\n      pop\n        /* \"#utility.yul\":7834:7905   */\n      tag_211\n        /* \"#utility.yul\":7902:7903   */\n      0x00\n        /* \"#utility.yul\":7891:7900   */\n      dup4\n        /* \"#utility.yul\":7887:7904   */\n      add\n        /* \"#utility.yul\":7878:7884   */\n      dup11\n        /* \"#utility.yul\":7834:7905   */\n      tag_92\n      jump\t// in\n    tag_211:\n        /* \"#utility.yul\":7952:7961   */\n      dup2\n        /* \"#utility.yul\":7946:7950   */\n      dup2\n        /* \"#utility.yul\":7942:7962   */\n      sub\n        /* \"#utility.yul\":7937:7939   */\n      0x20\n        /* \"#utility.yul\":7926:7935   */\n      dup4\n        /* \"#utility.yul\":7922:7940   */\n      add\n        /* \"#utility.yul\":7915:7963   */\n      mstore\n        /* \"#utility.yul\":7980:8058   */\n      tag_212\n        /* \"#utility.yul\":8053:8057   */\n      dup2\n        /* \"#utility.yul\":8044:8050   */\n      dup10\n        /* \"#utility.yul\":7980:8058   */\n      tag_97\n      jump\t// in\n    tag_212:\n        /* \"#utility.yul\":7972:8058   */\n      swap1\n      pop\n        /* \"#utility.yul\":8105:8114   */\n      dup2\n        /* \"#utility.yul\":8099:8103   */\n      dup2\n        /* \"#utility.yul\":8095:8115   */\n      sub\n        /* \"#utility.yul\":8090:8092   */\n      0x40\n        /* \"#utility.yul\":8079:8088   */\n      dup4\n        /* \"#utility.yul\":8075:8093   */\n      add\n        /* \"#utility.yul\":8068:8116   */\n      mstore\n        /* \"#utility.yul\":8133:8211   */\n      tag_213\n        /* \"#utility.yul\":8206:8210   */\n      dup2\n        /* \"#utility.yul\":8197:8203   */\n      dup9\n        /* \"#utility.yul\":8133:8211   */\n      tag_97\n      jump\t// in\n    tag_213:\n        /* \"#utility.yul\":8125:8211   */\n      swap1\n      pop\n        /* \"#utility.yul\":8258:8267   */\n      dup2\n        /* \"#utility.yul\":8252:8256   */\n      dup2\n        /* \"#utility.yul\":8248:8268   */\n      sub\n        /* \"#utility.yul\":8243:8245   */\n      0x60\n        /* \"#utility.yul\":8232:8241   */\n      dup4\n        /* \"#utility.yul\":8228:8246   */\n      add\n        /* \"#utility.yul\":8221:8269   */\n      mstore\n        /* \"#utility.yul\":8286:8364   */\n      tag_214\n        /* \"#utility.yul\":8359:8363   */\n      dup2\n        /* \"#utility.yul\":8350:8356   */\n      dup8\n        /* \"#utility.yul\":8286:8364   */\n      tag_97\n      jump\t// in\n    tag_214:\n        /* \"#utility.yul\":8278:8364   */\n      swap1\n      pop\n        /* \"#utility.yul\":8412:8421   */\n      dup2\n        /* \"#utility.yul\":8406:8410   */\n      dup2\n        /* \"#utility.yul\":8402:8422   */\n      sub\n        /* \"#utility.yul\":8396:8399   */\n      0x80\n        /* \"#utility.yul\":8385:8394   */\n      dup4\n        /* \"#utility.yul\":8381:8400   */\n      add\n        /* \"#utility.yul\":8374:8423   */\n      mstore\n        /* \"#utility.yul\":8440:8518   */\n      tag_215\n        /* \"#utility.yul\":8513:8517   */\n      dup2\n        /* \"#utility.yul\":8504:8510   */\n      dup7\n        /* \"#utility.yul\":8440:8518   */\n      tag_97\n      jump\t// in\n    tag_215:\n        /* \"#utility.yul\":8432:8518   */\n      swap1\n      pop\n        /* \"#utility.yul\":8566:8575   */\n      dup2\n        /* \"#utility.yul\":8560:8564   */\n      dup2\n        /* \"#utility.yul\":8556:8576   */\n      sub\n        /* \"#utility.yul\":8550:8553   */\n      0xa0\n        /* \"#utility.yul\":8539:8548   */\n      dup4\n        /* \"#utility.yul\":8535:8554   */\n      add\n        /* \"#utility.yul\":8528:8577   */\n      mstore\n        /* \"#utility.yul\":8594:8672   */\n      tag_216\n        /* \"#utility.yul\":8667:8671   */\n      dup2\n        /* \"#utility.yul\":8658:8664   */\n      dup6\n        /* \"#utility.yul\":8594:8672   */\n      tag_97\n      jump\t// in\n    tag_216:\n        /* \"#utility.yul\":8586:8672   */\n      swap1\n      pop\n        /* \"#utility.yul\":8682:8755   */\n      tag_217\n        /* \"#utility.yul\":8750:8753   */\n      0xc0\n        /* \"#utility.yul\":8739:8748   */\n      dup4\n        /* \"#utility.yul\":8735:8754   */\n      add\n        /* \"#utility.yul\":8726:8732   */\n      dup5\n        /* \"#utility.yul\":8682:8755   */\n      tag_92\n      jump\t// in\n    tag_217:\n        /* \"#utility.yul\":7421:8762   */\n      swap9\n      swap8\n      pop\n      pop\n      pop\n      pop\n      pop\n      pop\n      pop\n      pop\n      jump\t// out\n        /* \"#utility.yul\":8768:9242   */\n    tag_25:\n        /* \"#utility.yul\":8836:8842   */\n      0x00\n        /* \"#utility.yul\":8844:8850   */\n      dup1\n        /* \"#utility.yul\":8893:8895   */\n      0x40\n        /* \"#utility.yul\":8881:8890   */\n      dup4\n        /* \"#utility.yul\":8872:8879   */\n      dup6\n        /* \"#utility.yul\":8868:8891   */\n      sub\n        /* \"#utility.yul\":8864:8896   */\n      slt\n        /* \"#utility.yul\":8861:8980   */\n      iszero\n      tag_219\n      jumpi\n        /* \"#utility.yul\":8899:8978   */\n      tag_220\n      tag_87\n      jump\t// in\n    tag_220:\n        /* \"#utility.yul\":8861:8980   */\n    tag_219:\n        /* \"#utility.yul\":9019:9020   */\n      0x00\n        /* \"#utility.yul\":9044:9097   */\n      tag_221\n        /* \"#utility.yul\":9089:9096   */\n      dup6\n        /* \"#utility.yul\":9080:9086   */\n      dup3\n        /* \"#utility.yul\":9069:9078   */\n      dup7\n        /* \"#utility.yul\":9065:9087   */\n      add\n        /* \"#utility.yul\":9044:9097   */\n      tag_91\n      jump\t// in\n    tag_221:\n        /* \"#utility.yul\":9034:9097   */\n      swap3\n      pop\n        /* \"#utility.yul\":8990:9107   */\n      pop\n        /* \"#utility.yul\":9146:9148   */\n      0x20\n        /* \"#utility.yul\":9172:9225   */\n      tag_222\n        /* \"#utility.yul\":9217:9224   */\n      dup6\n        /* \"#utility.yul\":9208:9214   */\n      dup3\n        /* \"#utility.yul\":9197:9206   */\n      dup7\n        /* \"#utility.yul\":9193:9215   */\n      add\n        /* \"#utility.yul\":9172:9225   */\n      tag_91\n      jump\t// in\n    tag_222:\n        /* \"#utility.yul\":9162:9225   */\n      swap2\n      pop\n        /* \"#utility.yul\":9117:9235   */\n      pop\n        /* \"#utility.yul\":8768:9242   */\n      swap3\n      pop\n      swap3\n      swap1\n      pop\n      jump\t// out\n        /* \"#utility.yul\":9248:10227   */\n    tag_29:\n        /* \"#utility.yul\":9345:9351   */\n      0x00\n        /* \"#utility.yul\":9353:9359   */\n      dup1\n        /* \"#utility.yul\":9361:9367   */\n      0x00\n        /* \"#utility.yul\":9410:9412   */\n      0x60\n        /* \"#utility.yul\":9398:9407   */\n      dup5\n        /* \"#utility.yul\":9389:9396   */\n      dup7\n        /* \"#utility.yul\":9385:9408   */\n      sub\n        /* \"#utility.yul\":9381:9413   */\n      slt\n        /* \"#utility.yul\":9378:9497   */\n      iszero\n      tag_224\n      jumpi\n        /* \"#utility.yul\":9416:9495   */\n      tag_225\n      tag_87\n      jump\t// in\n    tag_225:\n        /* \"#utility.yul\":9378:9497   */\n    tag_224:\n        /* \"#utility.yul\":9564:9565   */\n      0x00\n        /* \"#utility.yul\":9553:9562   */\n      dup5\n        /* \"#utility.yul\":9549:9566   */\n      add\n        /* \"#utility.yul\":9536:9567   */\n      calldataload\n        /* \"#utility.yul\":9594:9612   */\n      0xffffffffffffffff\n        /* \"#utility.yul\":9586:9592   */\n      dup2\n        /* \"#utility.yul\":9583:9613   */\n      gt\n        /* \"#utility.yul\":9580:9697   */\n      iszero\n      tag_226\n      jumpi\n        /* \"#utility.yul\":9616:9695   */\n      tag_227\n      tag_88\n      jump\t// in\n    tag_227:\n        /* \"#utility.yul\":9580:9697   */\n    tag_226:\n        /* \"#utility.yul\":9721:9784   */\n      tag_228\n        /* \"#utility.yul\":9776:9783   */\n      dup7\n        /* \"#utility.yul\":9767:9773   */\n      dup3\n        /* \"#utility.yul\":9756:9765   */\n      dup8\n        /* \"#utility.yul\":9752:9774   */\n      add\n        /* \"#utility.yul\":9721:9784   */\n      tag_109\n      jump\t// in\n    tag_228:\n        /* \"#utility.yul\":9711:9784   */\n      swap4\n      pop\n        /* \"#utility.yul\":9507:9794   */\n      pop\n        /* \"#utility.yul\":9861:9863   */\n      0x20\n        /* \"#utility.yul\":9850:9859   */\n      dup5\n        /* \"#utility.yul\":9846:9864   */\n      add\n        /* \"#utility.yul\":9833:9865   */\n      calldataload\n        /* \"#utility.yul\":9892:9910   */\n      0xffffffffffffffff\n        /* \"#utility.yul\":9884:9890   */\n      dup2\n        /* \"#utility.yul\":9881:9911   */\n      gt\n        /* \"#utility.yul\":9878:9995   */\n      iszero\n      tag_229\n      jumpi\n        /* \"#utility.yul\":9914:9993   */\n      tag_230\n      tag_88\n      jump\t// in\n    tag_230:\n        /* \"#utility.yul\":9878:9995   */\n    tag_229:\n        /* \"#utility.yul\":10019:10082   */\n      tag_231\n        /* \"#utility.yul\":10074:10081   */\n      dup7\n        /* \"#utility.yul\":10065:10071   */\n      dup3\n        /* \"#utility.yul\":10054:10063   */\n      dup8\n        /* \"#utility.yul\":10050:10072   */\n      add\n        /* \"#utility.yul\":10019:10082   */\n      tag_109\n      jump\t// in\n    tag_231:\n        /* \"#utility.yul\":10009:10082   */\n      swap3\n      pop\n        /* \"#utility.yul\":9804:10092   */\n      pop\n        /* \"#utility.yul\":10131:10133   */\n      0x40\n        /* \"#utility.yul\":10157:10210   */\n      tag_232\n        /* \"#utility.yul\":10202:10209   */\n      dup7\n        /* \"#utility.yul\":10193:10199   */\n      dup3\n        /* \"#utility.yul\":10182:10191   */\n      dup8\n        /* \"#utility.yul\":10178:10200   */\n      add\n        /* \"#utility.yul\":10157:10210   */\n      tag_91\n      jump\t// in\n    tag_232:\n        /* \"#utility.yul\":10147:10210   */\n      swap2\n      pop\n        /* \"#utility.yul\":10102:10220   */\n      pop\n        /* \"#utility.yul\":9248:10227   */\n      swap3\n      pop\n      swap3\n      pop\n      swap3\n      jump\t// out\n        /* \"#utility.yul\":10233:10413   */\n    tag_110:\n        /* \"#utility.yul\":10281:10358   */\n      0x4e487b7100000000000000000000000000000000000000000000000000000000\n        /* \"#utility.yul\":10278:10279   */\n      0x00\n        /* \"#utility.yul\":10271:10359   */\n      mstore\n        /* \"#utility.yul\":10378:10382   */\n      0x22\n        /* \"#utility.yul\":10375:10376   */\n      0x04\n        /* \"#utility.yul\":10368:10383   */\n      mstore\n        /* \"#utility.yul\":10402:10406   */\n      0x24\n        /* \"#utility.yul\":10399:10400   */\n      0x00\n        /* \"#utility.yul\":10392:10407   */\n      revert\n        /* \"#utility.yul\":10419:10739   */\n    tag_33:\n        /* \"#utility.yul\":10463:10469   */\n      0x00\n        /* \"#utility.yul\":10500:10501   */\n      0x02\n        /* \"#utility.yul\":10494:10498   */\n      dup3\n        /* \"#utility.yul\":10490:10502   */\n      div\n        /* \"#utility.yul\":10480:10502   */\n      swap1\n      pop\n        /* \"#utility.yul\":10547:10548   */\n      0x01\n        /* \"#utility.yul\":10541:10545   */\n      dup3\n        /* \"#utility.yul\":10537:10549   */\n      and\n        /* \"#utility.yul\":10568:10586   */\n      dup1\n        /* \"#utility.yul\":10558:10639   */\n      tag_235\n      jumpi\n        /* \"#utility.yul\":10624:10628   */\n      0x7f\n        /* \"#utility.yul\":10616:10622   */\n      dup3\n        /* \"#utility.yul\":10612:10629   */\n      and\n        /* \"#utility.yul\":10602:10629   */\n      swap2\n      pop\n        /* \"#utility.yul\":10558:10639   */\n    tag_235:\n        /* \"#utility.yul\":10686:10688   */\n      0x20\n        /* \"#utility.yul\":10678:10684   */\n      dup3\n        /* \"#utility.yul\":10675:10689   */\n      lt\n        /* \"#utility.yul\":10655:10673   */\n      dup2\n        /* \"#utility.yul\":10652:10690   */\n      sub\n        /* \"#utility.yul\":10649:10733   */\n      tag_236\n      jumpi\n        /* \"#utility.yul\":10705:10723   */\n      tag_237\n      tag_110\n      jump\t// in\n    tag_237:\n        /* \"#utility.yul\":10649:10733   */\n    tag_236:\n        /* \"#utility.yul\":10470:10739   */\n      pop\n        /* \"#utility.yul\":10419:10739   */\n      swap2\n      swap1\n      pop\n      jump\t// out\n        /* \"#utility.yul\":10745:10925   */\n    tag_111:\n        /* \"#utility.yul\":10793:10870   */\n      0x4e487b7100000000000000000000000000000000000000000000000000000000\n        /* \"#utility.yul\":10790:10791   */\n      0x00\n        /* \"#utility.yul\":10783:10871   */\n      mstore\n        /* \"#utility.yul\":10890:10894   */\n      0x11\n        /* \"#utility.yul\":10887:10888   */\n      0x04\n        /* \"#utility.yul\":10880:10895   */\n      mstore\n        /* \"#utility.yul\":10914:10918   */\n      0x24\n        /* \"#utility.yul\":10911:10912   */\n      0x00\n        /* \"#utility.yul\":10904:10919   */\n      revert\n        /* \"#utility.yul\":10931:11164   */\n    tag_45:\n        /* \"#utility.yul\":10970:10973   */\n      0x00\n        /* \"#utility.yul\":10993:11017   */\n      tag_240\n        /* \"#utility.yul\":11011:11016   */\n      dup3\n        /* \"#utility.yul\":10993:11017   */\n      tag_89\n      jump\t// in\n    tag_240:\n        /* \"#utility.yul\":10984:11017   */\n      swap2\n      pop\n        /* \"#utility.yul\":11039:11105   */\n      0xffffffffffffffffffffffffffffffffffffffffffffffffffffffffffffffff\n        /* \"#utility.yul\":11032:11037   */\n      dup3\n        /* \"#utility.yul\":11029:11106   */\n      sub\n        /* \"#utility.yul\":11026:11129   */\n      tag_241\n      jumpi\n        /* \"#utility.yul\":11109:11127   */\n      tag_242\n      tag_111\n      jump\t// in\n    tag_242:\n        /* \"#utility.yul\":11026:11129   */\n    tag_241:\n        /* \"#utility.yul\":11156:11157   */\n      0x01\n        /* \"#utility.yul\":11149:11154   */\n      dup3\n        /* \"#utility.yul\":11145:11158   */\n      add\n        /* \"#utility.yul\":11138:11158   */\n      swap1\n      pop\n        /* \"#utility.yul\":10931:11164   */\n      swap2\n      swap1\n      pop\n      jump\t// out\n        /* \"#utility.yul\":11170:11311   */\n    tag_112:\n        /* \"#utility.yul\":11219:11223   */\n      0x00\n        /* \"#utility.yul\":11242:11245   */\n      dup2\n        /* \"#utility.yul\":11234:11245   */\n      swap1\n      pop\n        /* \"#utility.yul\":11265:11268   */\n      dup2\n        /* \"#utility.yul\":11262:11263   */\n      0x00\n        /* \"#utility.yul\":11255:11269   */\n      mstore\n        /* \"#utility.yul\":11299:11303   */\n      0x20\n        /* \"#utility.yul\":11296:11297   */\n      0x00\n        /* \"#utility.yul\":11286:11304   */\n      keccak256\n        /* \"#utility.yul\":11278:11304   */\n      swap1\n      pop\n        /* \"#utility.yul\":11170:11311   */\n      swap2\n      swap1\n      pop\n      jump\t// out\n        /* \"#utility.yul\":11317:11410   */\n    tag_113:\n        /* \"#utility.yul\":11354:11360   */\n      0x00\n        /* \"#utility.yul\":11401:11403   */\n      0x20\n        /* \"#utility.yul\":11396:11398   */\n      0x1f\n        /* \"#utility.yul\":11389:11394   */\n      dup4\n        /* \"#utility.yul\":11385:11399   */\n      add\n        /* \"#utility.yul\":11381:11404   */\n      div\n        /* \"#utility.yul\":11371:11404   */\n      swap1\n      pop\n        /* \"#utility.yul\":11317:11410   */\n      swap2\n      swap1\n      pop\n      jump\t// out\n        /* \"#utility.yul\":11416:11523   */\n    tag_114:\n        /* \"#utility.yul\":11460:11468   */\n      0x00\n        /* \"#utility.yul\":11510:11515   */\n      dup3\n        /* \"#utility.yul\":11504:11508   */\n      dup3\n        /* \"#utility.yul\":11500:11516   */\n      shl\n        /* \"#utility.yul\":11479:11516   */\n      swap1\n      pop\n        /* \"#utility.yul\":11416:11523   */\n      swap3\n      swap2\n      pop\n      pop\n      jump\t// out\n        /* \"#utility.yul\":11529:11922   */\n    tag_115:\n        /* \"#utility.yul\":11598:11604   */\n      0x00\n        /* \"#utility.yul\":11648:11649   */\n      0x08\n        /* \"#utility.yul\":11636:11646   */\n      dup4\n        /* \"#utility.yul\":11632:11650   */\n      mul\n        /* \"#utility.yul\":11671:11768   */\n      tag_247\n        /* \"#utility.yul\":11701:11767   */\n      0xffffffffffffffffffffffffffffffffffffffffffffffffffffffffffffffff\n        /* \"#utility.yul\":11690:11699   */\n      dup3\n        /* \"#utility.yul\":11671:11768   */\n      tag_114\n      jump\t// in\n    tag_247:\n        /* \"#utility.yul\":11789:11828   */\n      tag_248\n        /* \"#utility.yul\":11819:11827   */\n      dup7\n        /* \"#utility.yul\":11808:11817   */\n      dup4\n        /* \"#utility.yul\":11789:11828   */\n      tag_114\n      jump\t// in\n    tag_248:\n        /* \"#utility.yul\":11777:11828   */\n      swap6\n      pop\n        /* \"#utility.yul\":11861:11865   */\n      dup1\n        /* \"#utility.yul\":11857:11866   */\n      not\n        /* \"#utility.yul\":11850:11855   */\n      dup5\n        /* \"#utility.yul\":11846:11867   */\n      and\n        /* \"#utility.yul\":11837:11867   */\n      swap4\n      pop\n        /* \"#utility.yul\":11910:11914   */\n      dup1\n        /* \"#utility.yul\":11900:11908   */\n      dup7\n        /* \"#utility.yul\":11896:11915   */\n      and\n        /* \"#utility.yul\":11889:11894   */\n      dup5\n        /* \"#utility.yul\":11886:11916   */\n      or\n        /* \"#utility.yul\":11876:11916   */\n      swap3\n      pop\n        /* \"#utility.yul\":11605:11922   */\n      pop\n      pop\n        /* \"#utility.yul\":11529:11922   */\n      swap4\n      swap3\n      pop\n      pop\n      pop\n      jump\t// out\n        /* \"#utility.yul\":11928:11988   */\n    tag_116:\n        /* \"#utility.yul\":11956:11959   */\n      0x00\n        /* \"#utility.yul\":11977:11982   */\n      dup2\n        /* \"#utility.yul\":11970:11982   */\n      swap1\n      pop\n        /* \"#utility.yul\":11928:11988   */\n      swap2\n      swap1\n      pop\n      jump\t// out\n        /* \"#utility.yul\":11994:12136   */\n    tag_117:\n        /* \"#utility.yul\":12044:12053   */\n      0x00\n        /* \"#utility.yul\":12077:12130   */\n      tag_251\n        /* \"#utility.yul\":12095:12129   */\n      tag_252\n        /* \"#utility.yul\":12104:12128   */\n      tag_253\n        /* \"#utility.yul\":12122:12127   */\n      dup5\n        /* \"#utility.yul\":12104:12128   */\n      tag_89\n      jump\t// in\n    tag_253:\n        /* \"#utility.yul\":12095:12129   */\n      tag_116\n      jump\t// in\n    tag_252:\n        /* \"#utility.yul\":12077:12130   */\n      tag_89\n      jump\t// in\n    tag_251:\n        /* \"#utility.yul\":12064:12130   */\n      swap1\n      pop\n        /* \"#utility.yul\":11994:12136   */\n      swap2\n      swap1\n      pop\n      jump\t// out\n        /* \"#utility.yul\":12142:12217   */\n    tag_118:\n        /* \"#utility.yul\":12185:12188   */\n      0x00\n        /* \"#utility.yul\":12206:12211   */\n      dup2\n        /* \"#utility.yul\":12199:12211   */\n      swap1\n      pop\n        /* \"#utility.yul\":12142:12217   */\n      swap2\n      swap1\n      pop\n      jump\t// out\n        /* \"#utility.yul\":12223:12492   */\n    tag_119:\n        /* \"#utility.yul\":12333:12372   */\n      tag_256\n        /* \"#utility.yul\":12364:12371   */\n      dup4\n        /* \"#utility.yul\":12333:12372   */\n      tag_117\n      jump\t// in\n    tag_256:\n        /* \"#utility.yul\":12394:12485   */\n      tag_257\n        /* \"#utility.yul\":12443:12484   */\n      tag_258\n        /* \"#utility.yul\":12467:12483   */\n      dup3\n        /* \"#utility.yul\":12443:12484   */\n      tag_118\n      jump\t// in\n    tag_258:\n        /* \"#utility.yul\":12435:12441   */\n      dup5\n        /* \"#utility.yul\":12428:12432   */\n      dup5\n        /* \"#utility.yul\":12422:12433   */\n      sload\n        /* \"#utility.yul\":12394:12485   */\n      tag_115\n      jump\t// in\n    tag_257:\n        /* \"#utility.yul\":12388:12392   */\n      dup3\n        /* \"#utility.yul\":12381:12486   */\n      sstore\n        /* \"#utility.yul\":12299:12492   */\n      pop\n        /* \"#utility.yul\":12223:12492   */\n      pop\n      pop\n      pop\n      jump\t// out\n        /* \"#utility.yul\":12498:12571   */\n    tag_120:\n        /* \"#utility.yul\":12543:12546   */\n      0x00\n        /* \"#utility.yul\":12498:12571   */\n      swap1\n      jump\t// out\n        /* \"#utility.yul\":12577:12766   */\n    tag_121:\n        /* \"#utility.yul\":12654:12686   */\n      tag_261\n      tag_120\n      jump\t// in\n    tag_261:\n        /* \"#utility.yul\":12695:12760   */\n      tag_262\n        /* \"#utility.yul\":12753:12759   */\n      dup2\n        /* \"#utility.yul\":12745:12751   */\n      dup5\n        /* \"#utility.yul\":12739:12743   */\n      dup5\n        /* \"#utility.yul\":12695:12760   */\n      tag_119\n      jump\t// in\n    tag_262:\n        /* \"#utility.yul\":12630:12766   */\n      pop\n        /* \"#utility.yul\":12577:12766   */\n      pop\n      pop\n      jump\t// out\n        /* \"#utility.yul\":12772:12958   */\n    tag_122:\n        /* \"#utility.yul\":12832:12952   */\n    tag_264:\n        /* \"#utility.yul\":12849:12852   */\n      dup2\n        /* \"#utility.yul\":12842:12847   */\n      dup2\n        /* \"#utility.yul\":12839:12853   */\n      lt\n        /* \"#utility.yul\":12832:12952   */\n      iszero\n      tag_266\n      jumpi\n        /* \"#utility.yul\":12903:12942   */\n      tag_267\n        /* \"#utility.yul\":12940:12941   */\n      0x00\n        /* \"#utility.yul\":12933:12938   */\n      dup3\n        /* \"#utility.yul\":12903:12942   */\n      tag_121\n      jump\t// in\n    tag_267:\n        /* \"#utility.yul\":12876:12877   */\n      0x01\n        /* \"#utility.yul\":12869:12874   */\n      dup2\n        /* \"#utility.yul\":12865:12878   */\n      add\n        /* \"#utility.yul\":12856:12878   */\n      swap1\n      pop\n        /* \"#utility.yul\":12832:12952   */\n      jump(tag_264)\n    tag_266:\n        /* \"#utility.yul\":12772:12958   */\n      pop\n      pop\n      jump\t// out\n        /* \"#utility.yul\":12964:13507   */\n    tag_123:\n        /* \"#utility.yul\":13065:13067   */\n      0x1f\n        /* \"#utility.yul\":13060:13063   */\n      dup3\n        /* \"#utility.yul\":13057:13068   */\n      gt\n        /* \"#utility.yul\":13054:13500   */\n      iszero\n      tag_269\n      jumpi\n        /* \"#utility.yul\":13099:13137   */\n      tag_270\n        /* \"#utility.yul\":13131:13136   */\n      dup2\n        /* \"#utility.yul\":13099:13137   */\n      tag_112\n      jump\t// in\n    tag_270:\n        /* \"#utility.yul\":13183:13212   */\n      tag_271\n        /* \"#utility.yul\":13201:13211   */\n      dup5\n        /* \"#utility.yul\":13183:13212   */\n      tag_113\n      jump\t// in\n    tag_271:\n        /* \"#utility.yul\":13173:13181   */\n      dup2\n        /* \"#utility.yul\":13169:13213   */\n      add\n        /* \"#utility.yul\":13366:13368   */\n      0x20\n        /* \"#utility.yul\":13354:13364   */\n      dup6\n        /* \"#utility.yul\":13351:13369   */\n      lt\n        /* \"#utility.yul\":13348:13397   */\n      iszero\n      tag_272\n      jumpi\n        /* \"#utility.yul\":13387:13395   */\n      dup2\n        /* \"#utility.yul\":13372:13395   */\n      swap1\n      pop\n        /* \"#utility.yul\":13348:13397   */\n    tag_272:\n        /* \"#utility.yul\":13410:13490   */\n      tag_273\n        /* \"#utility.yul\":13466:13488   */\n      tag_274\n        /* \"#utility.yul\":13484:13487   */\n      dup6\n        /* \"#utility.yul\":13466:13488   */\n      tag_113\n      jump\t// in\n    tag_274:\n        /* \"#utility.yul\":13456:13464   */\n      dup4\n        /* \"#utility.yul\":13452:13489   */\n      add\n        /* \"#utility.yul\":13439:13450   */\n      dup3\n        /* \"#utility.yul\":13410:13490   */\n      tag_122\n      jump\t// in\n    tag_273:\n        /* \"#utility.yul\":13069:13500   */\n      pop\n      pop\n        /* \"#utility.yul\":13054:13500   */\n    tag_269:\n        /* \"#utility.yul\":12964:13507   */\n      pop\n      pop\n      pop\n      jump\t// out\n        /* \"#utility.yul\":13513:13630   */\n    tag_124:\n        /* \"#utility.yul\":13567:13575   */\n      0x00\n        /* \"#utility.yul\":13617:13622   */\n      dup3\n        /* \"#utility.yul\":13611:13615   */\n      dup3\n        /* \"#utility.yul\":13607:13623   */\n      shr\n        /* \"#utility.yul\":13586:13623   */\n      swap1\n      pop\n        /* \"#utility.yul\":13513:13630   */\n      swap3\n      swap2\n      pop\n      pop\n      jump\t// out\n        /* \"#utility.yul\":13636:13805   */\n    tag_125:\n        /* \"#utility.yul\":13680:13686   */\n      0x00\n        /* \"#utility.yul\":13713:13764   */\n      tag_277\n        /* \"#utility.yul\":13761:13762   */\n      0x00\n        /* \"#utility.yul\":13757:13763   */\n      not\n        /* \"#utility.yul\":13749:13754   */\n      dup5\n        /* \"#utility.yul\":13746:13747   */\n      0x08\n        /* \"#utility.yul\":13742:13755   */\n      mul\n        /* \"#utility.yul\":13713:13764   */\n      tag_124\n      jump\t// in\n    tag_277:\n        /* \"#utility.yul\":13709:13765   */\n      not\n        /* \"#utility.yul\":13794:13798   */\n      dup1\n        /* \"#utility.yul\":13788:13792   */\n      dup4\n        /* \"#utility.yul\":13784:13799   */\n      and\n        /* \"#utility.yul\":13774:13799   */\n      swap2\n      pop\n        /* \"#utility.yul\":13687:13805   */\n      pop\n        /* \"#utility.yul\":13636:13805   */\n      swap3\n      swap2\n      pop\n      pop\n      jump\t// out\n        /* \"#utility.yul\":13810:14105   */\n    tag_126:\n        /* \"#utility.yul\":13886:13890   */\n      0x00\n        /* \"#utility.yul\":14032:14061   */\n      tag_279\n        /* \"#utility.yul\":14057:14060   */\n      dup4\n        /* \"#utility.yul\":14051:14055   */\n      dup4\n        /* \"#utility.yul\":14032:14061   */\n      tag_125\n      jump\t// in\n    tag_279:\n        /* \"#utility.yul\":14024:14061   */\n      swap2\n      pop\n        /* \"#utility.yul\":14094:14097   */\n      dup3\n        /* \"#utility.yul\":14091:14092   */\n      0x02\n        /* \"#utility.yul\":14087:14098   */\n      mul\n        /* \"#utility.yul\":14081:14085   */\n      dup3\n        /* \"#utility.yul\":14078:14099   */\n      or\n        /* \"#utility.yul\":14070:14099   */\n      swap1\n      pop\n        /* \"#utility.yul\":13810:14105   */\n      swap3\n      swap2\n      pop\n      pop\n      jump\t// out\n        /* \"#utility.yul\":14110:15505   */\n    tag_47:\n        /* \"#utility.yul\":14227:14264   */\n      tag_281\n        /* \"#utility.yul\":14260:14263   */\n      dup3\n        /* \"#utility.yul\":14227:14264   */\n      tag_93\n      jump\t// in\n    tag_281:\n        /* \"#utility.yul\":14329:14347   */\n      0xffffffffffffffff\n        /* \"#utility.yul\":14321:14327   */\n      dup2\n        /* \"#utility.yul\":14318:14348   */\n      gt\n        /* \"#utility.yul\":14315:14371   */\n      iszero\n      tag_282\n      jumpi\n        /* \"#utility.yul\":14351:14369   */\n      tag_283\n      tag_103\n      jump\t// in\n    tag_283:\n        /* \"#utility.yul\":14315:14371   */\n    tag_282:\n        /* \"#utility.yul\":14395:14433   */\n      tag_284\n        /* \"#utility.yul\":14427:14431   */\n      dup3\n        /* \"#utility.yul\":14421:14432   */\n      sload\n        /* \"#utility.yul\":14395:14433   */\n      tag_33\n      jump\t// in\n    tag_284:\n        /* \"#utility.yul\":14480:14547   */\n      tag_285\n        /* \"#utility.yul\":14540:14546   */\n      dup3\n        /* \"#utility.yul\":14532:14538   */\n      dup3\n        /* \"#utility.yul\":14526:14530   */\n      dup6\n        /* \"#utility.yul\":14480:14547   */\n      tag_123\n      jump\t// in\n    tag_285:\n        /* \"#utility.yul\":14574:14575   */\n      0x00\n        /* \"#utility.yul\":14598:14602   */\n      0x20\n        /* \"#utility.yul\":14585:14602   */\n      swap1\n      pop\n        /* \"#utility.yul\":14630:14632   */\n      0x1f\n        /* \"#utility.yul\":14622:14628   */\n      dup4\n        /* \"#utility.yul\":14619:14633   */\n      gt\n        /* \"#utility.yul\":14647:14648   */\n      0x01\n        /* \"#utility.yul\":14642:15260   */\n      dup2\n      eq\n      tag_287\n      jumpi\n        /* \"#utility.yul\":15304:15305   */\n      0x00\n        /* \"#utility.yul\":15321:15327   */\n      dup5\n        /* \"#utility.yul\":15318:15395   */\n      iszero\n      tag_288\n      jumpi\n        /* \"#utility.yul\":15370:15379   */\n      dup3\n        /* \"#utility.yul\":15365:15368   */\n      dup8\n        /* \"#utility.yul\":15361:15380   */\n      add\n        /* \"#utility.yul\":15355:15381   */\n      mload\n        /* \"#utility.yul\":15346:15381   */\n      swap1\n      pop\n        /* \"#utility.yul\":15318:15395   */\n    tag_288:\n        /* \"#utility.yul\":15421:15488   */\n      tag_289\n        /* \"#utility.yul\":15481:15487   */\n      dup6\n        /* \"#utility.yul\":15474:15479   */\n      dup3\n        /* \"#utility.yul\":15421:15488   */\n      tag_126\n      jump\t// in\n    tag_289:\n        /* \"#utility.yul\":15415:15419   */\n      dup7\n        /* \"#utility.yul\":15408:15489   */\n      sstore\n        /* \"#utility.yul\":15277:15499   */\n      pop\n        /* \"#utility.yul\":14612:15499   */\n      jump(tag_286)\n        /* \"#utility.yul\":14642:15260   */\n    tag_287:\n        /* \"#utility.yul\":14694:14698   */\n      0x1f\n        /* \"#utility.yul\":14690:14699   */\n      not\n        /* \"#utility.yul\":14682:14688   */\n      dup5\n        /* \"#utility.yul\":14678:14700   */\n      and\n        /* \"#utility.yul\":14728:14765   */\n      tag_290\n        /* \"#utility.yul\":14760:14764   */\n      dup7\n        /* \"#utility.yul\":14728:14765   */\n      tag_112\n      jump\t// in\n    tag_290:\n        /* \"#utility.yul\":14787:14788   */\n      0x00\n        /* \"#utility.yul\":14801:15009   */\n    tag_291:\n        /* \"#utility.yul\":14815:14822   */\n      dup3\n        /* \"#utility.yul\":14812:14813   */\n      dup2\n        /* \"#utility.yul\":14809:14823   */\n      lt\n        /* \"#utility.yul\":14801:15009   */\n      iszero\n      tag_293\n      jumpi\n        /* \"#utility.yul\":14894:14903   */\n      dup5\n        /* \"#utility.yul\":14889:14892   */\n      dup10\n        /* \"#utility.yul\":14885:14904   */\n      add\n        /* \"#utility.yul\":14879:14905   */\n      mload\n        /* \"#utility.yul\":14871:14877   */\n      dup3\n        /* \"#utility.yul\":14864:14906   */\n      sstore\n        /* \"#utility.yul\":14945:14946   */\n      0x01\n        /* \"#utility.yul\":14937:14943   */\n      dup3\n        /* \"#utility.yul\":14933:14947   */\n      add\n        /* \"#utility.yul\":14923:14947   */\n      swap2\n      pop\n        /* \"#utility.yul\":14992:14994   */\n      0x20\n        /* \"#utility.yul\":14981:14990   */\n      dup6\n        /* \"#utility.yul\":14977:14995   */\n      add\n        /* \"#utility.yul\":14964:14995   */\n      swap5\n      pop\n        /* \"#utility.yul\":14838:14842   */\n      0x20\n        /* \"#utility.yul\":14835:14836   */\n      dup2\n        /* \"#utility.yul\":14831:14843   */\n      add\n        /* \"#utility.yul\":14826:14843   */\n      swap1\n      pop\n        /* \"#utility.yul\":14801:15009   */\n      jump(tag_291)\n    tag_293:\n        /* \"#utility.yul\":15037:15043   */\n      dup7\n        /* \"#utility.yul\":15028:15035   */\n      dup4\n        /* \"#utility.yul\":15025:15044   */\n      lt\n        /* \"#utility.yul\":15022:15201   */\n      iszero\n      tag_294\n      jumpi\n        /* \"#utility.yul\":15095:15104   */\n      dup5\n        /* \"#utility.yul\":15090:15093   */\n      dup10\n        /* \"#utility.yul\":15086:15105   */\n      add\n        /* \"#utility.yul\":15080:15106   */\n      mload\n        /* \"#utility.yul\":15138:15186   */\n      tag_295\n        /* \"#utility.yul\":15180:15184   */\n      0x1f\n        /* \"#utility.yul\":15172:15178   */\n      dup10\n        /* \"#utility.yul\":15168:15185   */\n      and\n        /* \"#utility.yul\":15157:15166   */\n      dup3\n        /* \"#utility.yul\":15138:15186   */\n      tag_125\n      jump\t// in\n    tag_295:\n        /* \"#utility.yul\":15130:15136   */\n      dup4\n        /* \"#utility.yul\":15123:15187   */\n      sstore\n        /* \"#utility.yul\":15045:15201   */\n      pop\n        /* \"#utility.yul\":15022:15201   */\n    tag_294:\n        /* \"#utility.yul\":15247:15248   */\n      0x01\n        /* \"#utility.yul\":15243:15244   */\n      0x02\n        /* \"#utility.yul\":15235:15241   */\n      dup9\n        /* \"#utility.yul\":15231:15245   */\n      mul\n        /* \"#utility.yul\":15227:15249   */\n      add\n        /* \"#utility.yul\":15221:15225   */\n      dup9\n        /* \"#utility.yul\":15214:15250   */\n      sstore\n        /* \"#utility.yul\":14649:15260   */\n      pop\n      pop\n      pop\n        /* \"#utility.yul\":14612:15499   */\n    tag_286:\n      pop\n        /* \"#utility.yul\":14202:15505   */\n      pop\n      pop\n      pop\n        /* \"#utility.yul\":14110:15505   */\n      pop\n      pop\n      jump\t// out\n        /* \"#utility.yul\":15511:15702   */\n    tag_80:\n        /* \"#utility.yul\":15551:15554   */\n      0x00\n        /* \"#utility.yul\":15570:15590   */\n      tag_297\n        /* \"#utility.yul\":15588:15589   */\n      dup3\n        /* \"#utility.yul\":15570:15590   */\n      tag_89\n      jump\t// in\n    tag_297:\n        /* \"#utility.yul\":15565:15590   */\n      swap2\n      pop\n        /* \"#utility.yul\":15604:15624   */\n      tag_298\n        /* \"#utility.yul\":15622:15623   */\n      dup4\n        /* \"#utility.yul\":15604:15624   */\n      tag_89\n      jump\t// in\n    tag_298:\n        /* \"#utility.yul\":15599:15624   */\n      swap3\n      pop\n        /* \"#utility.yul\":15647:15648   */\n      dup3\n        /* \"#utility.yul\":15644:15645   */\n      dup3\n        /* \"#utility.yul\":15640:15649   */\n      add\n        /* \"#utility.yul\":15633:15649   */\n      swap1\n      pop\n        /* \"#utility.yul\":15668:15671   */\n      dup1\n        /* \"#utility.yul\":15665:15666   */\n      dup3\n        /* \"#utility.yul\":15662:15672   */\n      gt\n        /* \"#utility.yul\":15659:15695   */\n      iszero\n      tag_299\n      jumpi\n        /* \"#utility.yul\":15675:15693   */\n      tag_300\n      tag_111\n      jump\t// in\n    tag_300:\n        /* \"#utility.yul\":15659:15695   */\n    tag_299:\n        /* \"#utility.yul\":15511:15702   */\n      swap3\n      swap2\n      pop\n      pop\n      jump\t// out\n\n    auxdata: 0xa264697066735822122017a43d7aa9f7ba887495a7b2fd9f9d15c40c57c2728479a67c65830ddd94b42964736f6c63430008160033\n}\n",
				"bytecode": {
					"linkReferences": {},
					"object": "608060405234801561000f575f80fd5b5061116e8061001d5f395ff3fe608060405234801561000f575f80fd5b5060043610610055575f3560e01c80634cac35c614610059578063558e0a7b1461008e5780638798a47b146100aa578063bfc7a66e146100e0578063fa6b104a146100fc575b5f80fd5b610073600480360381019061006e91906108d3565b610118565b604051610085969594939291906109d6565b60405180910390f35b6100a860048036038101906100a39190610b6f565b610303565b005b6100c460048036038101906100bf91906108d3565b6103eb565b6040516100d79796959493929190610c72565b60405180910390f35b6100fa60048036038101906100f59190610d02565b610732565b005b61011660048036038101906101119190610d40565b61078a565b005b5f6060805f805f8060015f8981526020019081526020015f206040518060c00160405290815f820154815260200160018201805461015590610df5565b80601f016020809104026020016040519081016040528092919081815260200182805461018190610df5565b80156101cc5780601f106101a3576101008083540402835291602001916101cc565b820191905f5260205f20905b8154815290600101906020018083116101af57829003601f168201915b505050505081526020016002820180546101e590610df5565b80601f016020809104026020016040519081016040528092919081815260200182805461021190610df5565b801561025c5780601f106102335761010080835404028352916020019161025c565b820191905f5260205f20905b81548152906001019060200180831161023f57829003601f168201915b5050505050815260200160038201548152602001600482015f9054906101000a900473ffffffffffffffffffffffffffffffffffffffff1673ffffffffffffffffffffffffffffffffffffffff1673ffffffffffffffffffffffffffffffffffffffff1681526020016005820154815250509050805f015181602001518260400151836060015184608001518560a001519650965096509650965096505091939550919395565b60025f81548092919061031590610e52565b91905055506040518060e0016040528060025481526020018681526020018581526020018481526020018381526020018281526020015f8152505f8060025481526020019081526020015f205f820151815f0155602082015181600101908161037e9190611036565b5060408201518160020190816103949190611036565b5060608201518160030190816103aa9190611036565b5060808201518160040190816103c09190611036565b5060a08201518160050190816103d69190611036565b5060c082015181600601559050505050505050565b5f60608060608060605f805f808a81526020019081526020015f206040518060e00160405290815f820154815260200160018201805461042a90610df5565b80601f016020809104026020016040519081016040528092919081815260200182805461045690610df5565b80156104a15780601f10610478576101008083540402835291602001916104a1565b820191905f5260205f20905b81548152906001019060200180831161048457829003601f168201915b505050505081526020016002820180546104ba90610df5565b80601f01602080910402602001604051908101604052809291908181526020018280546104e690610df5565b80156105315780601f1061050857610100808354040283529160200191610531565b820191905f5260205f20905b81548152906001019060200180831161051457829003601f168201915b5050505050815260200160038201805461054a90610df5565b80601f016020809104026020016040519081016040528092919081815260200182805461057690610df5565b80156105c15780601f10610598576101008083540402835291602001916105c1565b820191905f5260205f20905b8154815290600101906020018083116105a457829003601f168201915b505050505081526020016004820180546105da90610df5565b80601f016020809104026020016040519081016040528092919081815260200182805461060690610df5565b80156106515780601f1061062857610100808354040283529160200191610651565b820191905f5260205f20905b81548152906001019060200180831161063457829003601f168201915b5050505050815260200160058201805461066a90610df5565b80601f016020809104026020016040519081016040528092919081815260200182805461069690610df5565b80156106e15780601f106106b8576101008083540402835291602001916106e1565b820191905f5260205f20905b8154815290600101906020018083116106c457829003601f168201915b505050505081526020016006820154815250509050805f015181602001518260400151836060015184608001518560a001518660c00151975097509750975097509750975050919395979092949650565b60015f808481526020019081526020015f206006015f8282546107559190611105565b925050819055506001805f8381526020019081526020015f206005015f82825461077f9190611105565b925050819055505050565b60035f81548092919061079c90610e52565b91905055506040518060c0016040528060035481526020018481526020018381526020018281526020013373ffffffffffffffffffffffffffffffffffffffff1681526020015f81525060015f60035481526020019081526020015f205f820151815f015560208201518160010190816108169190611036565b50604082015181600201908161082c9190611036565b50606082015181600301556080820151816004015f6101000a81548173ffffffffffffffffffffffffffffffffffffffff021916908373ffffffffffffffffffffffffffffffffffffffff16021790555060a08201518160050155905050505050565b5f604051905090565b5f80fd5b5f80fd5b5f819050919050565b6108b2816108a0565b81146108bc575f80fd5b50565b5f813590506108cd816108a9565b92915050565b5f602082840312156108e8576108e7610898565b5b5f6108f5848285016108bf565b91505092915050565b610907816108a0565b82525050565b5f81519050919050565b5f82825260208201905092915050565b5f5b83811015610944578082015181840152602081019050610929565b5f8484015250505050565b5f601f19601f8301169050919050565b5f6109698261090d565b6109738185610917565b9350610983818560208601610927565b61098c8161094f565b840191505092915050565b5f73ffffffffffffffffffffffffffffffffffffffff82169050919050565b5f6109c082610997565b9050919050565b6109d0816109b6565b82525050565b5f60c0820190506109e95f8301896108fe565b81810360208301526109fb818861095f565b90508181036040830152610a0f818761095f565b9050610a1e60608301866108fe565b610a2b60808301856109c7565b610a3860a08301846108fe565b979650505050505050565b5f80fd5b5f80fd5b7f4e487b71000000000000000000000000000000000000000000000000000000005f52604160045260245ffd5b610a818261094f565b810181811067ffffffffffffffff82111715610aa057610a9f610a4b565b5b80604052505050565b5f610ab261088f565b9050610abe8282610a78565b919050565b5f67ffffffffffffffff821115610add57610adc610a4b565b5b610ae68261094f565b9050602081019050919050565b828183375f83830152505050565b5f610b13610b0e84610ac3565b610aa9565b905082815260208101848484011115610b2f57610b2e610a47565b5b610b3a848285610af3565b509392505050565b5f82601f830112610b5657610b55610a43565b5b8135610b66848260208601610b01565b91505092915050565b5f805f805f60a08688031215610b8857610b87610898565b5b5f86013567ffffffffffffffff811115610ba557610ba461089c565b5b610bb188828901610b42565b955050602086013567ffffffffffffffff811115610bd257610bd161089c565b5b610bde88828901610b42565b945050604086013567ffffffffffffffff811115610bff57610bfe61089c565b5b610c0b88828901610b42565b935050606086013567ffffffffffffffff811115610c2c57610c2b61089c565b5b610c3888828901610b42565b925050608086013567ffffffffffffffff811115610c5957610c5861089c565b5b610c6588828901610b42565b9150509295509295909350565b5f60e082019050610c855f83018a6108fe565b8181036020830152610c97818961095f565b90508181036040830152610cab818861095f565b90508181036060830152610cbf818761095f565b90508181036080830152610cd3818661095f565b905081810360a0830152610ce7818561095f565b9050610cf660c08301846108fe565b98975050505050505050565b5f8060408385031215610d1857610d17610898565b5b5f610d25858286016108bf565b9250506020610d36858286016108bf565b9150509250929050565b5f805f60608486031215610d5757610d56610898565b5b5f84013567ffffffffffffffff811115610d7457610d7361089c565b5b610d8086828701610b42565b935050602084013567ffffffffffffffff811115610da157610da061089c565b5b610dad86828701610b42565b9250506040610dbe868287016108bf565b9150509250925092565b7f4e487b71000000000000000000000000000000000000000000000000000000005f52602260045260245ffd5b5f6002820490506001821680610e0c57607f821691505b602082108103610e1f57610e1e610dc8565b5b50919050565b7f4e487b71000000000000000000000000000000000000000000000000000000005f52601160045260245ffd5b5f610e5c826108a0565b91507fffffffffffffffffffffffffffffffffffffffffffffffffffffffffffffffff8203610e8e57610e8d610e25565b5b600182019050919050565b5f819050815f5260205f209050919050565b5f6020601f8301049050919050565b5f82821b905092915050565b5f60088302610ef57fffffffffffffffffffffffffffffffffffffffffffffffffffffffffffffffff82610eba565b610eff8683610eba565b95508019841693508086168417925050509392505050565b5f819050919050565b5f610f3a610f35610f30846108a0565b610f17565b6108a0565b9050919050565b5f819050919050565b610f5383610f20565b610f67610f5f82610f41565b848454610ec6565b825550505050565b5f90565b610f7b610f6f565b610f86818484610f4a565b505050565b5b81811015610fa957610f9e5f82610f73565b600181019050610f8c565b5050565b601f821115610fee57610fbf81610e99565b610fc884610eab565b81016020851015610fd7578190505b610feb610fe385610eab565b830182610f8b565b50505b505050565b5f82821c905092915050565b5f61100e5f1984600802610ff3565b1980831691505092915050565b5f6110268383610fff565b9150826002028217905092915050565b61103f8261090d565b67ffffffffffffffff81111561105857611057610a4b565b5b6110628254610df5565b61106d828285610fad565b5f60209050601f83116001811461109e575f841561108c578287015190505b611096858261101b565b8655506110fd565b601f1984166110ac86610e99565b5f5b828110156110d3578489015182556001820191506020850194506020810190506110ae565b868310156110f057848901516110ec601f891682610fff565b8355505b6001600288020188555050505b505050505050565b5f61110f826108a0565b915061111a836108a0565b925082820190508082111561113257611131610e25565b5b9291505056fea264697066735822122017a43d7aa9f7ba887495a7b2fd9f9d15c40c57c2728479a67c65830ddd94b42964736f6c63430008160033",
					"opcodes": "PUSH1 0x80 PUSH1 0x40 MSTORE CALLVALUE DUP1 ISZERO PUSH2 0xF JUMPI PUSH0 DUP1 REVERT JUMPDEST POP PUSH2 0x116E DUP1 PUSH2 0x1D PUSH0 CODECOPY PUSH0 RETURN INVALID PUSH1 0x80 PUSH1 0x40 MSTORE CALLVALUE DUP1 ISZERO PUSH2 0xF JUMPI PUSH0 DUP1 REVERT JUMPDEST POP PUSH1 0x4 CALLDATASIZE LT PUSH2 0x55 JUMPI PUSH0 CALLDATALOAD PUSH1 0xE0 SHR DUP1 PUSH4 0x4CAC35C6 EQ PUSH2 0x59 JUMPI DUP1 PUSH4 0x558E0A7B EQ PUSH2 0x8E JUMPI DUP1 PUSH4 0x8798A47B EQ PUSH2 0xAA JUMPI DUP1 PUSH4 0xBFC7A66E EQ PUSH2 0xE0 JUMPI DUP1 PUSH4 0xFA6B104A EQ PUSH2 0xFC JUMPI JUMPDEST PUSH0 DUP1 REVERT JUMPDEST PUSH2 0x73 PUSH1 0x4 DUP1 CALLDATASIZE SUB DUP2 ADD SWAP1 PUSH2 0x6E SWAP2 SWAP1 PUSH2 0x8D3 JUMP JUMPDEST PUSH2 0x118 JUMP JUMPDEST PUSH1 0x40 MLOAD PUSH2 0x85 SWAP7 SWAP6 SWAP5 SWAP4 SWAP3 SWAP2 SWAP1 PUSH2 0x9D6 JUMP JUMPDEST PUSH1 0x40 MLOAD DUP1 SWAP2 SUB SWAP1 RETURN JUMPDEST PUSH2 0xA8 PUSH1 0x4 DUP1 CALLDATASIZE SUB DUP2 ADD SWAP1 PUSH2 0xA3 SWAP2 SWAP1 PUSH2 0xB6F JUMP JUMPDEST PUSH2 0x303 JUMP JUMPDEST STOP JUMPDEST PUSH2 0xC4 PUSH1 0x4 DUP1 CALLDATASIZE SUB DUP2 ADD SWAP1 PUSH2 0xBF SWAP2 SWAP1 PUSH2 0x8D3 JUMP JUMPDEST PUSH2 0x3EB JUMP JUMPDEST PUSH1 0x40 MLOAD PUSH2 0xD7 SWAP8 SWAP7 SWAP6 SWAP5 SWAP4 SWAP3 SWAP2 SWAP1 PUSH2 0xC72 JUMP JUMPDEST PUSH1 0x40 MLOAD DUP1 SWAP2 SUB SWAP1 RETURN JUMPDEST PUSH2 0xFA PUSH1 0x4 DUP1 CALLDATASIZE SUB DUP2 ADD SWAP1 PUSH2 0xF5 SWAP2 SWAP1 PUSH2 0xD02 JUMP JUMPDEST PUSH2 0x732 JUMP JUMPDEST STOP JUMPDEST PUSH2 0x116 PUSH1 0x4 DUP1 CALLDATASIZE SUB DUP2 ADD SWAP1 PUSH2 0x111 SWAP2 SWAP1 PUSH2 0xD40 JUMP JUMPDEST PUSH2 0x78A JUMP JUMPDEST STOP JUMPDEST PUSH0 PUSH1 0x60 DUP1 PUSH0 DUP1 PUSH0 DUP1 PUSH1 0x1 PUSH0 DUP10 DUP2 MSTORE PUSH1 0x20 ADD SWAP1 DUP2 MSTORE PUSH1 0x20 ADD PUSH0 KECCAK256 PUSH1 0x40 MLOAD DUP1 PUSH1 0xC0 ADD PUSH1 0x40 MSTORE SWAP1 DUP2 PUSH0 DUP3 ADD SLOAD DUP2 MSTORE PUSH1 0x20 ADD PUSH1 0x1 DUP3 ADD DUP1 SLOAD PUSH2 0x155 SWAP1 PUSH2 0xDF5 JUMP JUMPDEST DUP1 PUSH1 0x1F ADD PUSH1 0x20 DUP1 SWAP2 DIV MUL PUSH1 0x20 ADD PUSH1 0x40 MLOAD SWAP1 DUP2 ADD PUSH1 0x40 MSTORE DUP1 SWAP3 SWAP2 SWAP1 DUP2 DUP2 MSTORE PUSH1 0x20 ADD DUP3 DUP1 SLOAD PUSH2 0x181 SWAP1 PUSH2 0xDF5 JUMP JUMPDEST DUP1 ISZERO PUSH2 0x1CC JUMPI DUP1 PUSH1 0x1F LT PUSH2 0x1A3 JUMPI PUSH2 0x100 DUP1 DUP4 SLOAD DIV MUL DUP4 MSTORE SWAP2 PUSH1 0x20 ADD SWAP2 PUSH2 0x1CC JUMP JUMPDEST DUP3 ADD SWAP2 SWAP1 PUSH0 MSTORE PUSH1 0x20 PUSH0 KECCAK256 SWAP1 JUMPDEST DUP2 SLOAD DUP2 MSTORE SWAP1 PUSH1 0x1 ADD SWAP1 PUSH1 0x20 ADD DUP1 DUP4 GT PUSH2 0x1AF JUMPI DUP3 SWAP1 SUB PUSH1 0x1F AND DUP3 ADD SWAP2 JUMPDEST POP POP POP POP POP DUP2 MSTORE PUSH1 0x20 ADD PUSH1 0x2 DUP3 ADD DUP1 SLOAD PUSH2 0x1E5 SWAP1 PUSH2 0xDF5 JUMP JUMPDEST DUP1 PUSH1 0x1F ADD PUSH1 0x20 DUP1 SWAP2 DIV MUL PUSH1 0x20 ADD PUSH1 0x40 MLOAD SWAP1 DUP2 ADD PUSH1 0x40 MSTORE DUP1 SWAP3 SWAP2 SWAP1 DUP2 DUP2 MSTORE PUSH1 0x20 ADD DUP3 DUP1 SLOAD PUSH2 0x211 SWAP1 PUSH2 0xDF5 JUMP JUMPDEST DUP1 ISZERO PUSH2 0x25C JUMPI DUP1 PUSH1 0x1F LT PUSH2 0x233 JUMPI PUSH2 0x100 DUP1 DUP4 SLOAD DIV MUL DUP4 MSTORE SWAP2 PUSH1 0x20 ADD SWAP2 PUSH2 0x25C JUMP JUMPDEST DUP3 ADD SWAP2 SWAP1 PUSH0 MSTORE PUSH1 0x20 PUSH0 KECCAK256 SWAP1 JUMPDEST DUP2 SLOAD DUP2 MSTORE SWAP1 PUSH1 0x1 ADD SWAP1 PUSH1 0x20 ADD DUP1 DUP4 GT PUSH2 0x23F JUMPI DUP3 SWAP1 SUB PUSH1 0x1F AND DUP3 ADD SWAP2 JUMPDEST POP POP POP POP POP DUP2 MSTORE PUSH1 0x20 ADD PUSH1 0x3 DUP3 ADD SLOAD DUP2 MSTORE PUSH1 0x20 ADD PUSH1 0x4 DUP3 ADD PUSH0 SWAP1 SLOAD SWAP1 PUSH2 0x100 EXP SWAP1 DIV PUSH20 0xFFFFFFFFFFFFFFFFFFFFFFFFFFFFFFFFFFFFFFFF AND PUSH20 0xFFFFFFFFFFFFFFFFFFFFFFFFFFFFFFFFFFFFFFFF AND PUSH20 0xFFFFFFFFFFFFFFFFFFFFFFFFFFFFFFFFFFFFFFFF AND DUP2 MSTORE PUSH1 0x20 ADD PUSH1 0x5 DUP3 ADD SLOAD DUP2 MSTORE POP POP SWAP1 POP DUP1 PUSH0 ADD MLOAD DUP2 PUSH1 0x20 ADD MLOAD DUP3 PUSH1 0x40 ADD MLOAD DUP4 PUSH1 0x60 ADD MLOAD DUP5 PUSH1 0x80 ADD MLOAD DUP6 PUSH1 0xA0 ADD MLOAD SWAP7 POP SWAP7 POP SWAP7 POP SWAP7 POP SWAP7 POP SWAP7 POP POP SWAP2 SWAP4 SWAP6 POP SWAP2 SWAP4 SWAP6 JUMP JUMPDEST PUSH1 0x2 PUSH0 DUP2 SLOAD DUP1 SWAP3 SWAP2 SWAP1 PUSH2 0x315 SWAP1 PUSH2 0xE52 JUMP JUMPDEST SWAP2 SWAP1 POP SSTORE POP PUSH1 0x40 MLOAD DUP1 PUSH1 0xE0 ADD PUSH1 0x40 MSTORE DUP1 PUSH1 0x2 SLOAD DUP2 MSTORE PUSH1 0x20 ADD DUP7 DUP2 MSTORE PUSH1 0x20 ADD DUP6 DUP2 MSTORE PUSH1 0x20 ADD DUP5 DUP2 MSTORE PUSH1 0x20 ADD DUP4 DUP2 MSTORE PUSH1 0x20 ADD DUP3 DUP2 MSTORE PUSH1 0x20 ADD PUSH0 DUP2 MSTORE POP PUSH0 DUP1 PUSH1 0x2 SLOAD DUP2 MSTORE PUSH1 0x20 ADD SWAP1 DUP2 MSTORE PUSH1 0x20 ADD PUSH0 KECCAK256 PUSH0 DUP3 ADD MLOAD DUP2 PUSH0 ADD SSTORE PUSH1 0x20 DUP3 ADD MLOAD DUP2 PUSH1 0x1 ADD SWAP1 DUP2 PUSH2 0x37E SWAP2 SWAP1 PUSH2 0x1036 JUMP JUMPDEST POP PUSH1 0x40 DUP3 ADD MLOAD DUP2 PUSH1 0x2 ADD SWAP1 DUP2 PUSH2 0x394 SWAP2 SWAP1 PUSH2 0x1036 JUMP JUMPDEST POP PUSH1 0x60 DUP3 ADD MLOAD DUP2 PUSH1 0x3 ADD SWAP1 DUP2 PUSH2 0x3AA SWAP2 SWAP1 PUSH2 0x1036 JUMP JUMPDEST POP PUSH1 0x80 DUP3 ADD MLOAD DUP2 PUSH1 0x4 ADD SWAP1 DUP2 PUSH2 0x3C0 SWAP2 SWAP1 PUSH2 0x1036 JUMP JUMPDEST POP PUSH1 0xA0 DUP3 ADD MLOAD DUP2 PUSH1 0x5 ADD SWAP1 DUP2 PUSH2 0x3D6 SWAP2 SWAP1 PUSH2 0x1036 JUMP JUMPDEST POP PUSH1 0xC0 DUP3 ADD MLOAD DUP2 PUSH1 0x6 ADD SSTORE SWAP1 POP POP POP POP POP POP POP JUMP JUMPDEST PUSH0 PUSH1 0x60 DUP1 PUSH1 0x60 DUP1 PUSH1 0x60 PUSH0 DUP1 PUSH0 DUP1 DUP11 DUP2 MSTORE PUSH1 0x20 ADD SWAP1 DUP2 MSTORE PUSH1 0x20 ADD PUSH0 KECCAK256 PUSH1 0x40 MLOAD DUP1 PUSH1 0xE0 ADD PUSH1 0x40 MSTORE SWAP1 DUP2 PUSH0 DUP3 ADD SLOAD DUP2 MSTORE PUSH1 0x20 ADD PUSH1 0x1 DUP3 ADD DUP1 SLOAD PUSH2 0x42A SWAP1 PUSH2 0xDF5 JUMP JUMPDEST DUP1 PUSH1 0x1F ADD PUSH1 0x20 DUP1 SWAP2 DIV MUL PUSH1 0x20 ADD PUSH1 0x40 MLOAD SWAP1 DUP2 ADD PUSH1 0x40 MSTORE DUP1 SWAP3 SWAP2 SWAP1 DUP2 DUP2 MSTORE PUSH1 0x20 ADD DUP3 DUP1 SLOAD PUSH2 0x456 SWAP1 PUSH2 0xDF5 JUMP JUMPDEST DUP1 ISZERO PUSH2 0x4A1 JUMPI DUP1 PUSH1 0x1F LT PUSH2 0x478 JUMPI PUSH2 0x100 DUP1 DUP4 SLOAD DIV MUL DUP4 MSTORE SWAP2 PUSH1 0x20 ADD SWAP2 PUSH2 0x4A1 JUMP JUMPDEST DUP3 ADD SWAP2 SWAP1 PUSH0 MSTORE PUSH1 0x20 PUSH0 KECCAK256 SWAP1 JUMPDEST DUP2 SLOAD DUP2 MSTORE SWAP1 PUSH1 0x1 ADD SWAP1 PUSH1 0x20 ADD DUP1 DUP4 GT PUSH2 0x484 JUMPI DUP3 SWAP1 SUB PUSH1 0x1F AND DUP3 ADD SWAP2 JUMPDEST POP POP POP POP POP DUP2 MSTORE PUSH1 0x20 ADD PUSH1 0x2 DUP3 ADD DUP1 SLOAD PUSH2 0x4BA SWAP1 PUSH2 0xDF5 JUMP JUMPDEST DUP1 PUSH1 0x1F ADD PUSH1 0x20 DUP1 SWAP2 DIV MUL PUSH1 0x20 ADD PUSH1 0x40 MLOAD SWAP1 DUP2 ADD PUSH1 0x40 MSTORE DUP1 SWAP3 SWAP2 SWAP1 DUP2 DUP2 MSTORE PUSH1 0x20 ADD DUP3 DUP1 SLOAD PUSH2 0x4E6 SWAP1 PUSH2 0xDF5 JUMP JUMPDEST DUP1 ISZERO PUSH2 0x531 JUMPI DUP1 PUSH1 0x1F LT PUSH2 0x508 JUMPI PUSH2 0x100 DUP1 DUP4 SLOAD DIV MUL DUP4 MSTORE SWAP2 PUSH1 0x20 ADD SWAP2 PUSH2 0x531 JUMP JUMPDEST DUP3 ADD SWAP2 SWAP1 PUSH0 MSTORE PUSH1 0x20 PUSH0 KECCAK256 SWAP1 JUMPDEST DUP2 SLOAD DUP2 MSTORE SWAP1 PUSH1 0x1 ADD SWAP1 PUSH1 0x20 ADD DUP1 DUP4 GT PUSH2 0x514 JUMPI DUP3 SWAP1 SUB PUSH1 0x1F AND DUP3 ADD SWAP2 JUMPDEST POP POP POP POP POP DUP2 MSTORE PUSH1 0x20 ADD PUSH1 0x3 DUP3 ADD DUP1 SLOAD PUSH2 0x54A SWAP1 PUSH2 0xDF5 JUMP JUMPDEST DUP1 PUSH1 0x1F ADD PUSH1 0x20 DUP1 SWAP2 DIV MUL PUSH1 0x20 ADD PUSH1 0x40 MLOAD SWAP1 DUP2 ADD PUSH1 0x40 MSTORE DUP1 SWAP3 SWAP2 SWAP1 DUP2 DUP2 MSTORE PUSH1 0x20 ADD DUP3 DUP1 SLOAD PUSH2 0x576 SWAP1 PUSH2 0xDF5 JUMP JUMPDEST DUP1 ISZERO PUSH2 0x5C1 JUMPI DUP1 PUSH1 0x1F LT PUSH2 0x598 JUMPI PUSH2 0x100 DUP1 DUP4 SLOAD DIV MUL DUP4 MSTORE SWAP2 PUSH1 0x20 ADD SWAP2 PUSH2 0x5C1 JUMP JUMPDEST DUP3 ADD SWAP2 SWAP1 PUSH0 MSTORE PUSH1 0x20 PUSH0 KECCAK256 SWAP1 JUMPDEST DUP2 SLOAD DUP2 MSTORE SWAP1 PUSH1 0x1 ADD SWAP1 PUSH1 0x20 ADD DUP1 DUP4 GT PUSH2 0x5A4 JUMPI DUP3 SWAP1 SUB PUSH1 0x1F AND DUP3 ADD SWAP2 JUMPDEST POP POP POP POP POP DUP2 MSTORE PUSH1 0x20 ADD PUSH1 0x4 DUP3 ADD DUP1 SLOAD PUSH2 0x5DA SWAP1 PUSH2 0xDF5 JUMP JUMPDEST DUP1 PUSH1 0x1F ADD PUSH1 0x20 DUP1 SWAP2 DIV MUL PUSH1 0x20 ADD PUSH1 0x40 MLOAD SWAP1 DUP2 ADD PUSH1 0x40 MSTORE DUP1 SWAP3 SWAP2 SWAP1 DUP2 DUP2 MSTORE PUSH1 0x20 ADD DUP3 DUP1 SLOAD PUSH2 0x606 SWAP1 PUSH2 0xDF5 JUMP JUMPDEST DUP1 ISZERO PUSH2 0x651 JUMPI DUP1 PUSH1 0x1F LT PUSH2 0x628 JUMPI PUSH2 0x100 DUP1 DUP4 SLOAD DIV MUL DUP4 MSTORE SWAP2 PUSH1 0x20 ADD SWAP2 PUSH2 0x651 JUMP JUMPDEST DUP3 ADD SWAP2 SWAP1 PUSH0 MSTORE PUSH1 0x20 PUSH0 KECCAK256 SWAP1 JUMPDEST DUP2 SLOAD DUP2 MSTORE SWAP1 PUSH1 0x1 ADD SWAP1 PUSH1 0x20 ADD DUP1 DUP4 GT PUSH2 0x634 JUMPI DUP3 SWAP1 SUB PUSH1 0x1F AND DUP3 ADD SWAP2 JUMPDEST POP POP POP POP POP DUP2 MSTORE PUSH1 0x20 ADD PUSH1 0x5 DUP3 ADD DUP1 SLOAD PUSH2 0x66A SWAP1 PUSH2 0xDF5 JUMP JUMPDEST DUP1 PUSH1 0x1F ADD PUSH1 0x20 DUP1 SWAP2 DIV MUL PUSH1 0x20 ADD PUSH1 0x40 MLOAD SWAP1 DUP2 ADD PUSH1 0x40 MSTORE DUP1 SWAP3 SWAP2 SWAP1 DUP2 DUP2 MSTORE PUSH1 0x20 ADD DUP3 DUP1 SLOAD PUSH2 0x696 SWAP1 PUSH2 0xDF5 JUMP JUMPDEST DUP1 ISZERO PUSH2 0x6E1 JUMPI DUP1 PUSH1 0x1F LT PUSH2 0x6B8 JUMPI PUSH2 0x100 DUP1 DUP4 SLOAD DIV MUL DUP4 MSTORE SWAP2 PUSH1 0x20 ADD SWAP2 PUSH2 0x6E1 JUMP JUMPDEST DUP3 ADD SWAP2 SWAP1 PUSH0 MSTORE PUSH1 0x20 PUSH0 KECCAK256 SWAP1 JUMPDEST DUP2 SLOAD DUP2 MSTORE SWAP1 PUSH1 0x1 ADD SWAP1 PUSH1 0x20 ADD DUP1 DUP4 GT PUSH2 0x6C4 JUMPI DUP3 SWAP1 SUB PUSH1 0x1F AND DUP3 ADD SWAP2 JUMPDEST POP POP POP POP POP DUP2 MSTORE PUSH1 0x20 ADD PUSH1 0x6 DUP3 ADD SLOAD DUP2 MSTORE POP POP SWAP1 POP DUP1 PUSH0 ADD MLOAD DUP2 PUSH1 0x20 ADD MLOAD DUP3 PUSH1 0x40 ADD MLOAD DUP4 PUSH1 0x60 ADD MLOAD DUP5 PUSH1 0x80 ADD MLOAD DUP6 PUSH1 0xA0 ADD MLOAD DUP7 PUSH1 0xC0 ADD MLOAD SWAP8 POP SWAP8 POP SWAP8 POP SWAP8 POP SWAP8 POP SWAP8 POP SWAP8 POP POP SWAP2 SWAP4 SWAP6 SWAP8 SWAP1 SWAP3 SWAP5 SWAP7 POP JUMP JUMPDEST PUSH1 0x1 PUSH0 DUP1 DUP5 DUP2 MSTORE PUSH1 0x20 ADD SWAP1 DUP2 MSTORE PUSH1 0x20 ADD PUSH0 KECCAK256 PUSH1 0x6 ADD PUSH0 DUP3 DUP3 SLOAD PUSH2 0x755 SWAP2 SWAP1 PUSH2 0x1105 JUMP JUMPDEST SWAP3 POP POP DUP2 SWAP1 SSTORE POP PUSH1 0x1 DUP1 PUSH0 DUP4 DUP2 MSTORE PUSH1 0x20 ADD SWAP1 DUP2 MSTORE PUSH1 0x20 ADD PUSH0 KECCAK256 PUSH1 0x5 ADD PUSH0 DUP3 DUP3 SLOAD PUSH2 0x77F SWAP2 SWAP1 PUSH2 0x1105 JUMP JUMPDEST SWAP3 POP POP DUP2 SWAP1 SSTORE POP POP POP JUMP JUMPDEST PUSH1 0x3 PUSH0 DUP2 SLOAD DUP1 SWAP3 SWAP2 SWAP1 PUSH2 0x79C SWAP1 PUSH2 0xE52 JUMP JUMPDEST SWAP2 SWAP1 POP SSTORE POP PUSH1 0x40 MLOAD DUP1 PUSH1 0xC0 ADD PUSH1 0x40 MSTORE DUP1 PUSH1 0x3 SLOAD DUP2 MSTORE PUSH1 0x20 ADD DUP5 DUP2 MSTORE PUSH1 0x20 ADD DUP4 DUP2 MSTORE PUSH1 0x20 ADD DUP3 DUP2 MSTORE PUSH1 0x20 ADD CALLER PUSH20 0xFFFFFFFFFFFFFFFFFFFFFFFFFFFFFFFFFFFFFFFF AND DUP2 MSTORE PUSH1 0x20 ADD PUSH0 DUP2 MSTORE POP PUSH1 0x1 PUSH0 PUSH1 0x3 SLOAD DUP2 MSTORE PUSH1 0x20 ADD SWAP1 DUP2 MSTORE PUSH1 0x20 ADD PUSH0 KECCAK256 PUSH0 DUP3 ADD MLOAD DUP2 PUSH0 ADD SSTORE PUSH1 0x20 DUP3 ADD MLOAD DUP2 PUSH1 0x1 ADD SWAP1 DUP2 PUSH2 0x816 SWAP2 SWAP1 PUSH2 0x1036 JUMP JUMPDEST POP PUSH1 0x40 DUP3 ADD MLOAD DUP2 PUSH1 0x2 ADD SWAP1 DUP2 PUSH2 0x82C SWAP2 SWAP1 PUSH2 0x1036 JUMP JUMPDEST POP PUSH1 0x60 DUP3 ADD MLOAD DUP2 PUSH1 0x3 ADD SSTORE PUSH1 0x80 DUP3 ADD MLOAD DUP2 PUSH1 0x4 ADD PUSH0 PUSH2 0x100 EXP DUP2 SLOAD DUP2 PUSH20 0xFFFFFFFFFFFFFFFFFFFFFFFFFFFFFFFFFFFFFFFF MUL NOT AND SWAP1 DUP4 PUSH20 0xFFFFFFFFFFFFFFFFFFFFFFFFFFFFFFFFFFFFFFFF AND MUL OR SWAP1 SSTORE POP PUSH1 0xA0 DUP3 ADD MLOAD DUP2 PUSH1 0x5 ADD SSTORE SWAP1 POP POP POP POP POP JUMP JUMPDEST PUSH0 PUSH1 0x40 MLOAD SWAP1 POP SWAP1 JUMP JUMPDEST PUSH0 DUP1 REVERT JUMPDEST PUSH0 DUP1 REVERT JUMPDEST PUSH0 DUP2 SWAP1 POP SWAP2 SWAP1 POP JUMP JUMPDEST PUSH2 0x8B2 DUP2 PUSH2 0x8A0 JUMP JUMPDEST DUP2 EQ PUSH2 0x8BC JUMPI PUSH0 DUP1 REVERT JUMPDEST POP JUMP JUMPDEST PUSH0 DUP2 CALLDATALOAD SWAP1 POP PUSH2 0x8CD DUP2 PUSH2 0x8A9 JUMP JUMPDEST SWAP3 SWAP2 POP POP JUMP JUMPDEST PUSH0 PUSH1 0x20 DUP3 DUP5 SUB SLT ISZERO PUSH2 0x8E8 JUMPI PUSH2 0x8E7 PUSH2 0x898 JUMP JUMPDEST JUMPDEST PUSH0 PUSH2 0x8F5 DUP5 DUP3 DUP6 ADD PUSH2 0x8BF JUMP JUMPDEST SWAP2 POP POP SWAP3 SWAP2 POP POP JUMP JUMPDEST PUSH2 0x907 DUP2 PUSH2 0x8A0 JUMP JUMPDEST DUP3 MSTORE POP POP JUMP JUMPDEST PUSH0 DUP2 MLOAD SWAP1 POP SWAP2 SWAP1 POP JUMP JUMPDEST PUSH0 DUP3 DUP3 MSTORE PUSH1 0x20 DUP3 ADD SWAP1 POP SWAP3 SWAP2 POP POP JUMP JUMPDEST PUSH0 JUMPDEST DUP4 DUP2 LT ISZERO PUSH2 0x944 JUMPI DUP1 DUP3 ADD MLOAD DUP2 DUP5 ADD MSTORE PUSH1 0x20 DUP2 ADD SWAP1 POP PUSH2 0x929 JUMP JUMPDEST PUSH0 DUP5 DUP5 ADD MSTORE POP POP POP POP JUMP JUMPDEST PUSH0 PUSH1 0x1F NOT PUSH1 0x1F DUP4 ADD AND SWAP1 POP SWAP2 SWAP1 POP JUMP JUMPDEST PUSH0 PUSH2 0x969 DUP3 PUSH2 0x90D JUMP JUMPDEST PUSH2 0x973 DUP2 DUP6 PUSH2 0x917 JUMP JUMPDEST SWAP4 POP PUSH2 0x983 DUP2 DUP6 PUSH1 0x20 DUP7 ADD PUSH2 0x927 JUMP JUMPDEST PUSH2 0x98C DUP2 PUSH2 0x94F JUMP JUMPDEST DUP5 ADD SWAP2 POP POP SWAP3 SWAP2 POP POP JUMP JUMPDEST PUSH0 PUSH20 0xFFFFFFFFFFFFFFFFFFFFFFFFFFFFFFFFFFFFFFFF DUP3 AND SWAP1 POP SWAP2 SWAP1 POP JUMP JUMPDEST PUSH0 PUSH2 0x9C0 DUP3 PUSH2 0x997 JUMP JUMPDEST SWAP1 POP SWAP2 SWAP1 POP JUMP JUMPDEST PUSH2 0x9D0 DUP2 PUSH2 0x9B6 JUMP JUMPDEST DUP3 MSTORE POP POP JUMP JUMPDEST PUSH0 PUSH1 0xC0 DUP3 ADD SWAP1 POP PUSH2 0x9E9 PUSH0 DUP4 ADD DUP10 PUSH2 0x8FE JUMP JUMPDEST DUP2 DUP2 SUB PUSH1 0x20 DUP4 ADD MSTORE PUSH2 0x9FB DUP2 DUP9 PUSH2 0x95F JUMP JUMPDEST SWAP1 POP DUP2 DUP2 SUB PUSH1 0x40 DUP4 ADD MSTORE PUSH2 0xA0F DUP2 DUP8 PUSH2 0x95F JUMP JUMPDEST SWAP1 POP PUSH2 0xA1E PUSH1 0x60 DUP4 ADD DUP7 PUSH2 0x8FE JUMP JUMPDEST PUSH2 0xA2B PUSH1 0x80 DUP4 ADD DUP6 PUSH2 0x9C7 JUMP JUMPDEST PUSH2 0xA38 PUSH1 0xA0 DUP4 ADD DUP5 PUSH2 0x8FE JUMP JUMPDEST SWAP8 SWAP7 POP POP POP POP POP POP POP JUMP JUMPDEST PUSH0 DUP1 REVERT JUMPDEST PUSH0 DUP1 REVERT JUMPDEST PUSH32 0x4E487B7100000000000000000000000000000000000000000000000000000000 PUSH0 MSTORE PUSH1 0x41 PUSH1 0x4 MSTORE PUSH1 0x24 PUSH0 REVERT JUMPDEST PUSH2 0xA81 DUP3 PUSH2 0x94F JUMP JUMPDEST DUP2 ADD DUP2 DUP2 LT PUSH8 0xFFFFFFFFFFFFFFFF DUP3 GT OR ISZERO PUSH2 0xAA0 JUMPI PUSH2 0xA9F PUSH2 0xA4B JUMP JUMPDEST JUMPDEST DUP1 PUSH1 0x40 MSTORE POP POP POP JUMP JUMPDEST PUSH0 PUSH2 0xAB2 PUSH2 0x88F JUMP JUMPDEST SWAP1 POP PUSH2 0xABE DUP3 DUP3 PUSH2 0xA78 JUMP JUMPDEST SWAP2 SWAP1 POP JUMP JUMPDEST PUSH0 PUSH8 0xFFFFFFFFFFFFFFFF DUP3 GT ISZERO PUSH2 0xADD JUMPI PUSH2 0xADC PUSH2 0xA4B JUMP JUMPDEST JUMPDEST PUSH2 0xAE6 DUP3 PUSH2 0x94F JUMP JUMPDEST SWAP1 POP PUSH1 0x20 DUP2 ADD SWAP1 POP SWAP2 SWAP1 POP JUMP JUMPDEST DUP3 DUP2 DUP4 CALLDATACOPY PUSH0 DUP4 DUP4 ADD MSTORE POP POP POP JUMP JUMPDEST PUSH0 PUSH2 0xB13 PUSH2 0xB0E DUP5 PUSH2 0xAC3 JUMP JUMPDEST PUSH2 0xAA9 JUMP JUMPDEST SWAP1 POP DUP3 DUP2 MSTORE PUSH1 0x20 DUP2 ADD DUP5 DUP5 DUP5 ADD GT ISZERO PUSH2 0xB2F JUMPI PUSH2 0xB2E PUSH2 0xA47 JUMP JUMPDEST JUMPDEST PUSH2 0xB3A DUP5 DUP3 DUP6 PUSH2 0xAF3 JUMP JUMPDEST POP SWAP4 SWAP3 POP POP POP JUMP JUMPDEST PUSH0 DUP3 PUSH1 0x1F DUP4 ADD SLT PUSH2 0xB56 JUMPI PUSH2 0xB55 PUSH2 0xA43 JUMP JUMPDEST JUMPDEST DUP2 CALLDATALOAD PUSH2 0xB66 DUP5 DUP3 PUSH1 0x20 DUP7 ADD PUSH2 0xB01 JUMP JUMPDEST SWAP2 POP POP SWAP3 SWAP2 POP POP JUMP JUMPDEST PUSH0 DUP1 PUSH0 DUP1 PUSH0 PUSH1 0xA0 DUP7 DUP9 SUB SLT ISZERO PUSH2 0xB88 JUMPI PUSH2 0xB87 PUSH2 0x898 JUMP JUMPDEST JUMPDEST PUSH0 DUP7 ADD CALLDATALOAD PUSH8 0xFFFFFFFFFFFFFFFF DUP2 GT ISZERO PUSH2 0xBA5 JUMPI PUSH2 0xBA4 PUSH2 0x89C JUMP JUMPDEST JUMPDEST PUSH2 0xBB1 DUP9 DUP3 DUP10 ADD PUSH2 0xB42 JUMP JUMPDEST SWAP6 POP POP PUSH1 0x20 DUP7 ADD CALLDATALOAD PUSH8 0xFFFFFFFFFFFFFFFF DUP2 GT ISZERO PUSH2 0xBD2 JUMPI PUSH2 0xBD1 PUSH2 0x89C JUMP JUMPDEST JUMPDEST PUSH2 0xBDE DUP9 DUP3 DUP10 ADD PUSH2 0xB42 JUMP JUMPDEST SWAP5 POP POP PUSH1 0x40 DUP7 ADD CALLDATALOAD PUSH8 0xFFFFFFFFFFFFFFFF DUP2 GT ISZERO PUSH2 0xBFF JUMPI PUSH2 0xBFE PUSH2 0x89C JUMP JUMPDEST JUMPDEST PUSH2 0xC0B DUP9 DUP3 DUP10 ADD PUSH2 0xB42 JUMP JUMPDEST SWAP4 POP POP PUSH1 0x60 DUP7 ADD CALLDATALOAD PUSH8 0xFFFFFFFFFFFFFFFF DUP2 GT ISZERO PUSH2 0xC2C JUMPI PUSH2 0xC2B PUSH2 0x89C JUMP JUMPDEST JUMPDEST PUSH2 0xC38 DUP9 DUP3 DUP10 ADD PUSH2 0xB42 JUMP JUMPDEST SWAP3 POP POP PUSH1 0x80 DUP7 ADD CALLDATALOAD PUSH8 0xFFFFFFFFFFFFFFFF DUP2 GT ISZERO PUSH2 0xC59 JUMPI PUSH2 0xC58 PUSH2 0x89C JUMP JUMPDEST JUMPDEST PUSH2 0xC65 DUP9 DUP3 DUP10 ADD PUSH2 0xB42 JUMP JUMPDEST SWAP2 POP POP SWAP3 SWAP6 POP SWAP3 SWAP6 SWAP1 SWAP4 POP JUMP JUMPDEST PUSH0 PUSH1 0xE0 DUP3 ADD SWAP1 POP PUSH2 0xC85 PUSH0 DUP4 ADD DUP11 PUSH2 0x8FE JUMP JUMPDEST DUP2 DUP2 SUB PUSH1 0x20 DUP4 ADD MSTORE PUSH2 0xC97 DUP2 DUP10 PUSH2 0x95F JUMP JUMPDEST SWAP1 POP DUP2 DUP2 SUB PUSH1 0x40 DUP4 ADD MSTORE PUSH2 0xCAB DUP2 DUP9 PUSH2 0x95F JUMP JUMPDEST SWAP1 POP DUP2 DUP2 SUB PUSH1 0x60 DUP4 ADD MSTORE PUSH2 0xCBF DUP2 DUP8 PUSH2 0x95F JUMP JUMPDEST SWAP1 POP DUP2 DUP2 SUB PUSH1 0x80 DUP4 ADD MSTORE PUSH2 0xCD3 DUP2 DUP7 PUSH2 0x95F JUMP JUMPDEST SWAP1 POP DUP2 DUP2 SUB PUSH1 0xA0 DUP4 ADD MSTORE PUSH2 0xCE7 DUP2 DUP6 PUSH2 0x95F JUMP JUMPDEST SWAP1 POP PUSH2 0xCF6 PUSH1 0xC0 DUP4 ADD DUP5 PUSH2 0x8FE JUMP JUMPDEST SWAP9 SWAP8 POP POP POP POP POP POP POP POP JUMP JUMPDEST PUSH0 DUP1 PUSH1 0x40 DUP4 DUP6 SUB SLT ISZERO PUSH2 0xD18 JUMPI PUSH2 0xD17 PUSH2 0x898 JUMP JUMPDEST JUMPDEST PUSH0 PUSH2 0xD25 DUP6 DUP3 DUP7 ADD PUSH2 0x8BF JUMP JUMPDEST SWAP3 POP POP PUSH1 0x20 PUSH2 0xD36 DUP6 DUP3 DUP7 ADD PUSH2 0x8BF JUMP JUMPDEST SWAP2 POP POP SWAP3 POP SWAP3 SWAP1 POP JUMP JUMPDEST PUSH0 DUP1 PUSH0 PUSH1 0x60 DUP5 DUP7 SUB SLT ISZERO PUSH2 0xD57 JUMPI PUSH2 0xD56 PUSH2 0x898 JUMP JUMPDEST JUMPDEST PUSH0 DUP5 ADD CALLDATALOAD PUSH8 0xFFFFFFFFFFFFFFFF DUP2 GT ISZERO PUSH2 0xD74 JUMPI PUSH2 0xD73 PUSH2 0x89C JUMP JUMPDEST JUMPDEST PUSH2 0xD80 DUP7 DUP3 DUP8 ADD PUSH2 0xB42 JUMP JUMPDEST SWAP4 POP POP PUSH1 0x20 DUP5 ADD CALLDATALOAD PUSH8 0xFFFFFFFFFFFFFFFF DUP2 GT ISZERO PUSH2 0xDA1 JUMPI PUSH2 0xDA0 PUSH2 0x89C JUMP JUMPDEST JUMPDEST PUSH2 0xDAD DUP7 DUP3 DUP8 ADD PUSH2 0xB42 JUMP JUMPDEST SWAP3 POP POP PUSH1 0x40 PUSH2 0xDBE DUP7 DUP3 DUP8 ADD PUSH2 0x8BF JUMP JUMPDEST SWAP2 POP POP SWAP3 POP SWAP3 POP SWAP3 JUMP JUMPDEST PUSH32 0x4E487B7100000000000000000000000000000000000000000000000000000000 PUSH0 MSTORE PUSH1 0x22 PUSH1 0x4 MSTORE PUSH1 0x24 PUSH0 REVERT JUMPDEST PUSH0 PUSH1 0x2 DUP3 DIV SWAP1 POP PUSH1 0x1 DUP3 AND DUP1 PUSH2 0xE0C JUMPI PUSH1 0x7F DUP3 AND SWAP2 POP JUMPDEST PUSH1 0x20 DUP3 LT DUP2 SUB PUSH2 0xE1F JUMPI PUSH2 0xE1E PUSH2 0xDC8 JUMP JUMPDEST JUMPDEST POP SWAP2 SWAP1 POP JUMP JUMPDEST PUSH32 0x4E487B7100000000000000000000000000000000000000000000000000000000 PUSH0 MSTORE PUSH1 0x11 PUSH1 0x4 MSTORE PUSH1 0x24 PUSH0 REVERT JUMPDEST PUSH0 PUSH2 0xE5C DUP3 PUSH2 0x8A0 JUMP JUMPDEST SWAP2 POP PUSH32 0xFFFFFFFFFFFFFFFFFFFFFFFFFFFFFFFFFFFFFFFFFFFFFFFFFFFFFFFFFFFFFFFF DUP3 SUB PUSH2 0xE8E JUMPI PUSH2 0xE8D PUSH2 0xE25 JUMP JUMPDEST JUMPDEST PUSH1 0x1 DUP3 ADD SWAP1 POP SWAP2 SWAP1 POP JUMP JUMPDEST PUSH0 DUP2 SWAP1 POP DUP2 PUSH0 MSTORE PUSH1 0x20 PUSH0 KECCAK256 SWAP1 POP SWAP2 SWAP1 POP JUMP JUMPDEST PUSH0 PUSH1 0x20 PUSH1 0x1F DUP4 ADD DIV SWAP1 POP SWAP2 SWAP1 POP JUMP JUMPDEST PUSH0 DUP3 DUP3 SHL SWAP1 POP SWAP3 SWAP2 POP POP JUMP JUMPDEST PUSH0 PUSH1 0x8 DUP4 MUL PUSH2 0xEF5 PUSH32 0xFFFFFFFFFFFFFFFFFFFFFFFFFFFFFFFFFFFFFFFFFFFFFFFFFFFFFFFFFFFFFFFF DUP3 PUSH2 0xEBA JUMP JUMPDEST PUSH2 0xEFF DUP7 DUP4 PUSH2 0xEBA JUMP JUMPDEST SWAP6 POP DUP1 NOT DUP5 AND SWAP4 POP DUP1 DUP7 AND DUP5 OR SWAP3 POP POP POP SWAP4 SWAP3 POP POP POP JUMP JUMPDEST PUSH0 DUP2 SWAP1 POP SWAP2 SWAP1 POP JUMP JUMPDEST PUSH0 PUSH2 0xF3A PUSH2 0xF35 PUSH2 0xF30 DUP5 PUSH2 0x8A0 JUMP JUMPDEST PUSH2 0xF17 JUMP JUMPDEST PUSH2 0x8A0 JUMP JUMPDEST SWAP1 POP SWAP2 SWAP1 POP JUMP JUMPDEST PUSH0 DUP2 SWAP1 POP SWAP2 SWAP1 POP JUMP JUMPDEST PUSH2 0xF53 DUP4 PUSH2 0xF20 JUMP JUMPDEST PUSH2 0xF67 PUSH2 0xF5F DUP3 PUSH2 0xF41 JUMP JUMPDEST DUP5 DUP5 SLOAD PUSH2 0xEC6 JUMP JUMPDEST DUP3 SSTORE POP POP POP POP JUMP JUMPDEST PUSH0 SWAP1 JUMP JUMPDEST PUSH2 0xF7B PUSH2 0xF6F JUMP JUMPDEST PUSH2 0xF86 DUP2 DUP5 DUP5 PUSH2 0xF4A JUMP JUMPDEST POP POP POP JUMP JUMPDEST JUMPDEST DUP2 DUP2 LT ISZERO PUSH2 0xFA9 JUMPI PUSH2 0xF9E PUSH0 DUP3 PUSH2 0xF73 JUMP JUMPDEST PUSH1 0x1 DUP2 ADD SWAP1 POP PUSH2 0xF8C JUMP JUMPDEST POP POP JUMP JUMPDEST PUSH1 0x1F DUP3 GT ISZERO PUSH2 0xFEE JUMPI PUSH2 0xFBF DUP2 PUSH2 0xE99 JUMP JUMPDEST PUSH2 0xFC8 DUP5 PUSH2 0xEAB JUMP JUMPDEST DUP2 ADD PUSH1 0x20 DUP6 LT ISZERO PUSH2 0xFD7 JUMPI DUP2 SWAP1 POP JUMPDEST PUSH2 0xFEB PUSH2 0xFE3 DUP6 PUSH2 0xEAB JUMP JUMPDEST DUP4 ADD DUP3 PUSH2 0xF8B JUMP JUMPDEST POP POP JUMPDEST POP POP POP JUMP JUMPDEST PUSH0 DUP3 DUP3 SHR SWAP1 POP SWAP3 SWAP2 POP POP JUMP JUMPDEST PUSH0 PUSH2 0x100E PUSH0 NOT DUP5 PUSH1 0x8 MUL PUSH2 0xFF3 JUMP JUMPDEST NOT DUP1 DUP4 AND SWAP2 POP POP SWAP3 SWAP2 POP POP JUMP JUMPDEST PUSH0 PUSH2 0x1026 DUP4 DUP4 PUSH2 0xFFF JUMP JUMPDEST SWAP2 POP DUP3 PUSH1 0x2 MUL DUP3 OR SWAP1 POP SWAP3 SWAP2 POP POP JUMP JUMPDEST PUSH2 0x103F DUP3 PUSH2 0x90D JUMP JUMPDEST PUSH8 0xFFFFFFFFFFFFFFFF DUP2 GT ISZERO PUSH2 0x1058 JUMPI PUSH2 0x1057 PUSH2 0xA4B JUMP JUMPDEST JUMPDEST PUSH2 0x1062 DUP3 SLOAD PUSH2 0xDF5 JUMP JUMPDEST PUSH2 0x106D DUP3 DUP3 DUP6 PUSH2 0xFAD JUMP JUMPDEST PUSH0 PUSH1 0x20 SWAP1 POP PUSH1 0x1F DUP4 GT PUSH1 0x1 DUP2 EQ PUSH2 0x109E JUMPI PUSH0 DUP5 ISZERO PUSH2 0x108C JUMPI DUP3 DUP8 ADD MLOAD SWAP1 POP JUMPDEST PUSH2 0x1096 DUP6 DUP3 PUSH2 0x101B JUMP JUMPDEST DUP7 SSTORE POP PUSH2 0x10FD JUMP JUMPDEST PUSH1 0x1F NOT DUP5 AND PUSH2 0x10AC DUP7 PUSH2 0xE99 JUMP JUMPDEST PUSH0 JUMPDEST DUP3 DUP2 LT ISZERO PUSH2 0x10D3 JUMPI DUP5 DUP10 ADD MLOAD DUP3 SSTORE PUSH1 0x1 DUP3 ADD SWAP2 POP PUSH1 0x20 DUP6 ADD SWAP5 POP PUSH1 0x20 DUP2 ADD SWAP1 POP PUSH2 0x10AE JUMP JUMPDEST DUP7 DUP4 LT ISZERO PUSH2 0x10F0 JUMPI DUP5 DUP10 ADD MLOAD PUSH2 0x10EC PUSH1 0x1F DUP10 AND DUP3 PUSH2 0xFFF JUMP JUMPDEST DUP4 SSTORE POP JUMPDEST PUSH1 0x1 PUSH1 0x2 DUP9 MUL ADD DUP9 SSTORE POP POP POP JUMPDEST POP POP POP POP POP POP JUMP JUMPDEST PUSH0 PUSH2 0x110F DUP3 PUSH2 0x8A0 JUMP JUMPDEST SWAP2 POP PUSH2 0x111A DUP4 PUSH2 0x8A0 JUMP JUMPDEST SWAP3 POP DUP3 DUP3 ADD SWAP1 POP DUP1 DUP3 GT ISZERO PUSH2 0x1132 JUMPI PUSH2 0x1131 PUSH2 0xE25 JUMP JUMPDEST JUMPDEST SWAP3 SWAP2 POP POP JUMP INVALID LOG2 PUSH5 0x6970667358 0x22 SLT KECCAK256 OR LOG4 RETURNDATASIZE PUSH27 0xA9F7BA887495A7B2FD9F9D15C40C57C2728479A67C65830DDD94B4 0x29 PUSH5 0x736F6C6343 STOP ADDMOD AND STOP CALLER "
				},
				"gasEstimates": {
					"creation": {
						"codeDepositCost": "892400",
						"executionCost": "927",
						"totalCost": "893327"
					},
					"external": {
						"addApplicant(string,string,string,string,string)": "infinite",
						"addJob(string,string,uint256)": "infinite",
						"applyForJob(uint256,uint256)": "infinite",
						"getApplicantDetails(uint256)": "infinite",
						"getJobDetails(uint256)": "infinite"
					}
				},
				"methodIdentifiers": {
					"addApplicant(string,string,string,string,string)": "558e0a7b",
					"addJob(string,string,uint256)": "fa6b104a",
					"applyForJob(uint256,uint256)": "bfc7a66e",
					"getApplicantDetails(uint256)": "8798a47b",
					"getJobDetails(uint256)": "4cac35c6"
				}
			},
			"storageLayout": {
				"storage": [
					{
						"astId": 21,
						"contract": "contracts/Job-Portal.sol:JobPortal",
						"label": "applicants",
						"offset": 0,
						"slot": "0",
						"type": "t_mapping(t_uint256,t_struct(Applicant)16_storage)"
					},
					{
						"astId": 39,
						"contract": "contracts/Job-Portal.sol:JobPortal",
						"label": "jobs",
						"offset": 0,
						"slot": "1",
						"type": "t_mapping(t_uint256,t_struct(Job)34_storage)"
					},
					{
						"astId": 41,
						"contract": "contracts/Job-Portal.sol:JobPortal",
						"label": "applicantCount",
						"offset": 0,
						"slot": "2",
						"type": "t_uint256"
					},
					{
						"astId": 43,
						"contract": "contracts/Job-Portal.sol:JobPortal",
						"label": "jobCount",
						"offset": 0,
						"slot": "3",
						"type": "t_uint256"
					}
				],
				"types": {
					"t_address": {
						"encoding": "inplace",
						"label": "address",
						"numberOfBytes": "20"
					},
					"t_mapping(t_uint256,t_struct(Applicant)16_storage)": {
						"encoding": "mapping",
						"key": "t_uint256",
						"label": "mapping(uint256 => struct JobPortal.Applicant)",
						"numberOfBytes": "32",
						"value": "t_struct(Applicant)16_storage"
					},
					"t_mapping(t_uint256,t_struct(Job)34_storage)": {
						"encoding": "mapping",
						"key": "t_uint256",
						"label": "mapping(uint256 => struct JobPortal.Job)",
						"numberOfBytes": "32",
						"value": "t_struct(Job)34_storage"
					},
					"t_string_storage": {
						"encoding": "bytes",
						"label": "string",
						"numberOfBytes": "32"
					},
					"t_struct(Applicant)16_storage": {
						"encoding": "inplace",
						"label": "struct JobPortal.Applicant",
						"members": [
							{
								"astId": 3,
								"contract": "contracts/Job-Portal.sol:JobPortal",
								"label": "id",
								"offset": 0,
								"slot": "0",
								"type": "t_uint256"
							},
							{
								"astId": 5,
								"contract": "contracts/Job-Portal.sol:JobPortal",
								"label": "name",
								"offset": 0,
								"slot": "1",
								"type": "t_string_storage"
							},
							{
								"astId": 7,
								"contract": "contracts/Job-Portal.sol:JobPortal",
								"label": "laborhistory",
								"offset": 0,
								"slot": "2",
								"type": "t_string_storage"
							},
							{
								"astId": 9,
								"contract": "contracts/Job-Portal.sol:JobPortal",
								"label": "skills",
								"offset": 0,
								"slot": "3",
								"type": "t_string_storage"
							},
							{
								"astId": 11,
								"contract": "contracts/Job-Portal.sol:JobPortal",
								"label": "availability",
								"offset": 0,
								"slot": "4",
								"type": "t_string_storage"
							},
							{
								"astId": 13,
								"contract": "contracts/Job-Portal.sol:JobPortal",
								"label": "otherpersonaldetails",
								"offset": 0,
								"slot": "5",
								"type": "t_string_storage"
							},
							{
								"astId": 15,
								"contract": "contracts/Job-Portal.sol:JobPortal",
								"label": "rating",
								"offset": 0,
								"slot": "6",
								"type": "t_uint256"
							}
						],
						"numberOfBytes": "224"
					},
					"t_struct(Job)34_storage": {
						"encoding": "inplace",
						"label": "struct JobPortal.Job",
						"members": [
							{
								"astId": 23,
								"contract": "contracts/Job-Portal.sol:JobPortal",
								"label": "id",
								"offset": 0,
								"slot": "0",
								"type": "t_uint256"
							},
							{
								"astId": 25,
								"contract": "contracts/Job-Portal.sol:JobPortal",
								"label": "jobname",
								"offset": 0,
								"slot": "1",
								"type": "t_string_storage"
							},
							{
								"astId": 27,
								"contract": "contracts/Job-Portal.sol:JobPortal",
								"label": "description",
								"offset": 0,
								"slot": "2",
								"type": "t_string_storage"
							},
							{
								"astId": 29,
								"contract": "contracts/Job-Portal.sol:JobPortal",
								"label": "salary",
								"offset": 0,
								"slot": "3",
								"type": "t_uint256"
							},
							{
								"astId": 31,
								"contract": "contracts/Job-Portal.sol:JobPortal",
								"label": "provider",
								"offset": 0,
								"slot": "4",
								"type": "t_address"
							},
							{
								"astId": 33,
								"contract": "contracts/Job-Portal.sol:JobPortal",
								"label": "rating",
								"offset": 0,
								"slot": "5",
								"type": "t_uint256"
							}
						],
						"numberOfBytes": "192"
					},
					"t_uint256": {
						"encoding": "inplace",
						"label": "uint256",
						"numberOfBytes": "32"
					}
				}
			},
			"userdoc": {
				"kind": "user",
				"methods": {},
				"version": 1
			}
		}
	}
}