{
	"contracts/Sample-Jon.sol": {
		"JobPortal": {
			"abi": [
				{
					"inputs": [
						{
							"internalType": "string",
							"name": "_name",
							"type": "string"
						},
						{
							"internalType": "string",
							"name": "_laborHistory",
							"type": "string"
						},
						{
							"internalType": "string",
							"name": "_skills",
							"type": "string"
						},
						{
							"internalType": "string",
							"name": "_availability",
							"type": "string"
						},
						{
							"internalType": "string",
							"name": "_otherDetails",
							"type": "string"
						}
					],
					"name": "addApplicant",
					"outputs": [],
					"stateMutability": "nonpayable",
					"type": "function"
				},
				{
					"inputs": [
						{
							"internalType": "string",
							"name": "_title",
							"type": "string"
						},
						{
							"internalType": "string",
							"name": "_description",
							"type": "string"
						},
						{
							"internalType": "uint256",
							"name": "_salary",
							"type": "uint256"
						}
					],
					"name": "addJob",
					"outputs": [],
					"stateMutability": "nonpayable",
					"type": "function"
				},
				{
					"inputs": [],
					"name": "applicantCount",
					"outputs": [
						{
							"internalType": "uint256",
							"name": "",
							"type": "uint256"
						}
					],
					"stateMutability": "view",
					"type": "function"
				},
				{
					"inputs": [
						{
							"internalType": "uint256",
							"name": "",
							"type": "uint256"
						}
					],
					"name": "applicants",
					"outputs": [
						{
							"internalType": "uint256",
							"name": "id",
							"type": "uint256"
						},
						{
							"internalType": "string",
							"name": "name",
							"type": "string"
						},
						{
							"internalType": "string",
							"name": "laborHistory",
							"type": "string"
						},
						{
							"internalType": "string",
							"name": "skills",
							"type": "string"
						},
						{
							"internalType": "string",
							"name": "availability",
							"type": "string"
						},
						{
							"internalType": "string",
							"name": "otherDetails",
							"type": "string"
						},
						{
							"internalType": "uint256",
							"name": "rating",
							"type": "uint256"
						}
					],
					"stateMutability": "view",
					"type": "function"
				},
				{
					"inputs": [
						{
							"internalType": "uint256",
							"name": "_applicantId",
							"type": "uint256"
						},
						{
							"internalType": "uint256",
							"name": "_jobId",
							"type": "uint256"
						}
					],
					"name": "applyForJob",
					"outputs": [],
					"stateMutability": "nonpayable",
					"type": "function"
				},
				{
					"inputs": [
						{
							"internalType": "uint256",
							"name": "_id",
							"type": "uint256"
						}
					],
					"name": "getApplicantDetails",
					"outputs": [
						{
							"internalType": "uint256",
							"name": "",
							"type": "uint256"
						},
						{
							"internalType": "string",
							"name": "",
							"type": "string"
						},
						{
							"internalType": "string",
							"name": "",
							"type": "string"
						},
						{
							"internalType": "string",
							"name": "",
							"type": "string"
						},
						{
							"internalType": "string",
							"name": "",
							"type": "string"
						},
						{
							"internalType": "string",
							"name": "",
							"type": "string"
						},
						{
							"internalType": "uint256",
							"name": "",
							"type": "uint256"
						}
					],
					"stateMutability": "view",
					"type": "function"
				},
				{
					"inputs": [
						{
							"internalType": "uint256",
							"name": "_id",
							"type": "uint256"
						}
					],
					"name": "getJobDetails",
					"outputs": [
						{
							"internalType": "uint256",
							"name": "",
							"type": "uint256"
						},
						{
							"internalType": "string",
							"name": "",
							"type": "string"
						},
						{
							"internalType": "string",
							"name": "",
							"type": "string"
						},
						{
							"internalType": "uint256",
							"name": "",
							"type": "uint256"
						},
						{
							"internalType": "address",
							"name": "",
							"type": "address"
						},
						{
							"internalType": "uint256",
							"name": "",
							"type": "uint256"
						}
					],
					"stateMutability": "view",
					"type": "function"
				},
				{
					"inputs": [],
					"name": "jobCount",
					"outputs": [
						{
							"internalType": "uint256",
							"name": "",
							"type": "uint256"
						}
					],
					"stateMutability": "view",
					"type": "function"
				},
				{
					"inputs": [
						{
							"internalType": "uint256",
							"name": "",
							"type": "uint256"
						}
					],
					"name": "jobs",
					"outputs": [
						{
							"internalType": "uint256",
							"name": "id",
							"type": "uint256"
						},
						{
							"internalType": "string",
							"name": "title",
							"type": "string"
						},
						{
							"internalType": "string",
							"name": "description",
							"type": "string"
						},
						{
							"internalType": "uint256",
							"name": "salary",
							"type": "uint256"
						},
						{
							"internalType": "address",
							"name": "provider",
							"type": "address"
						},
						{
							"internalType": "uint256",
							"name": "rating",
							"type": "uint256"
						}
					],
					"stateMutability": "view",
					"type": "function"
				}
			],
			"devdoc": {
				"kind": "dev",
				"methods": {},
				"version": 1
			},
			"evm": {
				"assembly": "    /* \"contracts/Sample-Jon.sol\":57:2179  contract JobPortal {... */\n  mstore(0x40, 0x80)\n  callvalue\n  dup1\n  iszero\n  tag_1\n  jumpi\n  0x00\n  dup1\n  revert\ntag_1:\n  pop\n  dataSize(sub_0)\n  dup1\n  dataOffset(sub_0)\n  0x00\n  codecopy\n  0x00\n  return\nstop\n\nsub_0: assembly {\n        /* \"contracts/Sample-Jon.sol\":57:2179  contract JobPortal {... */\n      mstore(0x40, 0x80)\n      callvalue\n      dup1\n      iszero\n      tag_1\n      jumpi\n      0x00\n      dup1\n      revert\n    tag_1:\n      pop\n      jumpi(tag_2, lt(calldatasize, 0x04))\n      shr(0xe0, calldataload(0x00))\n      dup1\n      0x558e0a7b\n      gt\n      tag_12\n      jumpi\n      dup1\n      0x558e0a7b\n      eq\n      tag_7\n      jumpi\n      dup1\n      0x63de5323\n      eq\n      tag_8\n      jumpi\n      dup1\n      0x8798a47b\n      eq\n      tag_9\n      jumpi\n      dup1\n      0xbfc7a66e\n      eq\n      tag_10\n      jumpi\n      dup1\n      0xfa6b104a\n      eq\n      tag_11\n      jumpi\n      jump(tag_2)\n    tag_12:\n      dup1\n      0x180aedf3\n      eq\n      tag_3\n      jumpi\n      dup1\n      0x18f53993\n      eq\n      tag_4\n      jumpi\n      dup1\n      0x4c5d8a0f\n      eq\n      tag_5\n      jumpi\n      dup1\n      0x4cac35c6\n      eq\n      tag_6\n      jumpi\n    tag_2:\n      0x00\n      dup1\n      revert\n        /* \"contracts/Sample-Jon.sol\":516:551  mapping(uint256 => Job) public jobs */\n    tag_3:\n      tag_13\n      0x04\n      dup1\n      calldatasize\n      sub\n      dup2\n      add\n      swap1\n      tag_14\n      swap2\n      swap1\n      tag_15\n      jump\t// in\n    tag_14:\n      tag_16\n      jump\t// in\n    tag_13:\n      mload(0x40)\n      tag_17\n      swap7\n      swap6\n      swap5\n      swap4\n      swap3\n      swap2\n      swap1\n      tag_18\n      jump\t// in\n    tag_17:\n      mload(0x40)\n      dup1\n      swap2\n      sub\n      swap1\n      return\n        /* \"contracts/Sample-Jon.sol\":562:591  uint256 public applicantCount */\n    tag_4:\n      tag_19\n      tag_20\n      jump\t// in\n    tag_19:\n      mload(0x40)\n      tag_21\n      swap2\n      swap1\n      tag_22\n      jump\t// in\n    tag_21:\n      mload(0x40)\n      dup1\n      swap2\n      sub\n      swap1\n      return\n        /* \"contracts/Sample-Jon.sol\":597:620  uint256 public jobCount */\n    tag_5:\n      tag_23\n      tag_24\n      jump\t// in\n    tag_23:\n      mload(0x40)\n      tag_25\n      swap2\n      swap1\n      tag_22\n      jump\t// in\n    tag_25:\n      mload(0x40)\n      dup1\n      swap2\n      sub\n      swap1\n      return\n        /* \"contracts/Sample-Jon.sol\":1671:1928  function getJobDetails(uint256 _id) public view returns (uint256, string memory, string memory, uint256, address, uint256) {... */\n    tag_6:\n      tag_26\n      0x04\n      dup1\n      calldatasize\n      sub\n      dup2\n      add\n      swap1\n      tag_27\n      swap2\n      swap1\n      tag_15\n      jump\t// in\n    tag_27:\n      tag_28\n      jump\t// in\n    tag_26:\n      mload(0x40)\n      tag_29\n      swap7\n      swap6\n      swap5\n      swap4\n      swap3\n      swap2\n      swap1\n      tag_18\n      jump\t// in\n    tag_29:\n      mload(0x40)\n      dup1\n      swap2\n      sub\n      swap1\n      return\n        /* \"contracts/Sample-Jon.sol\":658:979  function addApplicant(string memory _name, string memory _laborHistory, string memory _skills, string memory _availability, string memory _otherDetails) public {... */\n    tag_7:\n      tag_30\n      0x04\n      dup1\n      calldatasize\n      sub\n      dup2\n      add\n      swap1\n      tag_31\n      swap2\n      swap1\n      tag_32\n      jump\t// in\n    tag_31:\n      tag_33\n      jump\t// in\n    tag_30:\n      stop\n        /* \"contracts/Sample-Jon.sol\":463:510  mapping(uint256 => Applicant) public applicants */\n    tag_8:\n      tag_34\n      0x04\n      dup1\n      calldatasize\n      sub\n      dup2\n      add\n      swap1\n      tag_35\n      swap2\n      swap1\n      tag_15\n      jump\t// in\n    tag_35:\n      tag_36\n      jump\t// in\n    tag_34:\n      mload(0x40)\n      tag_37\n      swap8\n      swap7\n      swap6\n      swap5\n      swap4\n      swap3\n      swap2\n      swap1\n      tag_38\n      jump\t// in\n    tag_37:\n      mload(0x40)\n      dup1\n      swap2\n      sub\n      swap1\n      return\n        /* \"contracts/Sample-Jon.sol\":1018:1390  function getApplicantDetails(uint256 _id) public view returns (uint256, string memory, string memory, string memory, string memory, string memory, uint256) {... */\n    tag_9:\n      tag_39\n      0x04\n      dup1\n      calldatasize\n      sub\n      dup2\n      add\n      swap1\n      tag_40\n      swap2\n      swap1\n      tag_15\n      jump\t// in\n    tag_40:\n      tag_41\n      jump\t// in\n    tag_39:\n      mload(0x40)\n      tag_42\n      swap8\n      swap7\n      swap6\n      swap5\n      swap4\n      swap3\n      swap2\n      swap1\n      tag_38\n      jump\t// in\n    tag_42:\n      mload(0x40)\n      dup1\n      swap2\n      sub\n      swap1\n      return\n        /* \"contracts/Sample-Jon.sol\":1972:2177  function applyForJob(uint256 _applicantId, uint256 _jobId) public {... */\n    tag_10:\n      tag_43\n      0x04\n      dup1\n      calldatasize\n      sub\n      dup2\n      add\n      swap1\n      tag_44\n      swap2\n      swap1\n      tag_45\n      jump\t// in\n    tag_44:\n      tag_46\n      jump\t// in\n    tag_43:\n      stop\n        /* \"contracts/Sample-Jon.sol\":1435:1638  function addJob(string memory _title, string memory _description, uint256 _salary) public {... */\n    tag_11:\n      tag_47\n      0x04\n      dup1\n      calldatasize\n      sub\n      dup2\n      add\n      swap1\n      tag_48\n      swap2\n      swap1\n      tag_49\n      jump\t// in\n    tag_48:\n      tag_50\n      jump\t// in\n    tag_47:\n      stop\n        /* \"contracts/Sample-Jon.sol\":516:551  mapping(uint256 => Job) public jobs */\n    tag_16:\n      mstore(0x20, 0x01)\n      dup1\n      0x00\n      mstore\n      keccak256(0x00, 0x40)\n      0x00\n      swap2\n      pop\n      swap1\n      pop\n      dup1\n      0x00\n      add\n      sload\n      swap1\n      dup1\n      0x01\n      add\n      dup1\n      sload\n      tag_51\n      swap1\n      tag_52\n      jump\t// in\n    tag_51:\n      dup1\n      0x1f\n      add\n      0x20\n      dup1\n      swap2\n      div\n      mul\n      0x20\n      add\n      mload(0x40)\n      swap1\n      dup2\n      add\n      0x40\n      mstore\n      dup1\n      swap3\n      swap2\n      swap1\n      dup2\n      dup2\n      mstore\n      0x20\n      add\n      dup3\n      dup1\n      sload\n      tag_53\n      swap1\n      tag_52\n      jump\t// in\n    tag_53:\n      dup1\n      iszero\n      tag_54\n      jumpi\n      dup1\n      0x1f\n      lt\n      tag_55\n      jumpi\n      0x0100\n      dup1\n      dup4\n      sload\n      div\n      mul\n      dup4\n      mstore\n      swap2\n      0x20\n      add\n      swap2\n      jump(tag_54)\n    tag_55:\n      dup3\n      add\n      swap2\n      swap1\n      0x00\n      mstore\n      keccak256(0x00, 0x20)\n      swap1\n    tag_56:\n      dup2\n      sload\n      dup2\n      mstore\n      swap1\n      0x01\n      add\n      swap1\n      0x20\n      add\n      dup1\n      dup4\n      gt\n      tag_56\n      jumpi\n      dup3\n      swap1\n      sub\n      0x1f\n      and\n      dup3\n      add\n      swap2\n    tag_54:\n      pop\n      pop\n      pop\n      pop\n      pop\n      swap1\n      dup1\n      0x02\n      add\n      dup1\n      sload\n      tag_57\n      swap1\n      tag_52\n      jump\t// in\n    tag_57:\n      dup1\n      0x1f\n      add\n      0x20\n      dup1\n      swap2\n      div\n      mul\n      0x20\n      add\n      mload(0x40)\n      swap1\n      dup2\n      add\n      0x40\n      mstore\n      dup1\n      swap3\n      swap2\n      swap1\n      dup2\n      dup2\n      mstore\n      0x20\n      add\n      dup3\n      dup1\n      sload\n      tag_58\n      swap1\n      tag_52\n      jump\t// in\n    tag_58:\n      dup1\n      iszero\n      tag_59\n      jumpi\n      dup1\n      0x1f\n      lt\n      tag_60\n      jumpi\n      0x0100\n      dup1\n      dup4\n      sload\n      div\n      mul\n      dup4\n      mstore\n      swap2\n      0x20\n      add\n      swap2\n      jump(tag_59)\n    tag_60:\n      dup3\n      add\n      swap2\n      swap1\n      0x00\n      mstore\n      keccak256(0x00, 0x20)\n      swap1\n    tag_61:\n      dup2\n      sload\n      dup2\n      mstore\n      swap1\n      0x01\n      add\n      swap1\n      0x20\n      add\n      dup1\n      dup4\n      gt\n      tag_61\n      jumpi\n      dup3\n      swap1\n      sub\n      0x1f\n      and\n      dup3\n      add\n      swap2\n    tag_59:\n      pop\n      pop\n      pop\n      pop\n      pop\n      swap1\n      dup1\n      0x03\n      add\n      sload\n      swap1\n      dup1\n      0x04\n      add\n      0x00\n      swap1\n      sload\n      swap1\n      0x0100\n      exp\n      swap1\n      div\n      0xffffffffffffffffffffffffffffffffffffffff\n      and\n      swap1\n      dup1\n      0x05\n      add\n      sload\n      swap1\n      pop\n      dup7\n      jump\t// out\n        /* \"contracts/Sample-Jon.sol\":562:591  uint256 public applicantCount */\n    tag_20:\n      sload(0x02)\n      dup2\n      jump\t// out\n        /* \"contracts/Sample-Jon.sol\":597:620  uint256 public jobCount */\n    tag_24:\n      sload(0x03)\n      dup2\n      jump\t// out\n        /* \"contracts/Sample-Jon.sol\":1671:1928  function getJobDetails(uint256 _id) public view returns (uint256, string memory, string memory, uint256, address, uint256) {... */\n    tag_28:\n        /* \"contracts/Sample-Jon.sol\":1728:1735  uint256 */\n      0x00\n        /* \"contracts/Sample-Jon.sol\":1737:1750  string memory */\n      0x60\n        /* \"contracts/Sample-Jon.sol\":1752:1765  string memory */\n      dup1\n        /* \"contracts/Sample-Jon.sol\":1767:1774  uint256 */\n      0x00\n        /* \"contracts/Sample-Jon.sol\":1776:1783  address */\n      dup1\n        /* \"contracts/Sample-Jon.sol\":1785:1792  uint256 */\n      0x00\n        /* \"contracts/Sample-Jon.sol\":1804:1818  Job memory job */\n      dup1\n        /* \"contracts/Sample-Jon.sol\":1821:1825  jobs */\n      0x01\n        /* \"contracts/Sample-Jon.sol\":1821:1830  jobs[_id] */\n      0x00\n        /* \"contracts/Sample-Jon.sol\":1826:1829  _id */\n      dup10\n        /* \"contracts/Sample-Jon.sol\":1821:1830  jobs[_id] */\n      dup2\n      mstore\n      0x20\n      add\n      swap1\n      dup2\n      mstore\n      0x20\n      add\n      0x00\n      keccak256\n        /* \"contracts/Sample-Jon.sol\":1804:1830  Job memory job = jobs[_id] */\n      mload(0x40)\n      dup1\n      0xc0\n      add\n      0x40\n      mstore\n      swap1\n      dup2\n      0x00\n      dup3\n      add\n      sload\n      dup2\n      mstore\n      0x20\n      add\n      0x01\n      dup3\n      add\n      dup1\n      sload\n      tag_63\n      swap1\n      tag_52\n      jump\t// in\n    tag_63:\n      dup1\n      0x1f\n      add\n      0x20\n      dup1\n      swap2\n      div\n      mul\n      0x20\n      add\n      mload(0x40)\n      swap1\n      dup2\n      add\n      0x40\n      mstore\n      dup1\n      swap3\n      swap2\n      swap1\n      dup2\n      dup2\n      mstore\n      0x20\n      add\n      dup3\n      dup1\n      sload\n      tag_64\n      swap1\n      tag_52\n      jump\t// in\n    tag_64:\n      dup1\n      iszero\n      tag_65\n      jumpi\n      dup1\n      0x1f\n      lt\n      tag_66\n      jumpi\n      0x0100\n      dup1\n      dup4\n      sload\n      div\n      mul\n      dup4\n      mstore\n      swap2\n      0x20\n      add\n      swap2\n      jump(tag_65)\n    tag_66:\n      dup3\n      add\n      swap2\n      swap1\n      0x00\n      mstore\n      keccak256(0x00, 0x20)\n      swap1\n    tag_67:\n      dup2\n      sload\n      dup2\n      mstore\n      swap1\n      0x01\n      add\n      swap1\n      0x20\n      add\n      dup1\n      dup4\n      gt\n      tag_67\n      jumpi\n      dup3\n      swap1\n      sub\n      0x1f\n      and\n      dup3\n      add\n      swap2\n    tag_65:\n      pop\n      pop\n      pop\n      pop\n      pop\n      dup2\n      mstore\n      0x20\n      add\n      0x02\n      dup3\n      add\n      dup1\n      sload\n      tag_68\n      swap1\n      tag_52\n      jump\t// in\n    tag_68:\n      dup1\n      0x1f\n      add\n      0x20\n      dup1\n      swap2\n      div\n      mul\n      0x20\n      add\n      mload(0x40)\n      swap1\n      dup2\n      add\n      0x40\n      mstore\n      dup1\n      swap3\n      swap2\n      swap1\n      dup2\n      dup2\n      mstore\n      0x20\n      add\n      dup3\n      dup1\n      sload\n      tag_69\n      swap1\n      tag_52\n      jump\t// in\n    tag_69:\n      dup1\n      iszero\n      tag_70\n      jumpi\n      dup1\n      0x1f\n      lt\n      tag_71\n      jumpi\n      0x0100\n      dup1\n      dup4\n      sload\n      div\n      mul\n      dup4\n      mstore\n      swap2\n      0x20\n      add\n      swap2\n      jump(tag_70)\n    tag_71:\n      dup3\n      add\n      swap2\n      swap1\n      0x00\n      mstore\n      keccak256(0x00, 0x20)\n      swap1\n    tag_72:\n      dup2\n      sload\n      dup2\n      mstore\n      swap1\n      0x01\n      add\n      swap1\n      0x20\n      add\n      dup1\n      dup4\n      gt\n      tag_72\n      jumpi\n      dup3\n      swap1\n      sub\n      0x1f\n      and\n      dup3\n      add\n      swap2\n    tag_70:\n      pop\n      pop\n      pop\n      pop\n      pop\n      dup2\n      mstore\n      0x20\n      add\n      0x03\n      dup3\n      add\n      sload\n      dup2\n      mstore\n      0x20\n      add\n      0x04\n      dup3\n      add\n      0x00\n      swap1\n      sload\n      swap1\n      0x0100\n      exp\n      swap1\n      div\n      0xffffffffffffffffffffffffffffffffffffffff\n      and\n      0xffffffffffffffffffffffffffffffffffffffff\n      and\n      0xffffffffffffffffffffffffffffffffffffffff\n      and\n      dup2\n      mstore\n      0x20\n      add\n      0x05\n      dup3\n      add\n      sload\n      dup2\n      mstore\n      pop\n      pop\n      swap1\n      pop\n        /* \"contracts/Sample-Jon.sol\":1848:1851  job */\n      dup1\n        /* \"contracts/Sample-Jon.sol\":1848:1854  job.id */\n      0x00\n      add\n      mload\n        /* \"contracts/Sample-Jon.sol\":1856:1859  job */\n      dup2\n        /* \"contracts/Sample-Jon.sol\":1856:1865  job.title */\n      0x20\n      add\n      mload\n        /* \"contracts/Sample-Jon.sol\":1867:1870  job */\n      dup3\n        /* \"contracts/Sample-Jon.sol\":1867:1882  job.description */\n      0x40\n      add\n      mload\n        /* \"contracts/Sample-Jon.sol\":1884:1887  job */\n      dup4\n        /* \"contracts/Sample-Jon.sol\":1884:1894  job.salary */\n      0x60\n      add\n      mload\n        /* \"contracts/Sample-Jon.sol\":1896:1899  job */\n      dup5\n        /* \"contracts/Sample-Jon.sol\":1896:1908  job.provider */\n      0x80\n      add\n      mload\n        /* \"contracts/Sample-Jon.sol\":1910:1913  job */\n      dup6\n        /* \"contracts/Sample-Jon.sol\":1910:1920  job.rating */\n      0xa0\n      add\n      mload\n        /* \"contracts/Sample-Jon.sol\":1840:1921  return (job.id, job.title, job.description, job.salary, job.provider, job.rating) */\n      swap7\n      pop\n      swap7\n      pop\n      swap7\n      pop\n      swap7\n      pop\n      swap7\n      pop\n      swap7\n      pop\n      pop\n        /* \"contracts/Sample-Jon.sol\":1671:1928  function getJobDetails(uint256 _id) public view returns (uint256, string memory, string memory, uint256, address, uint256) {... */\n      swap2\n      swap4\n      swap6\n      pop\n      swap2\n      swap4\n      swap6\n      jump\t// out\n        /* \"contracts/Sample-Jon.sol\":658:979  function addApplicant(string memory _name, string memory _laborHistory, string memory _skills, string memory _availability, string memory _otherDetails) public {... */\n    tag_33:\n        /* \"contracts/Sample-Jon.sol\":828:842  applicantCount */\n      0x02\n      0x00\n        /* \"contracts/Sample-Jon.sol\":828:844  applicantCount++ */\n      dup2\n      sload\n      dup1\n      swap3\n      swap2\n      swap1\n      tag_74\n      swap1\n      tag_75\n      jump\t// in\n    tag_74:\n      swap2\n      swap1\n      pop\n      sstore\n      pop\n        /* \"contracts/Sample-Jon.sol\":883:972  Applicant(applicantCount, _name, _laborHistory, _skills, _availability, _otherDetails, 0) */\n      mload(0x40)\n      dup1\n      0xe0\n      add\n      0x40\n      mstore\n      dup1\n        /* \"contracts/Sample-Jon.sol\":893:907  applicantCount */\n      sload(0x02)\n        /* \"contracts/Sample-Jon.sol\":883:972  Applicant(applicantCount, _name, _laborHistory, _skills, _availability, _otherDetails, 0) */\n      dup2\n      mstore\n      0x20\n      add\n        /* \"contracts/Sample-Jon.sol\":909:914  _name */\n      dup7\n        /* \"contracts/Sample-Jon.sol\":883:972  Applicant(applicantCount, _name, _laborHistory, _skills, _availability, _otherDetails, 0) */\n      dup2\n      mstore\n      0x20\n      add\n        /* \"contracts/Sample-Jon.sol\":916:929  _laborHistory */\n      dup6\n        /* \"contracts/Sample-Jon.sol\":883:972  Applicant(applicantCount, _name, _laborHistory, _skills, _availability, _otherDetails, 0) */\n      dup2\n      mstore\n      0x20\n      add\n        /* \"contracts/Sample-Jon.sol\":931:938  _skills */\n      dup5\n        /* \"contracts/Sample-Jon.sol\":883:972  Applicant(applicantCount, _name, _laborHistory, _skills, _availability, _otherDetails, 0) */\n      dup2\n      mstore\n      0x20\n      add\n        /* \"contracts/Sample-Jon.sol\":940:953  _availability */\n      dup4\n        /* \"contracts/Sample-Jon.sol\":883:972  Applicant(applicantCount, _name, _laborHistory, _skills, _availability, _otherDetails, 0) */\n      dup2\n      mstore\n      0x20\n      add\n        /* \"contracts/Sample-Jon.sol\":955:968  _otherDetails */\n      dup3\n        /* \"contracts/Sample-Jon.sol\":883:972  Applicant(applicantCount, _name, _laborHistory, _skills, _availability, _otherDetails, 0) */\n      dup2\n      mstore\n      0x20\n      add\n        /* \"contracts/Sample-Jon.sol\":970:971  0 */\n      0x00\n        /* \"contracts/Sample-Jon.sol\":883:972  Applicant(applicantCount, _name, _laborHistory, _skills, _availability, _otherDetails, 0) */\n      dup2\n      mstore\n      pop\n        /* \"contracts/Sample-Jon.sol\":854:864  applicants */\n      0x00\n        /* \"contracts/Sample-Jon.sol\":854:880  applicants[applicantCount] */\n      dup1\n        /* \"contracts/Sample-Jon.sol\":865:879  applicantCount */\n      sload(0x02)\n        /* \"contracts/Sample-Jon.sol\":854:880  applicants[applicantCount] */\n      dup2\n      mstore\n      0x20\n      add\n      swap1\n      dup2\n      mstore\n      0x20\n      add\n      0x00\n      keccak256\n        /* \"contracts/Sample-Jon.sol\":854:972  applicants[applicantCount] = Applicant(applicantCount, _name, _laborHistory, _skills, _availability, _otherDetails, 0) */\n      0x00\n      dup3\n      add\n      mload\n      dup2\n      0x00\n      add\n      sstore\n      0x20\n      dup3\n      add\n      mload\n      dup2\n      0x01\n      add\n      swap1\n      dup2\n      tag_76\n      swap2\n      swap1\n      tag_77\n      jump\t// in\n    tag_76:\n      pop\n      0x40\n      dup3\n      add\n      mload\n      dup2\n      0x02\n      add\n      swap1\n      dup2\n      tag_78\n      swap2\n      swap1\n      tag_77\n      jump\t// in\n    tag_78:\n      pop\n      0x60\n      dup3\n      add\n      mload\n      dup2\n      0x03\n      add\n      swap1\n      dup2\n      tag_79\n      swap2\n      swap1\n      tag_77\n      jump\t// in\n    tag_79:\n      pop\n      0x80\n      dup3\n      add\n      mload\n      dup2\n      0x04\n      add\n      swap1\n      dup2\n      tag_80\n      swap2\n      swap1\n      tag_77\n      jump\t// in\n    tag_80:\n      pop\n      0xa0\n      dup3\n      add\n      mload\n      dup2\n      0x05\n      add\n      swap1\n      dup2\n      tag_81\n      swap2\n      swap1\n      tag_77\n      jump\t// in\n    tag_81:\n      pop\n      0xc0\n      dup3\n      add\n      mload\n      dup2\n      0x06\n      add\n      sstore\n      swap1\n      pop\n      pop\n        /* \"contracts/Sample-Jon.sol\":658:979  function addApplicant(string memory _name, string memory _laborHistory, string memory _skills, string memory _availability, string memory _otherDetails) public {... */\n      pop\n      pop\n      pop\n      pop\n      pop\n      jump\t// out\n        /* \"contracts/Sample-Jon.sol\":463:510  mapping(uint256 => Applicant) public applicants */\n    tag_36:\n      mstore(0x20, 0x00)\n      dup1\n      0x00\n      mstore\n      keccak256(0x00, 0x40)\n      0x00\n      swap2\n      pop\n      swap1\n      pop\n      dup1\n      0x00\n      add\n      sload\n      swap1\n      dup1\n      0x01\n      add\n      dup1\n      sload\n      tag_82\n      swap1\n      tag_52\n      jump\t// in\n    tag_82:\n      dup1\n      0x1f\n      add\n      0x20\n      dup1\n      swap2\n      div\n      mul\n      0x20\n      add\n      mload(0x40)\n      swap1\n      dup2\n      add\n      0x40\n      mstore\n      dup1\n      swap3\n      swap2\n      swap1\n      dup2\n      dup2\n      mstore\n      0x20\n      add\n      dup3\n      dup1\n      sload\n      tag_83\n      swap1\n      tag_52\n      jump\t// in\n    tag_83:\n      dup1\n      iszero\n      tag_84\n      jumpi\n      dup1\n      0x1f\n      lt\n      tag_85\n      jumpi\n      0x0100\n      dup1\n      dup4\n      sload\n      div\n      mul\n      dup4\n      mstore\n      swap2\n      0x20\n      add\n      swap2\n      jump(tag_84)\n    tag_85:\n      dup3\n      add\n      swap2\n      swap1\n      0x00\n      mstore\n      keccak256(0x00, 0x20)\n      swap1\n    tag_86:\n      dup2\n      sload\n      dup2\n      mstore\n      swap1\n      0x01\n      add\n      swap1\n      0x20\n      add\n      dup1\n      dup4\n      gt\n      tag_86\n      jumpi\n      dup3\n      swap1\n      sub\n      0x1f\n      and\n      dup3\n      add\n      swap2\n    tag_84:\n      pop\n      pop\n      pop\n      pop\n      pop\n      swap1\n      dup1\n      0x02\n      add\n      dup1\n      sload\n      tag_87\n      swap1\n      tag_52\n      jump\t// in\n    tag_87:\n      dup1\n      0x1f\n      add\n      0x20\n      dup1\n      swap2\n      div\n      mul\n      0x20\n      add\n      mload(0x40)\n      swap1\n      dup2\n      add\n      0x40\n      mstore\n      dup1\n      swap3\n      swap2\n      swap1\n      dup2\n      dup2\n      mstore\n      0x20\n      add\n      dup3\n      dup1\n      sload\n      tag_88\n      swap1\n      tag_52\n      jump\t// in\n    tag_88:\n      dup1\n      iszero\n      tag_89\n      jumpi\n      dup1\n      0x1f\n      lt\n      tag_90\n      jumpi\n      0x0100\n      dup1\n      dup4\n      sload\n      div\n      mul\n      dup4\n      mstore\n      swap2\n      0x20\n      add\n      swap2\n      jump(tag_89)\n    tag_90:\n      dup3\n      add\n      swap2\n      swap1\n      0x00\n      mstore\n      keccak256(0x00, 0x20)\n      swap1\n    tag_91:\n      dup2\n      sload\n      dup2\n      mstore\n      swap1\n      0x01\n      add\n      swap1\n      0x20\n      add\n      dup1\n      dup4\n      gt\n      tag_91\n      jumpi\n      dup3\n      swap1\n      sub\n      0x1f\n      and\n      dup3\n      add\n      swap2\n    tag_89:\n      pop\n      pop\n      pop\n      pop\n      pop\n      swap1\n      dup1\n      0x03\n      add\n      dup1\n      sload\n      tag_92\n      swap1\n      tag_52\n      jump\t// in\n    tag_92:\n      dup1\n      0x1f\n      add\n      0x20\n      dup1\n      swap2\n      div\n      mul\n      0x20\n      add\n      mload(0x40)\n      swap1\n      dup2\n      add\n      0x40\n      mstore\n      dup1\n      swap3\n      swap2\n      swap1\n      dup2\n      dup2\n      mstore\n      0x20\n      add\n      dup3\n      dup1\n      sload\n      tag_93\n      swap1\n      tag_52\n      jump\t// in\n    tag_93:\n      dup1\n      iszero\n      tag_94\n      jumpi\n      dup1\n      0x1f\n      lt\n      tag_95\n      jumpi\n      0x0100\n      dup1\n      dup4\n      sload\n      div\n      mul\n      dup4\n      mstore\n      swap2\n      0x20\n      add\n      swap2\n      jump(tag_94)\n    tag_95:\n      dup3\n      add\n      swap2\n      swap1\n      0x00\n      mstore\n      keccak256(0x00, 0x20)\n      swap1\n    tag_96:\n      dup2\n      sload\n      dup2\n      mstore\n      swap1\n      0x01\n      add\n      swap1\n      0x20\n      add\n      dup1\n      dup4\n      gt\n      tag_96\n      jumpi\n      dup3\n      swap1\n      sub\n      0x1f\n      and\n      dup3\n      add\n      swap2\n    tag_94:\n      pop\n      pop\n      pop\n      pop\n      pop\n      swap1\n      dup1\n      0x04\n      add\n      dup1\n      sload\n      tag_97\n      swap1\n      tag_52\n      jump\t// in\n    tag_97:\n      dup1\n      0x1f\n      add\n      0x20\n      dup1\n      swap2\n      div\n      mul\n      0x20\n      add\n      mload(0x40)\n      swap1\n      dup2\n      add\n      0x40\n      mstore\n      dup1\n      swap3\n      swap2\n      swap1\n      dup2\n      dup2\n      mstore\n      0x20\n      add\n      dup3\n      dup1\n      sload\n      tag_98\n      swap1\n      tag_52\n      jump\t// in\n    tag_98:\n      dup1\n      iszero\n      tag_99\n      jumpi\n      dup1\n      0x1f\n      lt\n      tag_100\n      jumpi\n      0x0100\n      dup1\n      dup4\n      sload\n      div\n      mul\n      dup4\n      mstore\n      swap2\n      0x20\n      add\n      swap2\n      jump(tag_99)\n    tag_100:\n      dup3\n      add\n      swap2\n      swap1\n      0x00\n      mstore\n      keccak256(0x00, 0x20)\n      swap1\n    tag_101:\n      dup2\n      sload\n      dup2\n      mstore\n      swap1\n      0x01\n      add\n      swap1\n      0x20\n      add\n      dup1\n      dup4\n      gt\n      tag_101\n      jumpi\n      dup3\n      swap1\n      sub\n      0x1f\n      and\n      dup3\n      add\n      swap2\n    tag_99:\n      pop\n      pop\n      pop\n      pop\n      pop\n      swap1\n      dup1\n      0x05\n      add\n      dup1\n      sload\n      tag_102\n      swap1\n      tag_52\n      jump\t// in\n    tag_102:\n      dup1\n      0x1f\n      add\n      0x20\n      dup1\n      swap2\n      div\n      mul\n      0x20\n      add\n      mload(0x40)\n      swap1\n      dup2\n      add\n      0x40\n      mstore\n      dup1\n      swap3\n      swap2\n      swap1\n      dup2\n      dup2\n      mstore\n      0x20\n      add\n      dup3\n      dup1\n      sload\n      tag_103\n      swap1\n      tag_52\n      jump\t// in\n    tag_103:\n      dup1\n      iszero\n      tag_104\n      jumpi\n      dup1\n      0x1f\n      lt\n      tag_105\n      jumpi\n      0x0100\n      dup1\n      dup4\n      sload\n      div\n      mul\n      dup4\n      mstore\n      swap2\n      0x20\n      add\n      swap2\n      jump(tag_104)\n    tag_105:\n      dup3\n      add\n      swap2\n      swap1\n      0x00\n      mstore\n      keccak256(0x00, 0x20)\n      swap1\n    tag_106:\n      dup2\n      sload\n      dup2\n      mstore\n      swap1\n      0x01\n      add\n      swap1\n      0x20\n      add\n      dup1\n      dup4\n      gt\n      tag_106\n      jumpi\n      dup3\n      swap1\n      sub\n      0x1f\n      and\n      dup3\n      add\n      swap2\n    tag_104:\n      pop\n      pop\n      pop\n      pop\n      pop\n      swap1\n      dup1\n      0x06\n      add\n      sload\n      swap1\n      pop\n      dup8\n      jump\t// out\n        /* \"contracts/Sample-Jon.sol\":1018:1390  function getApplicantDetails(uint256 _id) public view returns (uint256, string memory, string memory, string memory, string memory, string memory, uint256) {... */\n    tag_41:\n        /* \"contracts/Sample-Jon.sol\":1081:1088  uint256 */\n      0x00\n        /* \"contracts/Sample-Jon.sol\":1090:1103  string memory */\n      0x60\n        /* \"contracts/Sample-Jon.sol\":1105:1118  string memory */\n      dup1\n        /* \"contracts/Sample-Jon.sol\":1120:1133  string memory */\n      0x60\n        /* \"contracts/Sample-Jon.sol\":1135:1148  string memory */\n      dup1\n        /* \"contracts/Sample-Jon.sol\":1150:1163  string memory */\n      0x60\n        /* \"contracts/Sample-Jon.sol\":1165:1172  uint256 */\n      0x00\n        /* \"contracts/Sample-Jon.sol\":1184:1210  Applicant memory applicant */\n      dup1\n        /* \"contracts/Sample-Jon.sol\":1213:1223  applicants */\n      0x00\n        /* \"contracts/Sample-Jon.sol\":1213:1228  applicants[_id] */\n      dup1\n        /* \"contracts/Sample-Jon.sol\":1224:1227  _id */\n      dup11\n        /* \"contracts/Sample-Jon.sol\":1213:1228  applicants[_id] */\n      dup2\n      mstore\n      0x20\n      add\n      swap1\n      dup2\n      mstore\n      0x20\n      add\n      0x00\n      keccak256\n        /* \"contracts/Sample-Jon.sol\":1184:1228  Applicant memory applicant = applicants[_id] */\n      mload(0x40)\n      dup1\n      0xe0\n      add\n      0x40\n      mstore\n      swap1\n      dup2\n      0x00\n      dup3\n      add\n      sload\n      dup2\n      mstore\n      0x20\n      add\n      0x01\n      dup3\n      add\n      dup1\n      sload\n      tag_108\n      swap1\n      tag_52\n      jump\t// in\n    tag_108:\n      dup1\n      0x1f\n      add\n      0x20\n      dup1\n      swap2\n      div\n      mul\n      0x20\n      add\n      mload(0x40)\n      swap1\n      dup2\n      add\n      0x40\n      mstore\n      dup1\n      swap3\n      swap2\n      swap1\n      dup2\n      dup2\n      mstore\n      0x20\n      add\n      dup3\n      dup1\n      sload\n      tag_109\n      swap1\n      tag_52\n      jump\t// in\n    tag_109:\n      dup1\n      iszero\n      tag_110\n      jumpi\n      dup1\n      0x1f\n      lt\n      tag_111\n      jumpi\n      0x0100\n      dup1\n      dup4\n      sload\n      div\n      mul\n      dup4\n      mstore\n      swap2\n      0x20\n      add\n      swap2\n      jump(tag_110)\n    tag_111:\n      dup3\n      add\n      swap2\n      swap1\n      0x00\n      mstore\n      keccak256(0x00, 0x20)\n      swap1\n    tag_112:\n      dup2\n      sload\n      dup2\n      mstore\n      swap1\n      0x01\n      add\n      swap1\n      0x20\n      add\n      dup1\n      dup4\n      gt\n      tag_112\n      jumpi\n      dup3\n      swap1\n      sub\n      0x1f\n      and\n      dup3\n      add\n      swap2\n    tag_110:\n      pop\n      pop\n      pop\n      pop\n      pop\n      dup2\n      mstore\n      0x20\n      add\n      0x02\n      dup3\n      add\n      dup1\n      sload\n      tag_113\n      swap1\n      tag_52\n      jump\t// in\n    tag_113:\n      dup1\n      0x1f\n      add\n      0x20\n      dup1\n      swap2\n      div\n      mul\n      0x20\n      add\n      mload(0x40)\n      swap1\n      dup2\n      add\n      0x40\n      mstore\n      dup1\n      swap3\n      swap2\n      swap1\n      dup2\n      dup2\n      mstore\n      0x20\n      add\n      dup3\n      dup1\n      sload\n      tag_114\n      swap1\n      tag_52\n      jump\t// in\n    tag_114:\n      dup1\n      iszero\n      tag_115\n      jumpi\n      dup1\n      0x1f\n      lt\n      tag_116\n      jumpi\n      0x0100\n      dup1\n      dup4\n      sload\n      div\n      mul\n      dup4\n      mstore\n      swap2\n      0x20\n      add\n      swap2\n      jump(tag_115)\n    tag_116:\n      dup3\n      add\n      swap2\n      swap1\n      0x00\n      mstore\n      keccak256(0x00, 0x20)\n      swap1\n    tag_117:\n      dup2\n      sload\n      dup2\n      mstore\n      swap1\n      0x01\n      add\n      swap1\n      0x20\n      add\n      dup1\n      dup4\n      gt\n      tag_117\n      jumpi\n      dup3\n      swap1\n      sub\n      0x1f\n      and\n      dup3\n      add\n      swap2\n    tag_115:\n      pop\n      pop\n      pop\n      pop\n      pop\n      dup2\n      mstore\n      0x20\n      add\n      0x03\n      dup3\n      add\n      dup1\n      sload\n      tag_118\n      swap1\n      tag_52\n      jump\t// in\n    tag_118:\n      dup1\n      0x1f\n      add\n      0x20\n      dup1\n      swap2\n      div\n      mul\n      0x20\n      add\n      mload(0x40)\n      swap1\n      dup2\n      add\n      0x40\n      mstore\n      dup1\n      swap3\n      swap2\n      swap1\n      dup2\n      dup2\n      mstore\n      0x20\n      add\n      dup3\n      dup1\n      sload\n      tag_119\n      swap1\n      tag_52\n      jump\t// in\n    tag_119:\n      dup1\n      iszero\n      tag_120\n      jumpi\n      dup1\n      0x1f\n      lt\n      tag_121\n      jumpi\n      0x0100\n      dup1\n      dup4\n      sload\n      div\n      mul\n      dup4\n      mstore\n      swap2\n      0x20\n      add\n      swap2\n      jump(tag_120)\n    tag_121:\n      dup3\n      add\n      swap2\n      swap1\n      0x00\n      mstore\n      keccak256(0x00, 0x20)\n      swap1\n    tag_122:\n      dup2\n      sload\n      dup2\n      mstore\n      swap1\n      0x01\n      add\n      swap1\n      0x20\n      add\n      dup1\n      dup4\n      gt\n      tag_122\n      jumpi\n      dup3\n      swap1\n      sub\n      0x1f\n      and\n      dup3\n      add\n      swap2\n    tag_120:\n      pop\n      pop\n      pop\n      pop\n      pop\n      dup2\n      mstore\n      0x20\n      add\n      0x04\n      dup3\n      add\n      dup1\n      sload\n      tag_123\n      swap1\n      tag_52\n      jump\t// in\n    tag_123:\n      dup1\n      0x1f\n      add\n      0x20\n      dup1\n      swap2\n      div\n      mul\n      0x20\n      add\n      mload(0x40)\n      swap1\n      dup2\n      add\n      0x40\n      mstore\n      dup1\n      swap3\n      swap2\n      swap1\n      dup2\n      dup2\n      mstore\n      0x20\n      add\n      dup3\n      dup1\n      sload\n      tag_124\n      swap1\n      tag_52\n      jump\t// in\n    tag_124:\n      dup1\n      iszero\n      tag_125\n      jumpi\n      dup1\n      0x1f\n      lt\n      tag_126\n      jumpi\n      0x0100\n      dup1\n      dup4\n      sload\n      div\n      mul\n      dup4\n      mstore\n      swap2\n      0x20\n      add\n      swap2\n      jump(tag_125)\n    tag_126:\n      dup3\n      add\n      swap2\n      swap1\n      0x00\n      mstore\n      keccak256(0x00, 0x20)\n      swap1\n    tag_127:\n      dup2\n      sload\n      dup2\n      mstore\n      swap1\n      0x01\n      add\n      swap1\n      0x20\n      add\n      dup1\n      dup4\n      gt\n      tag_127\n      jumpi\n      dup3\n      swap1\n      sub\n      0x1f\n      and\n      dup3\n      add\n      swap2\n    tag_125:\n      pop\n      pop\n      pop\n      pop\n      pop\n      dup2\n      mstore\n      0x20\n      add\n      0x05\n      dup3\n      add\n      dup1\n      sload\n      tag_128\n      swap1\n      tag_52\n      jump\t// in\n    tag_128:\n      dup1\n      0x1f\n      add\n      0x20\n      dup1\n      swap2\n      div\n      mul\n      0x20\n      add\n      mload(0x40)\n      swap1\n      dup2\n      add\n      0x40\n      mstore\n      dup1\n      swap3\n      swap2\n      swap1\n      dup2\n      dup2\n      mstore\n      0x20\n      add\n      dup3\n      dup1\n      sload\n      tag_129\n      swap1\n      tag_52\n      jump\t// in\n    tag_129:\n      dup1\n      iszero\n      tag_130\n      jumpi\n      dup1\n      0x1f\n      lt\n      tag_131\n      jumpi\n      0x0100\n      dup1\n      dup4\n      sload\n      div\n      mul\n      dup4\n      mstore\n      swap2\n      0x20\n      add\n      swap2\n      jump(tag_130)\n    tag_131:\n      dup3\n      add\n      swap2\n      swap1\n      0x00\n      mstore\n      keccak256(0x00, 0x20)\n      swap1\n    tag_132:\n      dup2\n      sload\n      dup2\n      mstore\n      swap1\n      0x01\n      add\n      swap1\n      0x20\n      add\n      dup1\n      dup4\n      gt\n      tag_132\n      jumpi\n      dup3\n      swap1\n      sub\n      0x1f\n      and\n      dup3\n      add\n      swap2\n    tag_130:\n      pop\n      pop\n      pop\n      pop\n      pop\n      dup2\n      mstore\n      0x20\n      add\n      0x06\n      dup3\n      add\n      sload\n      dup2\n      mstore\n      pop\n      pop\n      swap1\n      pop\n        /* \"contracts/Sample-Jon.sol\":1246:1255  applicant */\n      dup1\n        /* \"contracts/Sample-Jon.sol\":1246:1258  applicant.id */\n      0x00\n      add\n      mload\n        /* \"contracts/Sample-Jon.sol\":1260:1269  applicant */\n      dup2\n        /* \"contracts/Sample-Jon.sol\":1260:1274  applicant.name */\n      0x20\n      add\n      mload\n        /* \"contracts/Sample-Jon.sol\":1276:1285  applicant */\n      dup3\n        /* \"contracts/Sample-Jon.sol\":1276:1298  applicant.laborHistory */\n      0x40\n      add\n      mload\n        /* \"contracts/Sample-Jon.sol\":1300:1309  applicant */\n      dup4\n        /* \"contracts/Sample-Jon.sol\":1300:1316  applicant.skills */\n      0x60\n      add\n      mload\n        /* \"contracts/Sample-Jon.sol\":1318:1327  applicant */\n      dup5\n        /* \"contracts/Sample-Jon.sol\":1318:1340  applicant.availability */\n      0x80\n      add\n      mload\n        /* \"contracts/Sample-Jon.sol\":1342:1351  applicant */\n      dup6\n        /* \"contracts/Sample-Jon.sol\":1342:1364  applicant.otherDetails */\n      0xa0\n      add\n      mload\n        /* \"contracts/Sample-Jon.sol\":1366:1375  applicant */\n      dup7\n        /* \"contracts/Sample-Jon.sol\":1366:1382  applicant.rating */\n      0xc0\n      add\n      mload\n        /* \"contracts/Sample-Jon.sol\":1238:1383  return (applicant.id, applicant.name, applicant.laborHistory, applicant.skills, applicant.availability, applicant.otherDetails, applicant.rating) */\n      swap8\n      pop\n      swap8\n      pop\n      swap8\n      pop\n      swap8\n      pop\n      swap8\n      pop\n      swap8\n      pop\n      swap8\n      pop\n      pop\n        /* \"contracts/Sample-Jon.sol\":1018:1390  function getApplicantDetails(uint256 _id) public view returns (uint256, string memory, string memory, string memory, string memory, string memory, uint256) {... */\n      swap2\n      swap4\n      swap6\n      swap8\n      swap1\n      swap3\n      swap5\n      swap7\n      pop\n      jump\t// out\n        /* \"contracts/Sample-Jon.sol\":1972:2177  function applyForJob(uint256 _applicantId, uint256 _jobId) public {... */\n    tag_46:\n        /* \"contracts/Sample-Jon.sol\":2083:2084  1 */\n      0x01\n        /* \"contracts/Sample-Jon.sol\":2048:2058  applicants */\n      0x00\n        /* \"contracts/Sample-Jon.sol\":2048:2072  applicants[_applicantId] */\n      dup1\n        /* \"contracts/Sample-Jon.sol\":2059:2071  _applicantId */\n      dup5\n        /* \"contracts/Sample-Jon.sol\":2048:2072  applicants[_applicantId] */\n      dup2\n      mstore\n      0x20\n      add\n      swap1\n      dup2\n      mstore\n      0x20\n      add\n      0x00\n      keccak256\n        /* \"contracts/Sample-Jon.sol\":2048:2079  applicants[_applicantId].rating */\n      0x06\n      add\n      0x00\n        /* \"contracts/Sample-Jon.sol\":2048:2084  applicants[_applicantId].rating += 1 */\n      dup3\n      dup3\n      sload\n      tag_134\n      swap2\n      swap1\n      tag_135\n      jump\t// in\n    tag_134:\n      swap3\n      pop\n      pop\n      dup2\n      swap1\n      sstore\n      pop\n        /* \"contracts/Sample-Jon.sol\":2146:2147  1 */\n      0x01\n        /* \"contracts/Sample-Jon.sol\":2123:2127  jobs */\n      dup1\n        /* \"contracts/Sample-Jon.sol\":2123:2135  jobs[_jobId] */\n      0x00\n        /* \"contracts/Sample-Jon.sol\":2128:2134  _jobId */\n      dup4\n        /* \"contracts/Sample-Jon.sol\":2123:2135  jobs[_jobId] */\n      dup2\n      mstore\n      0x20\n      add\n      swap1\n      dup2\n      mstore\n      0x20\n      add\n      0x00\n      keccak256\n        /* \"contracts/Sample-Jon.sol\":2123:2142  jobs[_jobId].rating */\n      0x05\n      add\n      0x00\n        /* \"contracts/Sample-Jon.sol\":2123:2147  jobs[_jobId].rating += 1 */\n      dup3\n      dup3\n      sload\n      tag_136\n      swap2\n      swap1\n      tag_135\n      jump\t// in\n    tag_136:\n      swap3\n      pop\n      pop\n      dup2\n      swap1\n      sstore\n      pop\n        /* \"contracts/Sample-Jon.sol\":1972:2177  function applyForJob(uint256 _applicantId, uint256 _jobId) public {... */\n      pop\n      pop\n      jump\t// out\n        /* \"contracts/Sample-Jon.sol\":1435:1638  function addJob(string memory _title, string memory _description, uint256 _salary) public {... */\n    tag_50:\n        /* \"contracts/Sample-Jon.sol\":1535:1543  jobCount */\n      0x03\n      0x00\n        /* \"contracts/Sample-Jon.sol\":1535:1545  jobCount++ */\n      dup2\n      sload\n      dup1\n      swap3\n      swap2\n      swap1\n      tag_138\n      swap1\n      tag_75\n      jump\t// in\n    tag_138:\n      swap2\n      swap1\n      pop\n      sstore\n      pop\n        /* \"contracts/Sample-Jon.sol\":1572:1631  Job(jobCount, _title, _description, _salary, msg.sender, 0) */\n      mload(0x40)\n      dup1\n      0xc0\n      add\n      0x40\n      mstore\n      dup1\n        /* \"contracts/Sample-Jon.sol\":1576:1584  jobCount */\n      sload(0x03)\n        /* \"contracts/Sample-Jon.sol\":1572:1631  Job(jobCount, _title, _description, _salary, msg.sender, 0) */\n      dup2\n      mstore\n      0x20\n      add\n        /* \"contracts/Sample-Jon.sol\":1586:1592  _title */\n      dup5\n        /* \"contracts/Sample-Jon.sol\":1572:1631  Job(jobCount, _title, _description, _salary, msg.sender, 0) */\n      dup2\n      mstore\n      0x20\n      add\n        /* \"contracts/Sample-Jon.sol\":1594:1606  _description */\n      dup4\n        /* \"contracts/Sample-Jon.sol\":1572:1631  Job(jobCount, _title, _description, _salary, msg.sender, 0) */\n      dup2\n      mstore\n      0x20\n      add\n        /* \"contracts/Sample-Jon.sol\":1608:1615  _salary */\n      dup3\n        /* \"contracts/Sample-Jon.sol\":1572:1631  Job(jobCount, _title, _description, _salary, msg.sender, 0) */\n      dup2\n      mstore\n      0x20\n      add\n        /* \"contracts/Sample-Jon.sol\":1617:1627  msg.sender */\n      caller\n        /* \"contracts/Sample-Jon.sol\":1572:1631  Job(jobCount, _title, _description, _salary, msg.sender, 0) */\n      0xffffffffffffffffffffffffffffffffffffffff\n      and\n      dup2\n      mstore\n      0x20\n      add\n        /* \"contracts/Sample-Jon.sol\":1629:1630  0 */\n      0x00\n        /* \"contracts/Sample-Jon.sol\":1572:1631  Job(jobCount, _title, _description, _salary, msg.sender, 0) */\n      dup2\n      mstore\n      pop\n        /* \"contracts/Sample-Jon.sol\":1555:1559  jobs */\n      0x01\n        /* \"contracts/Sample-Jon.sol\":1555:1569  jobs[jobCount] */\n      0x00\n        /* \"contracts/Sample-Jon.sol\":1560:1568  jobCount */\n      sload(0x03)\n        /* \"contracts/Sample-Jon.sol\":1555:1569  jobs[jobCount] */\n      dup2\n      mstore\n      0x20\n      add\n      swap1\n      dup2\n      mstore\n      0x20\n      add\n      0x00\n      keccak256\n        /* \"contracts/Sample-Jon.sol\":1555:1631  jobs[jobCount] = Job(jobCount, _title, _description, _salary, msg.sender, 0) */\n      0x00\n      dup3\n      add\n      mload\n      dup2\n      0x00\n      add\n      sstore\n      0x20\n      dup3\n      add\n      mload\n      dup2\n      0x01\n      add\n      swap1\n      dup2\n      tag_139\n      swap2\n      swap1\n      tag_77\n      jump\t// in\n    tag_139:\n      pop\n      0x40\n      dup3\n      add\n      mload\n      dup2\n      0x02\n      add\n      swap1\n      dup2\n      tag_140\n      swap2\n      swap1\n      tag_77\n      jump\t// in\n    tag_140:\n      pop\n      0x60\n      dup3\n      add\n      mload\n      dup2\n      0x03\n      add\n      sstore\n      0x80\n      dup3\n      add\n      mload\n      dup2\n      0x04\n      add\n      exp(0x0100, 0x00)\n      dup2\n      sload\n      dup2\n      0xffffffffffffffffffffffffffffffffffffffff\n      mul\n      not\n      and\n      swap1\n      dup4\n      0xffffffffffffffffffffffffffffffffffffffff\n      and\n      mul\n      or\n      swap1\n      sstore\n      pop\n      0xa0\n      dup3\n      add\n      mload\n      dup2\n      0x05\n      add\n      sstore\n      swap1\n      pop\n      pop\n        /* \"contracts/Sample-Jon.sol\":1435:1638  function addJob(string memory _title, string memory _description, uint256 _salary) public {... */\n      pop\n      pop\n      pop\n      jump\t// out\n        /* \"#utility.yul\":7:82   */\n    tag_141:\n        /* \"#utility.yul\":40:46   */\n      0x00\n        /* \"#utility.yul\":73:75   */\n      0x40\n        /* \"#utility.yul\":67:76   */\n      mload\n        /* \"#utility.yul\":57:76   */\n      swap1\n      pop\n        /* \"#utility.yul\":7:82   */\n      swap1\n      jump\t// out\n        /* \"#utility.yul\":88:205   */\n    tag_142:\n        /* \"#utility.yul\":197:198   */\n      0x00\n        /* \"#utility.yul\":194:195   */\n      dup1\n        /* \"#utility.yul\":187:199   */\n      revert\n        /* \"#utility.yul\":211:328   */\n    tag_143:\n        /* \"#utility.yul\":320:321   */\n      0x00\n        /* \"#utility.yul\":317:318   */\n      dup1\n        /* \"#utility.yul\":310:322   */\n      revert\n        /* \"#utility.yul\":334:411   */\n    tag_144:\n        /* \"#utility.yul\":371:378   */\n      0x00\n        /* \"#utility.yul\":400:405   */\n      dup2\n        /* \"#utility.yul\":389:405   */\n      swap1\n      pop\n        /* \"#utility.yul\":334:411   */\n      swap2\n      swap1\n      pop\n      jump\t// out\n        /* \"#utility.yul\":417:539   */\n    tag_145:\n        /* \"#utility.yul\":490:514   */\n      tag_188\n        /* \"#utility.yul\":508:513   */\n      dup2\n        /* \"#utility.yul\":490:514   */\n      tag_144\n      jump\t// in\n    tag_188:\n        /* \"#utility.yul\":483:488   */\n      dup2\n        /* \"#utility.yul\":480:515   */\n      eq\n        /* \"#utility.yul\":470:533   */\n      tag_189\n      jumpi\n        /* \"#utility.yul\":529:530   */\n      0x00\n        /* \"#utility.yul\":526:527   */\n      dup1\n        /* \"#utility.yul\":519:531   */\n      revert\n        /* \"#utility.yul\":470:533   */\n    tag_189:\n        /* \"#utility.yul\":417:539   */\n      pop\n      jump\t// out\n        /* \"#utility.yul\":545:684   */\n    tag_146:\n        /* \"#utility.yul\":591:596   */\n      0x00\n        /* \"#utility.yul\":629:635   */\n      dup2\n        /* \"#utility.yul\":616:636   */\n      calldataload\n        /* \"#utility.yul\":607:636   */\n      swap1\n      pop\n        /* \"#utility.yul\":645:678   */\n      tag_191\n        /* \"#utility.yul\":672:677   */\n      dup2\n        /* \"#utility.yul\":645:678   */\n      tag_145\n      jump\t// in\n    tag_191:\n        /* \"#utility.yul\":545:684   */\n      swap3\n      swap2\n      pop\n      pop\n      jump\t// out\n        /* \"#utility.yul\":690:1019   */\n    tag_15:\n        /* \"#utility.yul\":749:755   */\n      0x00\n        /* \"#utility.yul\":798:800   */\n      0x20\n        /* \"#utility.yul\":786:795   */\n      dup3\n        /* \"#utility.yul\":777:784   */\n      dup5\n        /* \"#utility.yul\":773:796   */\n      sub\n        /* \"#utility.yul\":769:801   */\n      slt\n        /* \"#utility.yul\":766:885   */\n      iszero\n      tag_193\n      jumpi\n        /* \"#utility.yul\":804:883   */\n      tag_194\n      tag_142\n      jump\t// in\n    tag_194:\n        /* \"#utility.yul\":766:885   */\n    tag_193:\n        /* \"#utility.yul\":924:925   */\n      0x00\n        /* \"#utility.yul\":949:1002   */\n      tag_195\n        /* \"#utility.yul\":994:1001   */\n      dup5\n        /* \"#utility.yul\":985:991   */\n      dup3\n        /* \"#utility.yul\":974:983   */\n      dup6\n        /* \"#utility.yul\":970:992   */\n      add\n        /* \"#utility.yul\":949:1002   */\n      tag_146\n      jump\t// in\n    tag_195:\n        /* \"#utility.yul\":939:1002   */\n      swap2\n      pop\n        /* \"#utility.yul\":895:1012   */\n      pop\n        /* \"#utility.yul\":690:1019   */\n      swap3\n      swap2\n      pop\n      pop\n      jump\t// out\n        /* \"#utility.yul\":1025:1143   */\n    tag_147:\n        /* \"#utility.yul\":1112:1136   */\n      tag_197\n        /* \"#utility.yul\":1130:1135   */\n      dup2\n        /* \"#utility.yul\":1112:1136   */\n      tag_144\n      jump\t// in\n    tag_197:\n        /* \"#utility.yul\":1107:1110   */\n      dup3\n        /* \"#utility.yul\":1100:1137   */\n      mstore\n        /* \"#utility.yul\":1025:1143   */\n      pop\n      pop\n      jump\t// out\n        /* \"#utility.yul\":1149:1248   */\n    tag_148:\n        /* \"#utility.yul\":1201:1207   */\n      0x00\n        /* \"#utility.yul\":1235:1240   */\n      dup2\n        /* \"#utility.yul\":1229:1241   */\n      mload\n        /* \"#utility.yul\":1219:1241   */\n      swap1\n      pop\n        /* \"#utility.yul\":1149:1248   */\n      swap2\n      swap1\n      pop\n      jump\t// out\n        /* \"#utility.yul\":1254:1423   */\n    tag_149:\n        /* \"#utility.yul\":1338:1349   */\n      0x00\n        /* \"#utility.yul\":1372:1378   */\n      dup3\n        /* \"#utility.yul\":1367:1370   */\n      dup3\n        /* \"#utility.yul\":1360:1379   */\n      mstore\n        /* \"#utility.yul\":1412:1416   */\n      0x20\n        /* \"#utility.yul\":1407:1410   */\n      dup3\n        /* \"#utility.yul\":1403:1417   */\n      add\n        /* \"#utility.yul\":1388:1417   */\n      swap1\n      pop\n        /* \"#utility.yul\":1254:1423   */\n      swap3\n      swap2\n      pop\n      pop\n      jump\t// out\n        /* \"#utility.yul\":1429:1675   */\n    tag_150:\n        /* \"#utility.yul\":1510:1511   */\n      0x00\n        /* \"#utility.yul\":1520:1633   */\n    tag_201:\n        /* \"#utility.yul\":1534:1540   */\n      dup4\n        /* \"#utility.yul\":1531:1532   */\n      dup2\n        /* \"#utility.yul\":1528:1541   */\n      lt\n        /* \"#utility.yul\":1520:1633   */\n      iszero\n      tag_203\n      jumpi\n        /* \"#utility.yul\":1619:1620   */\n      dup1\n        /* \"#utility.yul\":1614:1617   */\n      dup3\n        /* \"#utility.yul\":1610:1621   */\n      add\n        /* \"#utility.yul\":1604:1622   */\n      mload\n        /* \"#utility.yul\":1600:1601   */\n      dup2\n        /* \"#utility.yul\":1595:1598   */\n      dup5\n        /* \"#utility.yul\":1591:1602   */\n      add\n        /* \"#utility.yul\":1584:1623   */\n      mstore\n        /* \"#utility.yul\":1556:1558   */\n      0x20\n        /* \"#utility.yul\":1553:1554   */\n      dup2\n        /* \"#utility.yul\":1549:1559   */\n      add\n        /* \"#utility.yul\":1544:1559   */\n      swap1\n      pop\n        /* \"#utility.yul\":1520:1633   */\n      jump(tag_201)\n    tag_203:\n        /* \"#utility.yul\":1667:1668   */\n      0x00\n        /* \"#utility.yul\":1658:1664   */\n      dup5\n        /* \"#utility.yul\":1653:1656   */\n      dup5\n        /* \"#utility.yul\":1649:1665   */\n      add\n        /* \"#utility.yul\":1642:1669   */\n      mstore\n        /* \"#utility.yul\":1491:1675   */\n      pop\n        /* \"#utility.yul\":1429:1675   */\n      pop\n      pop\n      pop\n      jump\t// out\n        /* \"#utility.yul\":1681:1783   */\n    tag_151:\n        /* \"#utility.yul\":1722:1728   */\n      0x00\n        /* \"#utility.yul\":1773:1775   */\n      0x1f\n        /* \"#utility.yul\":1769:1776   */\n      not\n        /* \"#utility.yul\":1764:1766   */\n      0x1f\n        /* \"#utility.yul\":1757:1762   */\n      dup4\n        /* \"#utility.yul\":1753:1767   */\n      add\n        /* \"#utility.yul\":1749:1777   */\n      and\n        /* \"#utility.yul\":1739:1777   */\n      swap1\n      pop\n        /* \"#utility.yul\":1681:1783   */\n      swap2\n      swap1\n      pop\n      jump\t// out\n        /* \"#utility.yul\":1789:2166   */\n    tag_152:\n        /* \"#utility.yul\":1877:1880   */\n      0x00\n        /* \"#utility.yul\":1905:1944   */\n      tag_206\n        /* \"#utility.yul\":1938:1943   */\n      dup3\n        /* \"#utility.yul\":1905:1944   */\n      tag_148\n      jump\t// in\n    tag_206:\n        /* \"#utility.yul\":1960:2031   */\n      tag_207\n        /* \"#utility.yul\":2024:2030   */\n      dup2\n        /* \"#utility.yul\":2019:2022   */\n      dup6\n        /* \"#utility.yul\":1960:2031   */\n      tag_149\n      jump\t// in\n    tag_207:\n        /* \"#utility.yul\":1953:2031   */\n      swap4\n      pop\n        /* \"#utility.yul\":2040:2105   */\n      tag_208\n        /* \"#utility.yul\":2098:2104   */\n      dup2\n        /* \"#utility.yul\":2093:2096   */\n      dup6\n        /* \"#utility.yul\":2086:2090   */\n      0x20\n        /* \"#utility.yul\":2079:2084   */\n      dup7\n        /* \"#utility.yul\":2075:2091   */\n      add\n        /* \"#utility.yul\":2040:2105   */\n      tag_150\n      jump\t// in\n    tag_208:\n        /* \"#utility.yul\":2130:2159   */\n      tag_209\n        /* \"#utility.yul\":2152:2158   */\n      dup2\n        /* \"#utility.yul\":2130:2159   */\n      tag_151\n      jump\t// in\n    tag_209:\n        /* \"#utility.yul\":2125:2128   */\n      dup5\n        /* \"#utility.yul\":2121:2160   */\n      add\n        /* \"#utility.yul\":2114:2160   */\n      swap2\n      pop\n        /* \"#utility.yul\":1881:2166   */\n      pop\n        /* \"#utility.yul\":1789:2166   */\n      swap3\n      swap2\n      pop\n      pop\n      jump\t// out\n        /* \"#utility.yul\":2172:2298   */\n    tag_153:\n        /* \"#utility.yul\":2209:2216   */\n      0x00\n        /* \"#utility.yul\":2249:2291   */\n      0xffffffffffffffffffffffffffffffffffffffff\n        /* \"#utility.yul\":2242:2247   */\n      dup3\n        /* \"#utility.yul\":2238:2292   */\n      and\n        /* \"#utility.yul\":2227:2292   */\n      swap1\n      pop\n        /* \"#utility.yul\":2172:2298   */\n      swap2\n      swap1\n      pop\n      jump\t// out\n        /* \"#utility.yul\":2304:2400   */\n    tag_154:\n        /* \"#utility.yul\":2341:2348   */\n      0x00\n        /* \"#utility.yul\":2370:2394   */\n      tag_212\n        /* \"#utility.yul\":2388:2393   */\n      dup3\n        /* \"#utility.yul\":2370:2394   */\n      tag_153\n      jump\t// in\n    tag_212:\n        /* \"#utility.yul\":2359:2394   */\n      swap1\n      pop\n        /* \"#utility.yul\":2304:2400   */\n      swap2\n      swap1\n      pop\n      jump\t// out\n        /* \"#utility.yul\":2406:2524   */\n    tag_155:\n        /* \"#utility.yul\":2493:2517   */\n      tag_214\n        /* \"#utility.yul\":2511:2516   */\n      dup2\n        /* \"#utility.yul\":2493:2517   */\n      tag_154\n      jump\t// in\n    tag_214:\n        /* \"#utility.yul\":2488:2491   */\n      dup3\n        /* \"#utility.yul\":2481:2518   */\n      mstore\n        /* \"#utility.yul\":2406:2524   */\n      pop\n      pop\n      jump\t// out\n        /* \"#utility.yul\":2530:3487   */\n    tag_18:\n        /* \"#utility.yul\":2803:2807   */\n      0x00\n        /* \"#utility.yul\":2841:2844   */\n      0xc0\n        /* \"#utility.yul\":2830:2839   */\n      dup3\n        /* \"#utility.yul\":2826:2845   */\n      add\n        /* \"#utility.yul\":2818:2845   */\n      swap1\n      pop\n        /* \"#utility.yul\":2855:2926   */\n      tag_216\n        /* \"#utility.yul\":2923:2924   */\n      0x00\n        /* \"#utility.yul\":2912:2921   */\n      dup4\n        /* \"#utility.yul\":2908:2925   */\n      add\n        /* \"#utility.yul\":2899:2905   */\n      dup10\n        /* \"#utility.yul\":2855:2926   */\n      tag_147\n      jump\t// in\n    tag_216:\n        /* \"#utility.yul\":2973:2982   */\n      dup2\n        /* \"#utility.yul\":2967:2971   */\n      dup2\n        /* \"#utility.yul\":2963:2983   */\n      sub\n        /* \"#utility.yul\":2958:2960   */\n      0x20\n        /* \"#utility.yul\":2947:2956   */\n      dup4\n        /* \"#utility.yul\":2943:2961   */\n      add\n        /* \"#utility.yul\":2936:2984   */\n      mstore\n        /* \"#utility.yul\":3001:3079   */\n      tag_217\n        /* \"#utility.yul\":3074:3078   */\n      dup2\n        /* \"#utility.yul\":3065:3071   */\n      dup9\n        /* \"#utility.yul\":3001:3079   */\n      tag_152\n      jump\t// in\n    tag_217:\n        /* \"#utility.yul\":2993:3079   */\n      swap1\n      pop\n        /* \"#utility.yul\":3126:3135   */\n      dup2\n        /* \"#utility.yul\":3120:3124   */\n      dup2\n        /* \"#utility.yul\":3116:3136   */\n      sub\n        /* \"#utility.yul\":3111:3113   */\n      0x40\n        /* \"#utility.yul\":3100:3109   */\n      dup4\n        /* \"#utility.yul\":3096:3114   */\n      add\n        /* \"#utility.yul\":3089:3137   */\n      mstore\n        /* \"#utility.yul\":3154:3232   */\n      tag_218\n        /* \"#utility.yul\":3227:3231   */\n      dup2\n        /* \"#utility.yul\":3218:3224   */\n      dup8\n        /* \"#utility.yul\":3154:3232   */\n      tag_152\n      jump\t// in\n    tag_218:\n        /* \"#utility.yul\":3146:3232   */\n      swap1\n      pop\n        /* \"#utility.yul\":3242:3314   */\n      tag_219\n        /* \"#utility.yul\":3310:3312   */\n      0x60\n        /* \"#utility.yul\":3299:3308   */\n      dup4\n        /* \"#utility.yul\":3295:3313   */\n      add\n        /* \"#utility.yul\":3286:3292   */\n      dup7\n        /* \"#utility.yul\":3242:3314   */\n      tag_147\n      jump\t// in\n    tag_219:\n        /* \"#utility.yul\":3324:3397   */\n      tag_220\n        /* \"#utility.yul\":3392:3395   */\n      0x80\n        /* \"#utility.yul\":3381:3390   */\n      dup4\n        /* \"#utility.yul\":3377:3396   */\n      add\n        /* \"#utility.yul\":3368:3374   */\n      dup6\n        /* \"#utility.yul\":3324:3397   */\n      tag_155\n      jump\t// in\n    tag_220:\n        /* \"#utility.yul\":3407:3480   */\n      tag_221\n        /* \"#utility.yul\":3475:3478   */\n      0xa0\n        /* \"#utility.yul\":3464:3473   */\n      dup4\n        /* \"#utility.yul\":3460:3479   */\n      add\n        /* \"#utility.yul\":3451:3457   */\n      dup5\n        /* \"#utility.yul\":3407:3480   */\n      tag_147\n      jump\t// in\n    tag_221:\n        /* \"#utility.yul\":2530:3487   */\n      swap8\n      swap7\n      pop\n      pop\n      pop\n      pop\n      pop\n      pop\n      pop\n      jump\t// out\n        /* \"#utility.yul\":3493:3715   */\n    tag_22:\n        /* \"#utility.yul\":3586:3590   */\n      0x00\n        /* \"#utility.yul\":3624:3626   */\n      0x20\n        /* \"#utility.yul\":3613:3622   */\n      dup3\n        /* \"#utility.yul\":3609:3627   */\n      add\n        /* \"#utility.yul\":3601:3627   */\n      swap1\n      pop\n        /* \"#utility.yul\":3637:3708   */\n      tag_223\n        /* \"#utility.yul\":3705:3706   */\n      0x00\n        /* \"#utility.yul\":3694:3703   */\n      dup4\n        /* \"#utility.yul\":3690:3707   */\n      add\n        /* \"#utility.yul\":3681:3687   */\n      dup5\n        /* \"#utility.yul\":3637:3708   */\n      tag_147\n      jump\t// in\n    tag_223:\n        /* \"#utility.yul\":3493:3715   */\n      swap3\n      swap2\n      pop\n      pop\n      jump\t// out\n        /* \"#utility.yul\":3721:3838   */\n    tag_156:\n        /* \"#utility.yul\":3830:3831   */\n      0x00\n        /* \"#utility.yul\":3827:3828   */\n      dup1\n        /* \"#utility.yul\":3820:3832   */\n      revert\n        /* \"#utility.yul\":3844:3961   */\n    tag_157:\n        /* \"#utility.yul\":3953:3954   */\n      0x00\n        /* \"#utility.yul\":3950:3951   */\n      dup1\n        /* \"#utility.yul\":3943:3955   */\n      revert\n        /* \"#utility.yul\":3967:4147   */\n    tag_158:\n        /* \"#utility.yul\":4015:4092   */\n      0x4e487b7100000000000000000000000000000000000000000000000000000000\n        /* \"#utility.yul\":4012:4013   */\n      0x00\n        /* \"#utility.yul\":4005:4093   */\n      mstore\n        /* \"#utility.yul\":4112:4116   */\n      0x41\n        /* \"#utility.yul\":4109:4110   */\n      0x04\n        /* \"#utility.yul\":4102:4117   */\n      mstore\n        /* \"#utility.yul\":4136:4140   */\n      0x24\n        /* \"#utility.yul\":4133:4134   */\n      0x00\n        /* \"#utility.yul\":4126:4141   */\n      revert\n        /* \"#utility.yul\":4153:4434   */\n    tag_159:\n        /* \"#utility.yul\":4236:4263   */\n      tag_228\n        /* \"#utility.yul\":4258:4262   */\n      dup3\n        /* \"#utility.yul\":4236:4263   */\n      tag_151\n      jump\t// in\n    tag_228:\n        /* \"#utility.yul\":4228:4234   */\n      dup2\n        /* \"#utility.yul\":4224:4264   */\n      add\n        /* \"#utility.yul\":4366:4372   */\n      dup2\n        /* \"#utility.yul\":4354:4364   */\n      dup2\n        /* \"#utility.yul\":4351:4373   */\n      lt\n        /* \"#utility.yul\":4330:4348   */\n      0xffffffffffffffff\n        /* \"#utility.yul\":4318:4328   */\n      dup3\n        /* \"#utility.yul\":4315:4349   */\n      gt\n        /* \"#utility.yul\":4312:4374   */\n      or\n        /* \"#utility.yul\":4309:4397   */\n      iszero\n      tag_229\n      jumpi\n        /* \"#utility.yul\":4377:4395   */\n      tag_230\n      tag_158\n      jump\t// in\n    tag_230:\n        /* \"#utility.yul\":4309:4397   */\n    tag_229:\n        /* \"#utility.yul\":4417:4427   */\n      dup1\n        /* \"#utility.yul\":4413:4415   */\n      0x40\n        /* \"#utility.yul\":4406:4428   */\n      mstore\n        /* \"#utility.yul\":4196:4434   */\n      pop\n        /* \"#utility.yul\":4153:4434   */\n      pop\n      pop\n      jump\t// out\n        /* \"#utility.yul\":4440:4569   */\n    tag_160:\n        /* \"#utility.yul\":4474:4480   */\n      0x00\n        /* \"#utility.yul\":4501:4521   */\n      tag_232\n      tag_141\n      jump\t// in\n    tag_232:\n        /* \"#utility.yul\":4491:4521   */\n      swap1\n      pop\n        /* \"#utility.yul\":4530:4563   */\n      tag_233\n        /* \"#utility.yul\":4558:4562   */\n      dup3\n        /* \"#utility.yul\":4550:4556   */\n      dup3\n        /* \"#utility.yul\":4530:4563   */\n      tag_159\n      jump\t// in\n    tag_233:\n        /* \"#utility.yul\":4440:4569   */\n      swap2\n      swap1\n      pop\n      jump\t// out\n        /* \"#utility.yul\":4575:4883   */\n    tag_161:\n        /* \"#utility.yul\":4637:4641   */\n      0x00\n        /* \"#utility.yul\":4727:4745   */\n      0xffffffffffffffff\n        /* \"#utility.yul\":4719:4725   */\n      dup3\n        /* \"#utility.yul\":4716:4746   */\n      gt\n        /* \"#utility.yul\":4713:4769   */\n      iszero\n      tag_235\n      jumpi\n        /* \"#utility.yul\":4749:4767   */\n      tag_236\n      tag_158\n      jump\t// in\n    tag_236:\n        /* \"#utility.yul\":4713:4769   */\n    tag_235:\n        /* \"#utility.yul\":4787:4816   */\n      tag_237\n        /* \"#utility.yul\":4809:4815   */\n      dup3\n        /* \"#utility.yul\":4787:4816   */\n      tag_151\n      jump\t// in\n    tag_237:\n        /* \"#utility.yul\":4779:4816   */\n      swap1\n      pop\n        /* \"#utility.yul\":4871:4875   */\n      0x20\n        /* \"#utility.yul\":4865:4869   */\n      dup2\n        /* \"#utility.yul\":4861:4876   */\n      add\n        /* \"#utility.yul\":4853:4876   */\n      swap1\n      pop\n        /* \"#utility.yul\":4575:4883   */\n      swap2\n      swap1\n      pop\n      jump\t// out\n        /* \"#utility.yul\":4889:5035   */\n    tag_162:\n        /* \"#utility.yul\":4986:4992   */\n      dup3\n        /* \"#utility.yul\":4981:4984   */\n      dup2\n        /* \"#utility.yul\":4976:4979   */\n      dup4\n        /* \"#utility.yul\":4963:4993   */\n      calldatacopy\n        /* \"#utility.yul\":5027:5028   */\n      0x00\n        /* \"#utility.yul\":5018:5024   */\n      dup4\n        /* \"#utility.yul\":5013:5016   */\n      dup4\n        /* \"#utility.yul\":5009:5025   */\n      add\n        /* \"#utility.yul\":5002:5029   */\n      mstore\n        /* \"#utility.yul\":4889:5035   */\n      pop\n      pop\n      pop\n      jump\t// out\n        /* \"#utility.yul\":5041:5466   */\n    tag_163:\n        /* \"#utility.yul\":5119:5124   */\n      0x00\n        /* \"#utility.yul\":5144:5210   */\n      tag_240\n        /* \"#utility.yul\":5160:5209   */\n      tag_241\n        /* \"#utility.yul\":5202:5208   */\n      dup5\n        /* \"#utility.yul\":5160:5209   */\n      tag_161\n      jump\t// in\n    tag_241:\n        /* \"#utility.yul\":5144:5210   */\n      tag_160\n      jump\t// in\n    tag_240:\n        /* \"#utility.yul\":5135:5210   */\n      swap1\n      pop\n        /* \"#utility.yul\":5233:5239   */\n      dup3\n        /* \"#utility.yul\":5226:5231   */\n      dup2\n        /* \"#utility.yul\":5219:5240   */\n      mstore\n        /* \"#utility.yul\":5271:5275   */\n      0x20\n        /* \"#utility.yul\":5264:5269   */\n      dup2\n        /* \"#utility.yul\":5260:5276   */\n      add\n        /* \"#utility.yul\":5309:5312   */\n      dup5\n        /* \"#utility.yul\":5300:5306   */\n      dup5\n        /* \"#utility.yul\":5295:5298   */\n      dup5\n        /* \"#utility.yul\":5291:5307   */\n      add\n        /* \"#utility.yul\":5288:5313   */\n      gt\n        /* \"#utility.yul\":5285:5397   */\n      iszero\n      tag_242\n      jumpi\n        /* \"#utility.yul\":5316:5395   */\n      tag_243\n      tag_157\n      jump\t// in\n    tag_243:\n        /* \"#utility.yul\":5285:5397   */\n    tag_242:\n        /* \"#utility.yul\":5406:5460   */\n      tag_244\n        /* \"#utility.yul\":5453:5459   */\n      dup5\n        /* \"#utility.yul\":5448:5451   */\n      dup3\n        /* \"#utility.yul\":5443:5446   */\n      dup6\n        /* \"#utility.yul\":5406:5460   */\n      tag_162\n      jump\t// in\n    tag_244:\n        /* \"#utility.yul\":5125:5466   */\n      pop\n        /* \"#utility.yul\":5041:5466   */\n      swap4\n      swap3\n      pop\n      pop\n      pop\n      jump\t// out\n        /* \"#utility.yul\":5486:5826   */\n    tag_164:\n        /* \"#utility.yul\":5542:5547   */\n      0x00\n        /* \"#utility.yul\":5591:5594   */\n      dup3\n        /* \"#utility.yul\":5584:5588   */\n      0x1f\n        /* \"#utility.yul\":5576:5582   */\n      dup4\n        /* \"#utility.yul\":5572:5589   */\n      add\n        /* \"#utility.yul\":5568:5595   */\n      slt\n        /* \"#utility.yul\":5558:5680   */\n      tag_246\n      jumpi\n        /* \"#utility.yul\":5599:5678   */\n      tag_247\n      tag_156\n      jump\t// in\n    tag_247:\n        /* \"#utility.yul\":5558:5680   */\n    tag_246:\n        /* \"#utility.yul\":5716:5722   */\n      dup2\n        /* \"#utility.yul\":5703:5723   */\n      calldataload\n        /* \"#utility.yul\":5741:5820   */\n      tag_248\n        /* \"#utility.yul\":5816:5819   */\n      dup5\n        /* \"#utility.yul\":5808:5814   */\n      dup3\n        /* \"#utility.yul\":5801:5805   */\n      0x20\n        /* \"#utility.yul\":5793:5799   */\n      dup7\n        /* \"#utility.yul\":5789:5806   */\n      add\n        /* \"#utility.yul\":5741:5820   */\n      tag_163\n      jump\t// in\n    tag_248:\n        /* \"#utility.yul\":5732:5820   */\n      swap2\n      pop\n        /* \"#utility.yul\":5548:5826   */\n      pop\n        /* \"#utility.yul\":5486:5826   */\n      swap3\n      swap2\n      pop\n      pop\n      jump\t// out\n        /* \"#utility.yul\":5832:7643   */\n    tag_32:\n        /* \"#utility.yul\":5977:5983   */\n      0x00\n        /* \"#utility.yul\":5985:5991   */\n      dup1\n        /* \"#utility.yul\":5993:5999   */\n      0x00\n        /* \"#utility.yul\":6001:6007   */\n      dup1\n        /* \"#utility.yul\":6009:6015   */\n      0x00\n        /* \"#utility.yul\":6058:6061   */\n      0xa0\n        /* \"#utility.yul\":6046:6055   */\n      dup7\n        /* \"#utility.yul\":6037:6044   */\n      dup9\n        /* \"#utility.yul\":6033:6056   */\n      sub\n        /* \"#utility.yul\":6029:6062   */\n      slt\n        /* \"#utility.yul\":6026:6146   */\n      iszero\n      tag_250\n      jumpi\n        /* \"#utility.yul\":6065:6144   */\n      tag_251\n      tag_142\n      jump\t// in\n    tag_251:\n        /* \"#utility.yul\":6026:6146   */\n    tag_250:\n        /* \"#utility.yul\":6213:6214   */\n      0x00\n        /* \"#utility.yul\":6202:6211   */\n      dup7\n        /* \"#utility.yul\":6198:6215   */\n      add\n        /* \"#utility.yul\":6185:6216   */\n      calldataload\n        /* \"#utility.yul\":6243:6261   */\n      0xffffffffffffffff\n        /* \"#utility.yul\":6235:6241   */\n      dup2\n        /* \"#utility.yul\":6232:6262   */\n      gt\n        /* \"#utility.yul\":6229:6346   */\n      iszero\n      tag_252\n      jumpi\n        /* \"#utility.yul\":6265:6344   */\n      tag_253\n      tag_143\n      jump\t// in\n    tag_253:\n        /* \"#utility.yul\":6229:6346   */\n    tag_252:\n        /* \"#utility.yul\":6370:6433   */\n      tag_254\n        /* \"#utility.yul\":6425:6432   */\n      dup9\n        /* \"#utility.yul\":6416:6422   */\n      dup3\n        /* \"#utility.yul\":6405:6414   */\n      dup10\n        /* \"#utility.yul\":6401:6423   */\n      add\n        /* \"#utility.yul\":6370:6433   */\n      tag_164\n      jump\t// in\n    tag_254:\n        /* \"#utility.yul\":6360:6433   */\n      swap6\n      pop\n        /* \"#utility.yul\":6156:6443   */\n      pop\n        /* \"#utility.yul\":6510:6512   */\n      0x20\n        /* \"#utility.yul\":6499:6508   */\n      dup7\n        /* \"#utility.yul\":6495:6513   */\n      add\n        /* \"#utility.yul\":6482:6514   */\n      calldataload\n        /* \"#utility.yul\":6541:6559   */\n      0xffffffffffffffff\n        /* \"#utility.yul\":6533:6539   */\n      dup2\n        /* \"#utility.yul\":6530:6560   */\n      gt\n        /* \"#utility.yul\":6527:6644   */\n      iszero\n      tag_255\n      jumpi\n        /* \"#utility.yul\":6563:6642   */\n      tag_256\n      tag_143\n      jump\t// in\n    tag_256:\n        /* \"#utility.yul\":6527:6644   */\n    tag_255:\n        /* \"#utility.yul\":6668:6731   */\n      tag_257\n        /* \"#utility.yul\":6723:6730   */\n      dup9\n        /* \"#utility.yul\":6714:6720   */\n      dup3\n        /* \"#utility.yul\":6703:6712   */\n      dup10\n        /* \"#utility.yul\":6699:6721   */\n      add\n        /* \"#utility.yul\":6668:6731   */\n      tag_164\n      jump\t// in\n    tag_257:\n        /* \"#utility.yul\":6658:6731   */\n      swap5\n      pop\n        /* \"#utility.yul\":6453:6741   */\n      pop\n        /* \"#utility.yul\":6808:6810   */\n      0x40\n        /* \"#utility.yul\":6797:6806   */\n      dup7\n        /* \"#utility.yul\":6793:6811   */\n      add\n        /* \"#utility.yul\":6780:6812   */\n      calldataload\n        /* \"#utility.yul\":6839:6857   */\n      0xffffffffffffffff\n        /* \"#utility.yul\":6831:6837   */\n      dup2\n        /* \"#utility.yul\":6828:6858   */\n      gt\n        /* \"#utility.yul\":6825:6942   */\n      iszero\n      tag_258\n      jumpi\n        /* \"#utility.yul\":6861:6940   */\n      tag_259\n      tag_143\n      jump\t// in\n    tag_259:\n        /* \"#utility.yul\":6825:6942   */\n    tag_258:\n        /* \"#utility.yul\":6966:7029   */\n      tag_260\n        /* \"#utility.yul\":7021:7028   */\n      dup9\n        /* \"#utility.yul\":7012:7018   */\n      dup3\n        /* \"#utility.yul\":7001:7010   */\n      dup10\n        /* \"#utility.yul\":6997:7019   */\n      add\n        /* \"#utility.yul\":6966:7029   */\n      tag_164\n      jump\t// in\n    tag_260:\n        /* \"#utility.yul\":6956:7029   */\n      swap4\n      pop\n        /* \"#utility.yul\":6751:7039   */\n      pop\n        /* \"#utility.yul\":7106:7108   */\n      0x60\n        /* \"#utility.yul\":7095:7104   */\n      dup7\n        /* \"#utility.yul\":7091:7109   */\n      add\n        /* \"#utility.yul\":7078:7110   */\n      calldataload\n        /* \"#utility.yul\":7137:7155   */\n      0xffffffffffffffff\n        /* \"#utility.yul\":7129:7135   */\n      dup2\n        /* \"#utility.yul\":7126:7156   */\n      gt\n        /* \"#utility.yul\":7123:7240   */\n      iszero\n      tag_261\n      jumpi\n        /* \"#utility.yul\":7159:7238   */\n      tag_262\n      tag_143\n      jump\t// in\n    tag_262:\n        /* \"#utility.yul\":7123:7240   */\n    tag_261:\n        /* \"#utility.yul\":7264:7327   */\n      tag_263\n        /* \"#utility.yul\":7319:7326   */\n      dup9\n        /* \"#utility.yul\":7310:7316   */\n      dup3\n        /* \"#utility.yul\":7299:7308   */\n      dup10\n        /* \"#utility.yul\":7295:7317   */\n      add\n        /* \"#utility.yul\":7264:7327   */\n      tag_164\n      jump\t// in\n    tag_263:\n        /* \"#utility.yul\":7254:7327   */\n      swap3\n      pop\n        /* \"#utility.yul\":7049:7337   */\n      pop\n        /* \"#utility.yul\":7404:7407   */\n      0x80\n        /* \"#utility.yul\":7393:7402   */\n      dup7\n        /* \"#utility.yul\":7389:7408   */\n      add\n        /* \"#utility.yul\":7376:7409   */\n      calldataload\n        /* \"#utility.yul\":7436:7454   */\n      0xffffffffffffffff\n        /* \"#utility.yul\":7428:7434   */\n      dup2\n        /* \"#utility.yul\":7425:7455   */\n      gt\n        /* \"#utility.yul\":7422:7539   */\n      iszero\n      tag_264\n      jumpi\n        /* \"#utility.yul\":7458:7537   */\n      tag_265\n      tag_143\n      jump\t// in\n    tag_265:\n        /* \"#utility.yul\":7422:7539   */\n    tag_264:\n        /* \"#utility.yul\":7563:7626   */\n      tag_266\n        /* \"#utility.yul\":7618:7625   */\n      dup9\n        /* \"#utility.yul\":7609:7615   */\n      dup3\n        /* \"#utility.yul\":7598:7607   */\n      dup10\n        /* \"#utility.yul\":7594:7616   */\n      add\n        /* \"#utility.yul\":7563:7626   */\n      tag_164\n      jump\t// in\n    tag_266:\n        /* \"#utility.yul\":7553:7626   */\n      swap2\n      pop\n        /* \"#utility.yul\":7347:7636   */\n      pop\n        /* \"#utility.yul\":5832:7643   */\n      swap3\n      swap6\n      pop\n      swap3\n      swap6\n      swap1\n      swap4\n      pop\n      jump\t// out\n        /* \"#utility.yul\":7649:8990   */\n    tag_38:\n        /* \"#utility.yul\":8010:8014   */\n      0x00\n        /* \"#utility.yul\":8048:8051   */\n      0xe0\n        /* \"#utility.yul\":8037:8046   */\n      dup3\n        /* \"#utility.yul\":8033:8052   */\n      add\n        /* \"#utility.yul\":8025:8052   */\n      swap1\n      pop\n        /* \"#utility.yul\":8062:8133   */\n      tag_268\n        /* \"#utility.yul\":8130:8131   */\n      0x00\n        /* \"#utility.yul\":8119:8128   */\n      dup4\n        /* \"#utility.yul\":8115:8132   */\n      add\n        /* \"#utility.yul\":8106:8112   */\n      dup11\n        /* \"#utility.yul\":8062:8133   */\n      tag_147\n      jump\t// in\n    tag_268:\n        /* \"#utility.yul\":8180:8189   */\n      dup2\n        /* \"#utility.yul\":8174:8178   */\n      dup2\n        /* \"#utility.yul\":8170:8190   */\n      sub\n        /* \"#utility.yul\":8165:8167   */\n      0x20\n        /* \"#utility.yul\":8154:8163   */\n      dup4\n        /* \"#utility.yul\":8150:8168   */\n      add\n        /* \"#utility.yul\":8143:8191   */\n      mstore\n        /* \"#utility.yul\":8208:8286   */\n      tag_269\n        /* \"#utility.yul\":8281:8285   */\n      dup2\n        /* \"#utility.yul\":8272:8278   */\n      dup10\n        /* \"#utility.yul\":8208:8286   */\n      tag_152\n      jump\t// in\n    tag_269:\n        /* \"#utility.yul\":8200:8286   */\n      swap1\n      pop\n        /* \"#utility.yul\":8333:8342   */\n      dup2\n        /* \"#utility.yul\":8327:8331   */\n      dup2\n        /* \"#utility.yul\":8323:8343   */\n      sub\n        /* \"#utility.yul\":8318:8320   */\n      0x40\n        /* \"#utility.yul\":8307:8316   */\n      dup4\n        /* \"#utility.yul\":8303:8321   */\n      add\n        /* \"#utility.yul\":8296:8344   */\n      mstore\n        /* \"#utility.yul\":8361:8439   */\n      tag_270\n        /* \"#utility.yul\":8434:8438   */\n      dup2\n        /* \"#utility.yul\":8425:8431   */\n      dup9\n        /* \"#utility.yul\":8361:8439   */\n      tag_152\n      jump\t// in\n    tag_270:\n        /* \"#utility.yul\":8353:8439   */\n      swap1\n      pop\n        /* \"#utility.yul\":8486:8495   */\n      dup2\n        /* \"#utility.yul\":8480:8484   */\n      dup2\n        /* \"#utility.yul\":8476:8496   */\n      sub\n        /* \"#utility.yul\":8471:8473   */\n      0x60\n        /* \"#utility.yul\":8460:8469   */\n      dup4\n        /* \"#utility.yul\":8456:8474   */\n      add\n        /* \"#utility.yul\":8449:8497   */\n      mstore\n        /* \"#utility.yul\":8514:8592   */\n      tag_271\n        /* \"#utility.yul\":8587:8591   */\n      dup2\n        /* \"#utility.yul\":8578:8584   */\n      dup8\n        /* \"#utility.yul\":8514:8592   */\n      tag_152\n      jump\t// in\n    tag_271:\n        /* \"#utility.yul\":8506:8592   */\n      swap1\n      pop\n        /* \"#utility.yul\":8640:8649   */\n      dup2\n        /* \"#utility.yul\":8634:8638   */\n      dup2\n        /* \"#utility.yul\":8630:8650   */\n      sub\n        /* \"#utility.yul\":8624:8627   */\n      0x80\n        /* \"#utility.yul\":8613:8622   */\n      dup4\n        /* \"#utility.yul\":8609:8628   */\n      add\n        /* \"#utility.yul\":8602:8651   */\n      mstore\n        /* \"#utility.yul\":8668:8746   */\n      tag_272\n        /* \"#utility.yul\":8741:8745   */\n      dup2\n        /* \"#utility.yul\":8732:8738   */\n      dup7\n        /* \"#utility.yul\":8668:8746   */\n      tag_152\n      jump\t// in\n    tag_272:\n        /* \"#utility.yul\":8660:8746   */\n      swap1\n      pop\n        /* \"#utility.yul\":8794:8803   */\n      dup2\n        /* \"#utility.yul\":8788:8792   */\n      dup2\n        /* \"#utility.yul\":8784:8804   */\n      sub\n        /* \"#utility.yul\":8778:8781   */\n      0xa0\n        /* \"#utility.yul\":8767:8776   */\n      dup4\n        /* \"#utility.yul\":8763:8782   */\n      add\n        /* \"#utility.yul\":8756:8805   */\n      mstore\n        /* \"#utility.yul\":8822:8900   */\n      tag_273\n        /* \"#utility.yul\":8895:8899   */\n      dup2\n        /* \"#utility.yul\":8886:8892   */\n      dup6\n        /* \"#utility.yul\":8822:8900   */\n      tag_152\n      jump\t// in\n    tag_273:\n        /* \"#utility.yul\":8814:8900   */\n      swap1\n      pop\n        /* \"#utility.yul\":8910:8983   */\n      tag_274\n        /* \"#utility.yul\":8978:8981   */\n      0xc0\n        /* \"#utility.yul\":8967:8976   */\n      dup4\n        /* \"#utility.yul\":8963:8982   */\n      add\n        /* \"#utility.yul\":8954:8960   */\n      dup5\n        /* \"#utility.yul\":8910:8983   */\n      tag_147\n      jump\t// in\n    tag_274:\n        /* \"#utility.yul\":7649:8990   */\n      swap9\n      swap8\n      pop\n      pop\n      pop\n      pop\n      pop\n      pop\n      pop\n      pop\n      jump\t// out\n        /* \"#utility.yul\":8996:9470   */\n    tag_45:\n        /* \"#utility.yul\":9064:9070   */\n      0x00\n        /* \"#utility.yul\":9072:9078   */\n      dup1\n        /* \"#utility.yul\":9121:9123   */\n      0x40\n        /* \"#utility.yul\":9109:9118   */\n      dup4\n        /* \"#utility.yul\":9100:9107   */\n      dup6\n        /* \"#utility.yul\":9096:9119   */\n      sub\n        /* \"#utility.yul\":9092:9124   */\n      slt\n        /* \"#utility.yul\":9089:9208   */\n      iszero\n      tag_276\n      jumpi\n        /* \"#utility.yul\":9127:9206   */\n      tag_277\n      tag_142\n      jump\t// in\n    tag_277:\n        /* \"#utility.yul\":9089:9208   */\n    tag_276:\n        /* \"#utility.yul\":9247:9248   */\n      0x00\n        /* \"#utility.yul\":9272:9325   */\n      tag_278\n        /* \"#utility.yul\":9317:9324   */\n      dup6\n        /* \"#utility.yul\":9308:9314   */\n      dup3\n        /* \"#utility.yul\":9297:9306   */\n      dup7\n        /* \"#utility.yul\":9293:9315   */\n      add\n        /* \"#utility.yul\":9272:9325   */\n      tag_146\n      jump\t// in\n    tag_278:\n        /* \"#utility.yul\":9262:9325   */\n      swap3\n      pop\n        /* \"#utility.yul\":9218:9335   */\n      pop\n        /* \"#utility.yul\":9374:9376   */\n      0x20\n        /* \"#utility.yul\":9400:9453   */\n      tag_279\n        /* \"#utility.yul\":9445:9452   */\n      dup6\n        /* \"#utility.yul\":9436:9442   */\n      dup3\n        /* \"#utility.yul\":9425:9434   */\n      dup7\n        /* \"#utility.yul\":9421:9443   */\n      add\n        /* \"#utility.yul\":9400:9453   */\n      tag_146\n      jump\t// in\n    tag_279:\n        /* \"#utility.yul\":9390:9453   */\n      swap2\n      pop\n        /* \"#utility.yul\":9345:9463   */\n      pop\n        /* \"#utility.yul\":8996:9470   */\n      swap3\n      pop\n      swap3\n      swap1\n      pop\n      jump\t// out\n        /* \"#utility.yul\":9476:10455   */\n    tag_49:\n        /* \"#utility.yul\":9573:9579   */\n      0x00\n        /* \"#utility.yul\":9581:9587   */\n      dup1\n        /* \"#utility.yul\":9589:9595   */\n      0x00\n        /* \"#utility.yul\":9638:9640   */\n      0x60\n        /* \"#utility.yul\":9626:9635   */\n      dup5\n        /* \"#utility.yul\":9617:9624   */\n      dup7\n        /* \"#utility.yul\":9613:9636   */\n      sub\n        /* \"#utility.yul\":9609:9641   */\n      slt\n        /* \"#utility.yul\":9606:9725   */\n      iszero\n      tag_281\n      jumpi\n        /* \"#utility.yul\":9644:9723   */\n      tag_282\n      tag_142\n      jump\t// in\n    tag_282:\n        /* \"#utility.yul\":9606:9725   */\n    tag_281:\n        /* \"#utility.yul\":9792:9793   */\n      0x00\n        /* \"#utility.yul\":9781:9790   */\n      dup5\n        /* \"#utility.yul\":9777:9794   */\n      add\n        /* \"#utility.yul\":9764:9795   */\n      calldataload\n        /* \"#utility.yul\":9822:9840   */\n      0xffffffffffffffff\n        /* \"#utility.yul\":9814:9820   */\n      dup2\n        /* \"#utility.yul\":9811:9841   */\n      gt\n        /* \"#utility.yul\":9808:9925   */\n      iszero\n      tag_283\n      jumpi\n        /* \"#utility.yul\":9844:9923   */\n      tag_284\n      tag_143\n      jump\t// in\n    tag_284:\n        /* \"#utility.yul\":9808:9925   */\n    tag_283:\n        /* \"#utility.yul\":9949:10012   */\n      tag_285\n        /* \"#utility.yul\":10004:10011   */\n      dup7\n        /* \"#utility.yul\":9995:10001   */\n      dup3\n        /* \"#utility.yul\":9984:9993   */\n      dup8\n        /* \"#utility.yul\":9980:10002   */\n      add\n        /* \"#utility.yul\":9949:10012   */\n      tag_164\n      jump\t// in\n    tag_285:\n        /* \"#utility.yul\":9939:10012   */\n      swap4\n      pop\n        /* \"#utility.yul\":9735:10022   */\n      pop\n        /* \"#utility.yul\":10089:10091   */\n      0x20\n        /* \"#utility.yul\":10078:10087   */\n      dup5\n        /* \"#utility.yul\":10074:10092   */\n      add\n        /* \"#utility.yul\":10061:10093   */\n      calldataload\n        /* \"#utility.yul\":10120:10138   */\n      0xffffffffffffffff\n        /* \"#utility.yul\":10112:10118   */\n      dup2\n        /* \"#utility.yul\":10109:10139   */\n      gt\n        /* \"#utility.yul\":10106:10223   */\n      iszero\n      tag_286\n      jumpi\n        /* \"#utility.yul\":10142:10221   */\n      tag_287\n      tag_143\n      jump\t// in\n    tag_287:\n        /* \"#utility.yul\":10106:10223   */\n    tag_286:\n        /* \"#utility.yul\":10247:10310   */\n      tag_288\n        /* \"#utility.yul\":10302:10309   */\n      dup7\n        /* \"#utility.yul\":10293:10299   */\n      dup3\n        /* \"#utility.yul\":10282:10291   */\n      dup8\n        /* \"#utility.yul\":10278:10300   */\n      add\n        /* \"#utility.yul\":10247:10310   */\n      tag_164\n      jump\t// in\n    tag_288:\n        /* \"#utility.yul\":10237:10310   */\n      swap3\n      pop\n        /* \"#utility.yul\":10032:10320   */\n      pop\n        /* \"#utility.yul\":10359:10361   */\n      0x40\n        /* \"#utility.yul\":10385:10438   */\n      tag_289\n        /* \"#utility.yul\":10430:10437   */\n      dup7\n        /* \"#utility.yul\":10421:10427   */\n      dup3\n        /* \"#utility.yul\":10410:10419   */\n      dup8\n        /* \"#utility.yul\":10406:10428   */\n      add\n        /* \"#utility.yul\":10385:10438   */\n      tag_146\n      jump\t// in\n    tag_289:\n        /* \"#utility.yul\":10375:10438   */\n      swap2\n      pop\n        /* \"#utility.yul\":10330:10448   */\n      pop\n        /* \"#utility.yul\":9476:10455   */\n      swap3\n      pop\n      swap3\n      pop\n      swap3\n      jump\t// out\n        /* \"#utility.yul\":10461:10641   */\n    tag_165:\n        /* \"#utility.yul\":10509:10586   */\n      0x4e487b7100000000000000000000000000000000000000000000000000000000\n        /* \"#utility.yul\":10506:10507   */\n      0x00\n        /* \"#utility.yul\":10499:10587   */\n      mstore\n        /* \"#utility.yul\":10606:10610   */\n      0x22\n        /* \"#utility.yul\":10603:10604   */\n      0x04\n        /* \"#utility.yul\":10596:10611   */\n      mstore\n        /* \"#utility.yul\":10630:10634   */\n      0x24\n        /* \"#utility.yul\":10627:10628   */\n      0x00\n        /* \"#utility.yul\":10620:10635   */\n      revert\n        /* \"#utility.yul\":10647:10967   */\n    tag_52:\n        /* \"#utility.yul\":10691:10697   */\n      0x00\n        /* \"#utility.yul\":10728:10729   */\n      0x02\n        /* \"#utility.yul\":10722:10726   */\n      dup3\n        /* \"#utility.yul\":10718:10730   */\n      div\n        /* \"#utility.yul\":10708:10730   */\n      swap1\n      pop\n        /* \"#utility.yul\":10775:10776   */\n      0x01\n        /* \"#utility.yul\":10769:10773   */\n      dup3\n        /* \"#utility.yul\":10765:10777   */\n      and\n        /* \"#utility.yul\":10796:10814   */\n      dup1\n        /* \"#utility.yul\":10786:10867   */\n      tag_292\n      jumpi\n        /* \"#utility.yul\":10852:10856   */\n      0x7f\n        /* \"#utility.yul\":10844:10850   */\n      dup3\n        /* \"#utility.yul\":10840:10857   */\n      and\n        /* \"#utility.yul\":10830:10857   */\n      swap2\n      pop\n        /* \"#utility.yul\":10786:10867   */\n    tag_292:\n        /* \"#utility.yul\":10914:10916   */\n      0x20\n        /* \"#utility.yul\":10906:10912   */\n      dup3\n        /* \"#utility.yul\":10903:10917   */\n      lt\n        /* \"#utility.yul\":10883:10901   */\n      dup2\n        /* \"#utility.yul\":10880:10918   */\n      sub\n        /* \"#utility.yul\":10877:10961   */\n      tag_293\n      jumpi\n        /* \"#utility.yul\":10933:10951   */\n      tag_294\n      tag_165\n      jump\t// in\n    tag_294:\n        /* \"#utility.yul\":10877:10961   */\n    tag_293:\n        /* \"#utility.yul\":10698:10967   */\n      pop\n        /* \"#utility.yul\":10647:10967   */\n      swap2\n      swap1\n      pop\n      jump\t// out\n        /* \"#utility.yul\":10973:11153   */\n    tag_166:\n        /* \"#utility.yul\":11021:11098   */\n      0x4e487b7100000000000000000000000000000000000000000000000000000000\n        /* \"#utility.yul\":11018:11019   */\n      0x00\n        /* \"#utility.yul\":11011:11099   */\n      mstore\n        /* \"#utility.yul\":11118:11122   */\n      0x11\n        /* \"#utility.yul\":11115:11116   */\n      0x04\n        /* \"#utility.yul\":11108:11123   */\n      mstore\n        /* \"#utility.yul\":11142:11146   */\n      0x24\n        /* \"#utility.yul\":11139:11140   */\n      0x00\n        /* \"#utility.yul\":11132:11147   */\n      revert\n        /* \"#utility.yul\":11159:11392   */\n    tag_75:\n        /* \"#utility.yul\":11198:11201   */\n      0x00\n        /* \"#utility.yul\":11221:11245   */\n      tag_297\n        /* \"#utility.yul\":11239:11244   */\n      dup3\n        /* \"#utility.yul\":11221:11245   */\n      tag_144\n      jump\t// in\n    tag_297:\n        /* \"#utility.yul\":11212:11245   */\n      swap2\n      pop\n        /* \"#utility.yul\":11267:11333   */\n      0xffffffffffffffffffffffffffffffffffffffffffffffffffffffffffffffff\n        /* \"#utility.yul\":11260:11265   */\n      dup3\n        /* \"#utility.yul\":11257:11334   */\n      sub\n        /* \"#utility.yul\":11254:11357   */\n      tag_298\n      jumpi\n        /* \"#utility.yul\":11337:11355   */\n      tag_299\n      tag_166\n      jump\t// in\n    tag_299:\n        /* \"#utility.yul\":11254:11357   */\n    tag_298:\n        /* \"#utility.yul\":11384:11385   */\n      0x01\n        /* \"#utility.yul\":11377:11382   */\n      dup3\n        /* \"#utility.yul\":11373:11386   */\n      add\n        /* \"#utility.yul\":11366:11386   */\n      swap1\n      pop\n        /* \"#utility.yul\":11159:11392   */\n      swap2\n      swap1\n      pop\n      jump\t// out\n        /* \"#utility.yul\":11398:11539   */\n    tag_167:\n        /* \"#utility.yul\":11447:11451   */\n      0x00\n        /* \"#utility.yul\":11470:11473   */\n      dup2\n        /* \"#utility.yul\":11462:11473   */\n      swap1\n      pop\n        /* \"#utility.yul\":11493:11496   */\n      dup2\n        /* \"#utility.yul\":11490:11491   */\n      0x00\n        /* \"#utility.yul\":11483:11497   */\n      mstore\n        /* \"#utility.yul\":11527:11531   */\n      0x20\n        /* \"#utility.yul\":11524:11525   */\n      0x00\n        /* \"#utility.yul\":11514:11532   */\n      keccak256\n        /* \"#utility.yul\":11506:11532   */\n      swap1\n      pop\n        /* \"#utility.yul\":11398:11539   */\n      swap2\n      swap1\n      pop\n      jump\t// out\n        /* \"#utility.yul\":11545:11638   */\n    tag_168:\n        /* \"#utility.yul\":11582:11588   */\n      0x00\n        /* \"#utility.yul\":11629:11631   */\n      0x20\n        /* \"#utility.yul\":11624:11626   */\n      0x1f\n        /* \"#utility.yul\":11617:11622   */\n      dup4\n        /* \"#utility.yul\":11613:11627   */\n      add\n        /* \"#utility.yul\":11609:11632   */\n      div\n        /* \"#utility.yul\":11599:11632   */\n      swap1\n      pop\n        /* \"#utility.yul\":11545:11638   */\n      swap2\n      swap1\n      pop\n      jump\t// out\n        /* \"#utility.yul\":11644:11751   */\n    tag_169:\n        /* \"#utility.yul\":11688:11696   */\n      0x00\n        /* \"#utility.yul\":11738:11743   */\n      dup3\n        /* \"#utility.yul\":11732:11736   */\n      dup3\n        /* \"#utility.yul\":11728:11744   */\n      shl\n        /* \"#utility.yul\":11707:11744   */\n      swap1\n      pop\n        /* \"#utility.yul\":11644:11751   */\n      swap3\n      swap2\n      pop\n      pop\n      jump\t// out\n        /* \"#utility.yul\":11757:12150   */\n    tag_170:\n        /* \"#utility.yul\":11826:11832   */\n      0x00\n        /* \"#utility.yul\":11876:11877   */\n      0x08\n        /* \"#utility.yul\":11864:11874   */\n      dup4\n        /* \"#utility.yul\":11860:11878   */\n      mul\n        /* \"#utility.yul\":11899:11996   */\n      tag_304\n        /* \"#utility.yul\":11929:11995   */\n      0xffffffffffffffffffffffffffffffffffffffffffffffffffffffffffffffff\n        /* \"#utility.yul\":11918:11927   */\n      dup3\n        /* \"#utility.yul\":11899:11996   */\n      tag_169\n      jump\t// in\n    tag_304:\n        /* \"#utility.yul\":12017:12056   */\n      tag_305\n        /* \"#utility.yul\":12047:12055   */\n      dup7\n        /* \"#utility.yul\":12036:12045   */\n      dup4\n        /* \"#utility.yul\":12017:12056   */\n      tag_169\n      jump\t// in\n    tag_305:\n        /* \"#utility.yul\":12005:12056   */\n      swap6\n      pop\n        /* \"#utility.yul\":12089:12093   */\n      dup1\n        /* \"#utility.yul\":12085:12094   */\n      not\n        /* \"#utility.yul\":12078:12083   */\n      dup5\n        /* \"#utility.yul\":12074:12095   */\n      and\n        /* \"#utility.yul\":12065:12095   */\n      swap4\n      pop\n        /* \"#utility.yul\":12138:12142   */\n      dup1\n        /* \"#utility.yul\":12128:12136   */\n      dup7\n        /* \"#utility.yul\":12124:12143   */\n      and\n        /* \"#utility.yul\":12117:12122   */\n      dup5\n        /* \"#utility.yul\":12114:12144   */\n      or\n        /* \"#utility.yul\":12104:12144   */\n      swap3\n      pop\n        /* \"#utility.yul\":11833:12150   */\n      pop\n      pop\n        /* \"#utility.yul\":11757:12150   */\n      swap4\n      swap3\n      pop\n      pop\n      pop\n      jump\t// out\n        /* \"#utility.yul\":12156:12216   */\n    tag_171:\n        /* \"#utility.yul\":12184:12187   */\n      0x00\n        /* \"#utility.yul\":12205:12210   */\n      dup2\n        /* \"#utility.yul\":12198:12210   */\n      swap1\n      pop\n        /* \"#utility.yul\":12156:12216   */\n      swap2\n      swap1\n      pop\n      jump\t// out\n        /* \"#utility.yul\":12222:12364   */\n    tag_172:\n        /* \"#utility.yul\":12272:12281   */\n      0x00\n        /* \"#utility.yul\":12305:12358   */\n      tag_308\n        /* \"#utility.yul\":12323:12357   */\n      tag_309\n        /* \"#utility.yul\":12332:12356   */\n      tag_310\n        /* \"#utility.yul\":12350:12355   */\n      dup5\n        /* \"#utility.yul\":12332:12356   */\n      tag_144\n      jump\t// in\n    tag_310:\n        /* \"#utility.yul\":12323:12357   */\n      tag_171\n      jump\t// in\n    tag_309:\n        /* \"#utility.yul\":12305:12358   */\n      tag_144\n      jump\t// in\n    tag_308:\n        /* \"#utility.yul\":12292:12358   */\n      swap1\n      pop\n        /* \"#utility.yul\":12222:12364   */\n      swap2\n      swap1\n      pop\n      jump\t// out\n        /* \"#utility.yul\":12370:12445   */\n    tag_173:\n        /* \"#utility.yul\":12413:12416   */\n      0x00\n        /* \"#utility.yul\":12434:12439   */\n      dup2\n        /* \"#utility.yul\":12427:12439   */\n      swap1\n      pop\n        /* \"#utility.yul\":12370:12445   */\n      swap2\n      swap1\n      pop\n      jump\t// out\n        /* \"#utility.yul\":12451:12720   */\n    tag_174:\n        /* \"#utility.yul\":12561:12600   */\n      tag_313\n        /* \"#utility.yul\":12592:12599   */\n      dup4\n        /* \"#utility.yul\":12561:12600   */\n      tag_172\n      jump\t// in\n    tag_313:\n        /* \"#utility.yul\":12622:12713   */\n      tag_314\n        /* \"#utility.yul\":12671:12712   */\n      tag_315\n        /* \"#utility.yul\":12695:12711   */\n      dup3\n        /* \"#utility.yul\":12671:12712   */\n      tag_173\n      jump\t// in\n    tag_315:\n        /* \"#utility.yul\":12663:12669   */\n      dup5\n        /* \"#utility.yul\":12656:12660   */\n      dup5\n        /* \"#utility.yul\":12650:12661   */\n      sload\n        /* \"#utility.yul\":12622:12713   */\n      tag_170\n      jump\t// in\n    tag_314:\n        /* \"#utility.yul\":12616:12620   */\n      dup3\n        /* \"#utility.yul\":12609:12714   */\n      sstore\n        /* \"#utility.yul\":12527:12720   */\n      pop\n        /* \"#utility.yul\":12451:12720   */\n      pop\n      pop\n      pop\n      jump\t// out\n        /* \"#utility.yul\":12726:12799   */\n    tag_175:\n        /* \"#utility.yul\":12771:12774   */\n      0x00\n        /* \"#utility.yul\":12726:12799   */\n      swap1\n      jump\t// out\n        /* \"#utility.yul\":12805:12994   */\n    tag_176:\n        /* \"#utility.yul\":12882:12914   */\n      tag_318\n      tag_175\n      jump\t// in\n    tag_318:\n        /* \"#utility.yul\":12923:12988   */\n      tag_319\n        /* \"#utility.yul\":12981:12987   */\n      dup2\n        /* \"#utility.yul\":12973:12979   */\n      dup5\n        /* \"#utility.yul\":12967:12971   */\n      dup5\n        /* \"#utility.yul\":12923:12988   */\n      tag_174\n      jump\t// in\n    tag_319:\n        /* \"#utility.yul\":12858:12994   */\n      pop\n        /* \"#utility.yul\":12805:12994   */\n      pop\n      pop\n      jump\t// out\n        /* \"#utility.yul\":13000:13186   */\n    tag_177:\n        /* \"#utility.yul\":13060:13180   */\n    tag_321:\n        /* \"#utility.yul\":13077:13080   */\n      dup2\n        /* \"#utility.yul\":13070:13075   */\n      dup2\n        /* \"#utility.yul\":13067:13081   */\n      lt\n        /* \"#utility.yul\":13060:13180   */\n      iszero\n      tag_323\n      jumpi\n        /* \"#utility.yul\":13131:13170   */\n      tag_324\n        /* \"#utility.yul\":13168:13169   */\n      0x00\n        /* \"#utility.yul\":13161:13166   */\n      dup3\n        /* \"#utility.yul\":13131:13170   */\n      tag_176\n      jump\t// in\n    tag_324:\n        /* \"#utility.yul\":13104:13105   */\n      0x01\n        /* \"#utility.yul\":13097:13102   */\n      dup2\n        /* \"#utility.yul\":13093:13106   */\n      add\n        /* \"#utility.yul\":13084:13106   */\n      swap1\n      pop\n        /* \"#utility.yul\":13060:13180   */\n      jump(tag_321)\n    tag_323:\n        /* \"#utility.yul\":13000:13186   */\n      pop\n      pop\n      jump\t// out\n        /* \"#utility.yul\":13192:13735   */\n    tag_178:\n        /* \"#utility.yul\":13293:13295   */\n      0x1f\n        /* \"#utility.yul\":13288:13291   */\n      dup3\n        /* \"#utility.yul\":13285:13296   */\n      gt\n        /* \"#utility.yul\":13282:13728   */\n      iszero\n      tag_326\n      jumpi\n        /* \"#utility.yul\":13327:13365   */\n      tag_327\n        /* \"#utility.yul\":13359:13364   */\n      dup2\n        /* \"#utility.yul\":13327:13365   */\n      tag_167\n      jump\t// in\n    tag_327:\n        /* \"#utility.yul\":13411:13440   */\n      tag_328\n        /* \"#utility.yul\":13429:13439   */\n      dup5\n        /* \"#utility.yul\":13411:13440   */\n      tag_168\n      jump\t// in\n    tag_328:\n        /* \"#utility.yul\":13401:13409   */\n      dup2\n        /* \"#utility.yul\":13397:13441   */\n      add\n        /* \"#utility.yul\":13594:13596   */\n      0x20\n        /* \"#utility.yul\":13582:13592   */\n      dup6\n        /* \"#utility.yul\":13579:13597   */\n      lt\n        /* \"#utility.yul\":13576:13625   */\n      iszero\n      tag_329\n      jumpi\n        /* \"#utility.yul\":13615:13623   */\n      dup2\n        /* \"#utility.yul\":13600:13623   */\n      swap1\n      pop\n        /* \"#utility.yul\":13576:13625   */\n    tag_329:\n        /* \"#utility.yul\":13638:13718   */\n      tag_330\n        /* \"#utility.yul\":13694:13716   */\n      tag_331\n        /* \"#utility.yul\":13712:13715   */\n      dup6\n        /* \"#utility.yul\":13694:13716   */\n      tag_168\n      jump\t// in\n    tag_331:\n        /* \"#utility.yul\":13684:13692   */\n      dup4\n        /* \"#utility.yul\":13680:13717   */\n      add\n        /* \"#utility.yul\":13667:13678   */\n      dup3\n        /* \"#utility.yul\":13638:13718   */\n      tag_177\n      jump\t// in\n    tag_330:\n        /* \"#utility.yul\":13297:13728   */\n      pop\n      pop\n        /* \"#utility.yul\":13282:13728   */\n    tag_326:\n        /* \"#utility.yul\":13192:13735   */\n      pop\n      pop\n      pop\n      jump\t// out\n        /* \"#utility.yul\":13741:13858   */\n    tag_179:\n        /* \"#utility.yul\":13795:13803   */\n      0x00\n        /* \"#utility.yul\":13845:13850   */\n      dup3\n        /* \"#utility.yul\":13839:13843   */\n      dup3\n        /* \"#utility.yul\":13835:13851   */\n      shr\n        /* \"#utility.yul\":13814:13851   */\n      swap1\n      pop\n        /* \"#utility.yul\":13741:13858   */\n      swap3\n      swap2\n      pop\n      pop\n      jump\t// out\n        /* \"#utility.yul\":13864:14033   */\n    tag_180:\n        /* \"#utility.yul\":13908:13914   */\n      0x00\n        /* \"#utility.yul\":13941:13992   */\n      tag_334\n        /* \"#utility.yul\":13989:13990   */\n      0x00\n        /* \"#utility.yul\":13985:13991   */\n      not\n        /* \"#utility.yul\":13977:13982   */\n      dup5\n        /* \"#utility.yul\":13974:13975   */\n      0x08\n        /* \"#utility.yul\":13970:13983   */\n      mul\n        /* \"#utility.yul\":13941:13992   */\n      tag_179\n      jump\t// in\n    tag_334:\n        /* \"#utility.yul\":13937:13993   */\n      not\n        /* \"#utility.yul\":14022:14026   */\n      dup1\n        /* \"#utility.yul\":14016:14020   */\n      dup4\n        /* \"#utility.yul\":14012:14027   */\n      and\n        /* \"#utility.yul\":14002:14027   */\n      swap2\n      pop\n        /* \"#utility.yul\":13915:14033   */\n      pop\n        /* \"#utility.yul\":13864:14033   */\n      swap3\n      swap2\n      pop\n      pop\n      jump\t// out\n        /* \"#utility.yul\":14038:14333   */\n    tag_181:\n        /* \"#utility.yul\":14114:14118   */\n      0x00\n        /* \"#utility.yul\":14260:14289   */\n      tag_336\n        /* \"#utility.yul\":14285:14288   */\n      dup4\n        /* \"#utility.yul\":14279:14283   */\n      dup4\n        /* \"#utility.yul\":14260:14289   */\n      tag_180\n      jump\t// in\n    tag_336:\n        /* \"#utility.yul\":14252:14289   */\n      swap2\n      pop\n        /* \"#utility.yul\":14322:14325   */\n      dup3\n        /* \"#utility.yul\":14319:14320   */\n      0x02\n        /* \"#utility.yul\":14315:14326   */\n      mul\n        /* \"#utility.yul\":14309:14313   */\n      dup3\n        /* \"#utility.yul\":14306:14327   */\n      or\n        /* \"#utility.yul\":14298:14327   */\n      swap1\n      pop\n        /* \"#utility.yul\":14038:14333   */\n      swap3\n      swap2\n      pop\n      pop\n      jump\t// out\n        /* \"#utility.yul\":14338:15733   */\n    tag_77:\n        /* \"#utility.yul\":14455:14492   */\n      tag_338\n        /* \"#utility.yul\":14488:14491   */\n      dup3\n        /* \"#utility.yul\":14455:14492   */\n      tag_148\n      jump\t// in\n    tag_338:\n        /* \"#utility.yul\":14557:14575   */\n      0xffffffffffffffff\n        /* \"#utility.yul\":14549:14555   */\n      dup2\n        /* \"#utility.yul\":14546:14576   */\n      gt\n        /* \"#utility.yul\":14543:14599   */\n      iszero\n      tag_339\n      jumpi\n        /* \"#utility.yul\":14579:14597   */\n      tag_340\n      tag_158\n      jump\t// in\n    tag_340:\n        /* \"#utility.yul\":14543:14599   */\n    tag_339:\n        /* \"#utility.yul\":14623:14661   */\n      tag_341\n        /* \"#utility.yul\":14655:14659   */\n      dup3\n        /* \"#utility.yul\":14649:14660   */\n      sload\n        /* \"#utility.yul\":14623:14661   */\n      tag_52\n      jump\t// in\n    tag_341:\n        /* \"#utility.yul\":14708:14775   */\n      tag_342\n        /* \"#utility.yul\":14768:14774   */\n      dup3\n        /* \"#utility.yul\":14760:14766   */\n      dup3\n        /* \"#utility.yul\":14754:14758   */\n      dup6\n        /* \"#utility.yul\":14708:14775   */\n      tag_178\n      jump\t// in\n    tag_342:\n        /* \"#utility.yul\":14802:14803   */\n      0x00\n        /* \"#utility.yul\":14826:14830   */\n      0x20\n        /* \"#utility.yul\":14813:14830   */\n      swap1\n      pop\n        /* \"#utility.yul\":14858:14860   */\n      0x1f\n        /* \"#utility.yul\":14850:14856   */\n      dup4\n        /* \"#utility.yul\":14847:14861   */\n      gt\n        /* \"#utility.yul\":14875:14876   */\n      0x01\n        /* \"#utility.yul\":14870:15488   */\n      dup2\n      eq\n      tag_344\n      jumpi\n        /* \"#utility.yul\":15532:15533   */\n      0x00\n        /* \"#utility.yul\":15549:15555   */\n      dup5\n        /* \"#utility.yul\":15546:15623   */\n      iszero\n      tag_345\n      jumpi\n        /* \"#utility.yul\":15598:15607   */\n      dup3\n        /* \"#utility.yul\":15593:15596   */\n      dup8\n        /* \"#utility.yul\":15589:15608   */\n      add\n        /* \"#utility.yul\":15583:15609   */\n      mload\n        /* \"#utility.yul\":15574:15609   */\n      swap1\n      pop\n        /* \"#utility.yul\":15546:15623   */\n    tag_345:\n        /* \"#utility.yul\":15649:15716   */\n      tag_346\n        /* \"#utility.yul\":15709:15715   */\n      dup6\n        /* \"#utility.yul\":15702:15707   */\n      dup3\n        /* \"#utility.yul\":15649:15716   */\n      tag_181\n      jump\t// in\n    tag_346:\n        /* \"#utility.yul\":15643:15647   */\n      dup7\n        /* \"#utility.yul\":15636:15717   */\n      sstore\n        /* \"#utility.yul\":15505:15727   */\n      pop\n        /* \"#utility.yul\":14840:15727   */\n      jump(tag_343)\n        /* \"#utility.yul\":14870:15488   */\n    tag_344:\n        /* \"#utility.yul\":14922:14926   */\n      0x1f\n        /* \"#utility.yul\":14918:14927   */\n      not\n        /* \"#utility.yul\":14910:14916   */\n      dup5\n        /* \"#utility.yul\":14906:14928   */\n      and\n        /* \"#utility.yul\":14956:14993   */\n      tag_347\n        /* \"#utility.yul\":14988:14992   */\n      dup7\n        /* \"#utility.yul\":14956:14993   */\n      tag_167\n      jump\t// in\n    tag_347:\n        /* \"#utility.yul\":15015:15016   */\n      0x00\n        /* \"#utility.yul\":15029:15237   */\n    tag_348:\n        /* \"#utility.yul\":15043:15050   */\n      dup3\n        /* \"#utility.yul\":15040:15041   */\n      dup2\n        /* \"#utility.yul\":15037:15051   */\n      lt\n        /* \"#utility.yul\":15029:15237   */\n      iszero\n      tag_350\n      jumpi\n        /* \"#utility.yul\":15122:15131   */\n      dup5\n        /* \"#utility.yul\":15117:15120   */\n      dup10\n        /* \"#utility.yul\":15113:15132   */\n      add\n        /* \"#utility.yul\":15107:15133   */\n      mload\n        /* \"#utility.yul\":15099:15105   */\n      dup3\n        /* \"#utility.yul\":15092:15134   */\n      sstore\n        /* \"#utility.yul\":15173:15174   */\n      0x01\n        /* \"#utility.yul\":15165:15171   */\n      dup3\n        /* \"#utility.yul\":15161:15175   */\n      add\n        /* \"#utility.yul\":15151:15175   */\n      swap2\n      pop\n        /* \"#utility.yul\":15220:15222   */\n      0x20\n        /* \"#utility.yul\":15209:15218   */\n      dup6\n        /* \"#utility.yul\":15205:15223   */\n      add\n        /* \"#utility.yul\":15192:15223   */\n      swap5\n      pop\n        /* \"#utility.yul\":15066:15070   */\n      0x20\n        /* \"#utility.yul\":15063:15064   */\n      dup2\n        /* \"#utility.yul\":15059:15071   */\n      add\n        /* \"#utility.yul\":15054:15071   */\n      swap1\n      pop\n        /* \"#utility.yul\":15029:15237   */\n      jump(tag_348)\n    tag_350:\n        /* \"#utility.yul\":15265:15271   */\n      dup7\n        /* \"#utility.yul\":15256:15263   */\n      dup4\n        /* \"#utility.yul\":15253:15272   */\n      lt\n        /* \"#utility.yul\":15250:15429   */\n      iszero\n      tag_351\n      jumpi\n        /* \"#utility.yul\":15323:15332   */\n      dup5\n        /* \"#utility.yul\":15318:15321   */\n      dup10\n        /* \"#utility.yul\":15314:15333   */\n      add\n        /* \"#utility.yul\":15308:15334   */\n      mload\n        /* \"#utility.yul\":15366:15414   */\n      tag_352\n        /* \"#utility.yul\":15408:15412   */\n      0x1f\n        /* \"#utility.yul\":15400:15406   */\n      dup10\n        /* \"#utility.yul\":15396:15413   */\n      and\n        /* \"#utility.yul\":15385:15394   */\n      dup3\n        /* \"#utility.yul\":15366:15414   */\n      tag_180\n      jump\t// in\n    tag_352:\n        /* \"#utility.yul\":15358:15364   */\n      dup4\n        /* \"#utility.yul\":15351:15415   */\n      sstore\n        /* \"#utility.yul\":15273:15429   */\n      pop\n        /* \"#utility.yul\":15250:15429   */\n    tag_351:\n        /* \"#utility.yul\":15475:15476   */\n      0x01\n        /* \"#utility.yul\":15471:15472   */\n      0x02\n        /* \"#utility.yul\":15463:15469   */\n      dup9\n        /* \"#utility.yul\":15459:15473   */\n      mul\n        /* \"#utility.yul\":15455:15477   */\n      add\n        /* \"#utility.yul\":15449:15453   */\n      dup9\n        /* \"#utility.yul\":15442:15478   */\n      sstore\n        /* \"#utility.yul\":14877:15488   */\n      pop\n      pop\n      pop\n        /* \"#utility.yul\":14840:15727   */\n    tag_343:\n      pop\n        /* \"#utility.yul\":14430:15733   */\n      pop\n      pop\n      pop\n        /* \"#utility.yul\":14338:15733   */\n      pop\n      pop\n      jump\t// out\n        /* \"#utility.yul\":15739:15930   */\n    tag_135:\n        /* \"#utility.yul\":15779:15782   */\n      0x00\n        /* \"#utility.yul\":15798:15818   */\n      tag_354\n        /* \"#utility.yul\":15816:15817   */\n      dup3\n        /* \"#utility.yul\":15798:15818   */\n      tag_144\n      jump\t// in\n    tag_354:\n        /* \"#utility.yul\":15793:15818   */\n      swap2\n      pop\n        /* \"#utility.yul\":15832:15852   */\n      tag_355\n        /* \"#utility.yul\":15850:15851   */\n      dup4\n        /* \"#utility.yul\":15832:15852   */\n      tag_144\n      jump\t// in\n    tag_355:\n        /* \"#utility.yul\":15827:15852   */\n      swap3\n      pop\n        /* \"#utility.yul\":15875:15876   */\n      dup3\n        /* \"#utility.yul\":15872:15873   */\n      dup3\n        /* \"#utility.yul\":15868:15877   */\n      add\n        /* \"#utility.yul\":15861:15877   */\n      swap1\n      pop\n        /* \"#utility.yul\":15896:15899   */\n      dup1\n        /* \"#utility.yul\":15893:15894   */\n      dup3\n        /* \"#utility.yul\":15890:15900   */\n      gt\n        /* \"#utility.yul\":15887:15923   */\n      iszero\n      tag_356\n      jumpi\n        /* \"#utility.yul\":15903:15921   */\n      tag_357\n      tag_166\n      jump\t// in\n    tag_357:\n        /* \"#utility.yul\":15887:15923   */\n    tag_356:\n        /* \"#utility.yul\":15739:15930   */\n      swap3\n      swap2\n      pop\n      pop\n      jump\t// out\n\n    auxdata: 0xa2646970667358221220ee879ff38221bc873ba2dba7dd01ae76933c073b95d8b92ab8c0ce4853f4078a64736f6c63430008160033\n}\n",
				"bytecode": {
					"linkReferences": {},
					"object": "608060405234801561000f575f80fd5b506116b48061001d5f395ff3fe608060405234801561000f575f80fd5b5060043610610091575f3560e01c8063558e0a7b11610064578063558e0a7b1461013b57806363de5323146101575780638798a47b1461018d578063bfc7a66e146101c3578063fa6b104a146101df57610091565b8063180aedf31461009557806318f53993146100ca5780634c5d8a0f146100e85780634cac35c614610106575b5f80fd5b6100af60048036038101906100aa9190610e00565b6101fb565b6040516100c196959493929190610f03565b60405180910390f35b6100d261035e565b6040516100df9190610f70565b60405180910390f35b6100f0610364565b6040516100fd9190610f70565b60405180910390f35b610120600480360381019061011b9190610e00565b61036a565b60405161013296959493929190610f03565b60405180910390f35b610155600480360381019061015091906110b5565b610555565b005b610171600480360381019061016c9190610e00565b61063d565b60405161018497969594939291906111b8565b60405180910390f35b6101a760048036038101906101a29190610e00565b610918565b6040516101ba97969594939291906111b8565b60405180910390f35b6101dd60048036038101906101d89190611248565b610c5f565b005b6101f960048036038101906101f49190611286565b610cb7565b005b6001602052805f5260405f205f91509050805f0154908060010180546102209061133b565b80601f016020809104026020016040519081016040528092919081815260200182805461024c9061133b565b80156102975780601f1061026e57610100808354040283529160200191610297565b820191905f5260205f20905b81548152906001019060200180831161027a57829003601f168201915b5050505050908060020180546102ac9061133b565b80601f01602080910402602001604051908101604052809291908181526020018280546102d89061133b565b80156103235780601f106102fa57610100808354040283529160200191610323565b820191905f5260205f20905b81548152906001019060200180831161030657829003601f168201915b505050505090806003015490806004015f9054906101000a900473ffffffffffffffffffffffffffffffffffffffff16908060050154905086565b60025481565b60035481565b5f6060805f805f8060015f8981526020019081526020015f206040518060c00160405290815f82015481526020016001820180546103a79061133b565b80601f01602080910402602001604051908101604052809291908181526020018280546103d39061133b565b801561041e5780601f106103f55761010080835404028352916020019161041e565b820191905f5260205f20905b81548152906001019060200180831161040157829003601f168201915b505050505081526020016002820180546104379061133b565b80601f01602080910402602001604051908101604052809291908181526020018280546104639061133b565b80156104ae5780601f10610485576101008083540402835291602001916104ae565b820191905f5260205f20905b81548152906001019060200180831161049157829003601f168201915b5050505050815260200160038201548152602001600482015f9054906101000a900473ffffffffffffffffffffffffffffffffffffffff1673ffffffffffffffffffffffffffffffffffffffff1673ffffffffffffffffffffffffffffffffffffffff1681526020016005820154815250509050805f015181602001518260400151836060015184608001518560a001519650965096509650965096505091939550919395565b60025f81548092919061056790611398565b91905055506040518060e0016040528060025481526020018681526020018581526020018481526020018381526020018281526020015f8152505f8060025481526020019081526020015f205f820151815f015560208201518160010190816105d0919061157c565b5060408201518160020190816105e6919061157c565b5060608201518160030190816105fc919061157c565b506080820151816004019081610612919061157c565b5060a0820151816005019081610628919061157c565b5060c082015181600601559050505050505050565b5f602052805f5260405f205f91509050805f0154908060010180546106619061133b565b80601f016020809104026020016040519081016040528092919081815260200182805461068d9061133b565b80156106d85780601f106106af576101008083540402835291602001916106d8565b820191905f5260205f20905b8154815290600101906020018083116106bb57829003601f168201915b5050505050908060020180546106ed9061133b565b80601f01602080910402602001604051908101604052809291908181526020018280546107199061133b565b80156107645780601f1061073b57610100808354040283529160200191610764565b820191905f5260205f20905b81548152906001019060200180831161074757829003601f168201915b5050505050908060030180546107799061133b565b80601f01602080910402602001604051908101604052809291908181526020018280546107a59061133b565b80156107f05780601f106107c7576101008083540402835291602001916107f0565b820191905f5260205f20905b8154815290600101906020018083116107d357829003601f168201915b5050505050908060040180546108059061133b565b80601f01602080910402602001604051908101604052809291908181526020018280546108319061133b565b801561087c5780601f106108535761010080835404028352916020019161087c565b820191905f5260205f20905b81548152906001019060200180831161085f57829003601f168201915b5050505050908060050180546108919061133b565b80601f01602080910402602001604051908101604052809291908181526020018280546108bd9061133b565b80156109085780601f106108df57610100808354040283529160200191610908565b820191905f5260205f20905b8154815290600101906020018083116108eb57829003601f168201915b5050505050908060060154905087565b5f60608060608060605f805f808a81526020019081526020015f206040518060e00160405290815f82015481526020016001820180546109579061133b565b80601f01602080910402602001604051908101604052809291908181526020018280546109839061133b565b80156109ce5780601f106109a5576101008083540402835291602001916109ce565b820191905f5260205f20905b8154815290600101906020018083116109b157829003601f168201915b505050505081526020016002820180546109e79061133b565b80601f0160208091040260200160405190810160405280929190818152602001828054610a139061133b565b8015610a5e5780601f10610a3557610100808354040283529160200191610a5e565b820191905f5260205f20905b815481529060010190602001808311610a4157829003601f168201915b50505050508152602001600382018054610a779061133b565b80601f0160208091040260200160405190810160405280929190818152602001828054610aa39061133b565b8015610aee5780601f10610ac557610100808354040283529160200191610aee565b820191905f5260205f20905b815481529060010190602001808311610ad157829003601f168201915b50505050508152602001600482018054610b079061133b565b80601f0160208091040260200160405190810160405280929190818152602001828054610b339061133b565b8015610b7e5780601f10610b5557610100808354040283529160200191610b7e565b820191905f5260205f20905b815481529060010190602001808311610b6157829003601f168201915b50505050508152602001600582018054610b979061133b565b80601f0160208091040260200160405190810160405280929190818152602001828054610bc39061133b565b8015610c0e5780601f10610be557610100808354040283529160200191610c0e565b820191905f5260205f20905b815481529060010190602001808311610bf157829003601f168201915b505050505081526020016006820154815250509050805f015181602001518260400151836060015184608001518560a001518660c00151975097509750975097509750975050919395979092949650565b60015f808481526020019081526020015f206006015f828254610c82919061164b565b925050819055506001805f8381526020019081526020015f206005015f828254610cac919061164b565b925050819055505050565b60035f815480929190610cc990611398565b91905055506040518060c0016040528060035481526020018481526020018381526020018281526020013373ffffffffffffffffffffffffffffffffffffffff1681526020015f81525060015f60035481526020019081526020015f205f820151815f01556020820151816001019081610d43919061157c565b506040820151816002019081610d59919061157c565b50606082015181600301556080820151816004015f6101000a81548173ffffffffffffffffffffffffffffffffffffffff021916908373ffffffffffffffffffffffffffffffffffffffff16021790555060a08201518160050155905050505050565b5f604051905090565b5f80fd5b5f80fd5b5f819050919050565b610ddf81610dcd565b8114610de9575f80fd5b50565b5f81359050610dfa81610dd6565b92915050565b5f60208284031215610e1557610e14610dc5565b5b5f610e2284828501610dec565b91505092915050565b610e3481610dcd565b82525050565b5f81519050919050565b5f82825260208201905092915050565b5f5b83811015610e71578082015181840152602081019050610e56565b5f8484015250505050565b5f601f19601f8301169050919050565b5f610e9682610e3a565b610ea08185610e44565b9350610eb0818560208601610e54565b610eb981610e7c565b840191505092915050565b5f73ffffffffffffffffffffffffffffffffffffffff82169050919050565b5f610eed82610ec4565b9050919050565b610efd81610ee3565b82525050565b5f60c082019050610f165f830189610e2b565b8181036020830152610f288188610e8c565b90508181036040830152610f3c8187610e8c565b9050610f4b6060830186610e2b565b610f586080830185610ef4565b610f6560a0830184610e2b565b979650505050505050565b5f602082019050610f835f830184610e2b565b92915050565b5f80fd5b5f80fd5b7f4e487b71000000000000000000000000000000000000000000000000000000005f52604160045260245ffd5b610fc782610e7c565b810181811067ffffffffffffffff82111715610fe657610fe5610f91565b5b80604052505050565b5f610ff8610dbc565b90506110048282610fbe565b919050565b5f67ffffffffffffffff82111561102357611022610f91565b5b61102c82610e7c565b9050602081019050919050565b828183375f83830152505050565b5f61105961105484611009565b610fef565b90508281526020810184848401111561107557611074610f8d565b5b611080848285611039565b509392505050565b5f82601f83011261109c5761109b610f89565b5b81356110ac848260208601611047565b91505092915050565b5f805f805f60a086880312156110ce576110cd610dc5565b5b5f86013567ffffffffffffffff8111156110eb576110ea610dc9565b5b6110f788828901611088565b955050602086013567ffffffffffffffff81111561111857611117610dc9565b5b61112488828901611088565b945050604086013567ffffffffffffffff81111561114557611144610dc9565b5b61115188828901611088565b935050606086013567ffffffffffffffff81111561117257611171610dc9565b5b61117e88828901611088565b925050608086013567ffffffffffffffff81111561119f5761119e610dc9565b5b6111ab88828901611088565b9150509295509295909350565b5f60e0820190506111cb5f83018a610e2b565b81810360208301526111dd8189610e8c565b905081810360408301526111f18188610e8c565b905081810360608301526112058187610e8c565b905081810360808301526112198186610e8c565b905081810360a083015261122d8185610e8c565b905061123c60c0830184610e2b565b98975050505050505050565b5f806040838503121561125e5761125d610dc5565b5b5f61126b85828601610dec565b925050602061127c85828601610dec565b9150509250929050565b5f805f6060848603121561129d5761129c610dc5565b5b5f84013567ffffffffffffffff8111156112ba576112b9610dc9565b5b6112c686828701611088565b935050602084013567ffffffffffffffff8111156112e7576112e6610dc9565b5b6112f386828701611088565b925050604061130486828701610dec565b9150509250925092565b7f4e487b71000000000000000000000000000000000000000000000000000000005f52602260045260245ffd5b5f600282049050600182168061135257607f821691505b6020821081036113655761136461130e565b5b50919050565b7f4e487b71000000000000000000000000000000000000000000000000000000005f52601160045260245ffd5b5f6113a282610dcd565b91507fffffffffffffffffffffffffffffffffffffffffffffffffffffffffffffffff82036113d4576113d361136b565b5b600182019050919050565b5f819050815f5260205f209050919050565b5f6020601f8301049050919050565b5f82821b905092915050565b5f6008830261143b7fffffffffffffffffffffffffffffffffffffffffffffffffffffffffffffffff82611400565b6114458683611400565b95508019841693508086168417925050509392505050565b5f819050919050565b5f61148061147b61147684610dcd565b61145d565b610dcd565b9050919050565b5f819050919050565b61149983611466565b6114ad6114a582611487565b84845461140c565b825550505050565b5f90565b6114c16114b5565b6114cc818484611490565b505050565b5b818110156114ef576114e45f826114b9565b6001810190506114d2565b5050565b601f82111561153457611505816113df565b61150e846113f1565b8101602085101561151d578190505b611531611529856113f1565b8301826114d1565b50505b505050565b5f82821c905092915050565b5f6115545f1984600802611539565b1980831691505092915050565b5f61156c8383611545565b9150826002028217905092915050565b61158582610e3a565b67ffffffffffffffff81111561159e5761159d610f91565b5b6115a8825461133b565b6115b38282856114f3565b5f60209050601f8311600181146115e4575f84156115d2578287015190505b6115dc8582611561565b865550611643565b601f1984166115f2866113df565b5f5b82811015611619578489015182556001820191506020850194506020810190506115f4565b868310156116365784890151611632601f891682611545565b8355505b6001600288020188555050505b505050505050565b5f61165582610dcd565b915061166083610dcd565b92508282019050808211156116785761167761136b565b5b9291505056fea2646970667358221220ee879ff38221bc873ba2dba7dd01ae76933c073b95d8b92ab8c0ce4853f4078a64736f6c63430008160033",
					"opcodes": "PUSH1 0x80 PUSH1 0x40 MSTORE CALLVALUE DUP1 ISZERO PUSH2 0xF JUMPI PUSH0 DUP1 REVERT JUMPDEST POP PUSH2 0x16B4 DUP1 PUSH2 0x1D PUSH0 CODECOPY PUSH0 RETURN INVALID PUSH1 0x80 PUSH1 0x40 MSTORE CALLVALUE DUP1 ISZERO PUSH2 0xF JUMPI PUSH0 DUP1 REVERT JUMPDEST POP PUSH1 0x4 CALLDATASIZE LT PUSH2 0x91 JUMPI PUSH0 CALLDATALOAD PUSH1 0xE0 SHR DUP1 PUSH4 0x558E0A7B GT PUSH2 0x64 JUMPI DUP1 PUSH4 0x558E0A7B EQ PUSH2 0x13B JUMPI DUP1 PUSH4 0x63DE5323 EQ PUSH2 0x157 JUMPI DUP1 PUSH4 0x8798A47B EQ PUSH2 0x18D JUMPI DUP1 PUSH4 0xBFC7A66E EQ PUSH2 0x1C3 JUMPI DUP1 PUSH4 0xFA6B104A EQ PUSH2 0x1DF JUMPI PUSH2 0x91 JUMP JUMPDEST DUP1 PUSH4 0x180AEDF3 EQ PUSH2 0x95 JUMPI DUP1 PUSH4 0x18F53993 EQ PUSH2 0xCA JUMPI DUP1 PUSH4 0x4C5D8A0F EQ PUSH2 0xE8 JUMPI DUP1 PUSH4 0x4CAC35C6 EQ PUSH2 0x106 JUMPI JUMPDEST PUSH0 DUP1 REVERT JUMPDEST PUSH2 0xAF PUSH1 0x4 DUP1 CALLDATASIZE SUB DUP2 ADD SWAP1 PUSH2 0xAA SWAP2 SWAP1 PUSH2 0xE00 JUMP JUMPDEST PUSH2 0x1FB JUMP JUMPDEST PUSH1 0x40 MLOAD PUSH2 0xC1 SWAP7 SWAP6 SWAP5 SWAP4 SWAP3 SWAP2 SWAP1 PUSH2 0xF03 JUMP JUMPDEST PUSH1 0x40 MLOAD DUP1 SWAP2 SUB SWAP1 RETURN JUMPDEST PUSH2 0xD2 PUSH2 0x35E JUMP JUMPDEST PUSH1 0x40 MLOAD PUSH2 0xDF SWAP2 SWAP1 PUSH2 0xF70 JUMP JUMPDEST PUSH1 0x40 MLOAD DUP1 SWAP2 SUB SWAP1 RETURN JUMPDEST PUSH2 0xF0 PUSH2 0x364 JUMP JUMPDEST PUSH1 0x40 MLOAD PUSH2 0xFD SWAP2 SWAP1 PUSH2 0xF70 JUMP JUMPDEST PUSH1 0x40 MLOAD DUP1 SWAP2 SUB SWAP1 RETURN JUMPDEST PUSH2 0x120 PUSH1 0x4 DUP1 CALLDATASIZE SUB DUP2 ADD SWAP1 PUSH2 0x11B SWAP2 SWAP1 PUSH2 0xE00 JUMP JUMPDEST PUSH2 0x36A JUMP JUMPDEST PUSH1 0x40 MLOAD PUSH2 0x132 SWAP7 SWAP6 SWAP5 SWAP4 SWAP3 SWAP2 SWAP1 PUSH2 0xF03 JUMP JUMPDEST PUSH1 0x40 MLOAD DUP1 SWAP2 SUB SWAP1 RETURN JUMPDEST PUSH2 0x155 PUSH1 0x4 DUP1 CALLDATASIZE SUB DUP2 ADD SWAP1 PUSH2 0x150 SWAP2 SWAP1 PUSH2 0x10B5 JUMP JUMPDEST PUSH2 0x555 JUMP JUMPDEST STOP JUMPDEST PUSH2 0x171 PUSH1 0x4 DUP1 CALLDATASIZE SUB DUP2 ADD SWAP1 PUSH2 0x16C SWAP2 SWAP1 PUSH2 0xE00 JUMP JUMPDEST PUSH2 0x63D JUMP JUMPDEST PUSH1 0x40 MLOAD PUSH2 0x184 SWAP8 SWAP7 SWAP6 SWAP5 SWAP4 SWAP3 SWAP2 SWAP1 PUSH2 0x11B8 JUMP JUMPDEST PUSH1 0x40 MLOAD DUP1 SWAP2 SUB SWAP1 RETURN JUMPDEST PUSH2 0x1A7 PUSH1 0x4 DUP1 CALLDATASIZE SUB DUP2 ADD SWAP1 PUSH2 0x1A2 SWAP2 SWAP1 PUSH2 0xE00 JUMP JUMPDEST PUSH2 0x918 JUMP JUMPDEST PUSH1 0x40 MLOAD PUSH2 0x1BA SWAP8 SWAP7 SWAP6 SWAP5 SWAP4 SWAP3 SWAP2 SWAP1 PUSH2 0x11B8 JUMP JUMPDEST PUSH1 0x40 MLOAD DUP1 SWAP2 SUB SWAP1 RETURN JUMPDEST PUSH2 0x1DD PUSH1 0x4 DUP1 CALLDATASIZE SUB DUP2 ADD SWAP1 PUSH2 0x1D8 SWAP2 SWAP1 PUSH2 0x1248 JUMP JUMPDEST PUSH2 0xC5F JUMP JUMPDEST STOP JUMPDEST PUSH2 0x1F9 PUSH1 0x4 DUP1 CALLDATASIZE SUB DUP2 ADD SWAP1 PUSH2 0x1F4 SWAP2 SWAP1 PUSH2 0x1286 JUMP JUMPDEST PUSH2 0xCB7 JUMP JUMPDEST STOP JUMPDEST PUSH1 0x1 PUSH1 0x20 MSTORE DUP1 PUSH0 MSTORE PUSH1 0x40 PUSH0 KECCAK256 PUSH0 SWAP2 POP SWAP1 POP DUP1 PUSH0 ADD SLOAD SWAP1 DUP1 PUSH1 0x1 ADD DUP1 SLOAD PUSH2 0x220 SWAP1 PUSH2 0x133B JUMP JUMPDEST DUP1 PUSH1 0x1F ADD PUSH1 0x20 DUP1 SWAP2 DIV MUL PUSH1 0x20 ADD PUSH1 0x40 MLOAD SWAP1 DUP2 ADD PUSH1 0x40 MSTORE DUP1 SWAP3 SWAP2 SWAP1 DUP2 DUP2 MSTORE PUSH1 0x20 ADD DUP3 DUP1 SLOAD PUSH2 0x24C SWAP1 PUSH2 0x133B JUMP JUMPDEST DUP1 ISZERO PUSH2 0x297 JUMPI DUP1 PUSH1 0x1F LT PUSH2 0x26E JUMPI PUSH2 0x100 DUP1 DUP4 SLOAD DIV MUL DUP4 MSTORE SWAP2 PUSH1 0x20 ADD SWAP2 PUSH2 0x297 JUMP JUMPDEST DUP3 ADD SWAP2 SWAP1 PUSH0 MSTORE PUSH1 0x20 PUSH0 KECCAK256 SWAP1 JUMPDEST DUP2 SLOAD DUP2 MSTORE SWAP1 PUSH1 0x1 ADD SWAP1 PUSH1 0x20 ADD DUP1 DUP4 GT PUSH2 0x27A JUMPI DUP3 SWAP1 SUB PUSH1 0x1F AND DUP3 ADD SWAP2 JUMPDEST POP POP POP POP POP SWAP1 DUP1 PUSH1 0x2 ADD DUP1 SLOAD PUSH2 0x2AC SWAP1 PUSH2 0x133B JUMP JUMPDEST DUP1 PUSH1 0x1F ADD PUSH1 0x20 DUP1 SWAP2 DIV MUL PUSH1 0x20 ADD PUSH1 0x40 MLOAD SWAP1 DUP2 ADD PUSH1 0x40 MSTORE DUP1 SWAP3 SWAP2 SWAP1 DUP2 DUP2 MSTORE PUSH1 0x20 ADD DUP3 DUP1 SLOAD PUSH2 0x2D8 SWAP1 PUSH2 0x133B JUMP JUMPDEST DUP1 ISZERO PUSH2 0x323 JUMPI DUP1 PUSH1 0x1F LT PUSH2 0x2FA JUMPI PUSH2 0x100 DUP1 DUP4 SLOAD DIV MUL DUP4 MSTORE SWAP2 PUSH1 0x20 ADD SWAP2 PUSH2 0x323 JUMP JUMPDEST DUP3 ADD SWAP2 SWAP1 PUSH0 MSTORE PUSH1 0x20 PUSH0 KECCAK256 SWAP1 JUMPDEST DUP2 SLOAD DUP2 MSTORE SWAP1 PUSH1 0x1 ADD SWAP1 PUSH1 0x20 ADD DUP1 DUP4 GT PUSH2 0x306 JUMPI DUP3 SWAP1 SUB PUSH1 0x1F AND DUP3 ADD SWAP2 JUMPDEST POP POP POP POP POP SWAP1 DUP1 PUSH1 0x3 ADD SLOAD SWAP1 DUP1 PUSH1 0x4 ADD PUSH0 SWAP1 SLOAD SWAP1 PUSH2 0x100 EXP SWAP1 DIV PUSH20 0xFFFFFFFFFFFFFFFFFFFFFFFFFFFFFFFFFFFFFFFF AND SWAP1 DUP1 PUSH1 0x5 ADD SLOAD SWAP1 POP DUP7 JUMP JUMPDEST PUSH1 0x2 SLOAD DUP2 JUMP JUMPDEST PUSH1 0x3 SLOAD DUP2 JUMP JUMPDEST PUSH0 PUSH1 0x60 DUP1 PUSH0 DUP1 PUSH0 DUP1 PUSH1 0x1 PUSH0 DUP10 DUP2 MSTORE PUSH1 0x20 ADD SWAP1 DUP2 MSTORE PUSH1 0x20 ADD PUSH0 KECCAK256 PUSH1 0x40 MLOAD DUP1 PUSH1 0xC0 ADD PUSH1 0x40 MSTORE SWAP1 DUP2 PUSH0 DUP3 ADD SLOAD DUP2 MSTORE PUSH1 0x20 ADD PUSH1 0x1 DUP3 ADD DUP1 SLOAD PUSH2 0x3A7 SWAP1 PUSH2 0x133B JUMP JUMPDEST DUP1 PUSH1 0x1F ADD PUSH1 0x20 DUP1 SWAP2 DIV MUL PUSH1 0x20 ADD PUSH1 0x40 MLOAD SWAP1 DUP2 ADD PUSH1 0x40 MSTORE DUP1 SWAP3 SWAP2 SWAP1 DUP2 DUP2 MSTORE PUSH1 0x20 ADD DUP3 DUP1 SLOAD PUSH2 0x3D3 SWAP1 PUSH2 0x133B JUMP JUMPDEST DUP1 ISZERO PUSH2 0x41E JUMPI DUP1 PUSH1 0x1F LT PUSH2 0x3F5 JUMPI PUSH2 0x100 DUP1 DUP4 SLOAD DIV MUL DUP4 MSTORE SWAP2 PUSH1 0x20 ADD SWAP2 PUSH2 0x41E JUMP JUMPDEST DUP3 ADD SWAP2 SWAP1 PUSH0 MSTORE PUSH1 0x20 PUSH0 KECCAK256 SWAP1 JUMPDEST DUP2 SLOAD DUP2 MSTORE SWAP1 PUSH1 0x1 ADD SWAP1 PUSH1 0x20 ADD DUP1 DUP4 GT PUSH2 0x401 JUMPI DUP3 SWAP1 SUB PUSH1 0x1F AND DUP3 ADD SWAP2 JUMPDEST POP POP POP POP POP DUP2 MSTORE PUSH1 0x20 ADD PUSH1 0x2 DUP3 ADD DUP1 SLOAD PUSH2 0x437 SWAP1 PUSH2 0x133B JUMP JUMPDEST DUP1 PUSH1 0x1F ADD PUSH1 0x20 DUP1 SWAP2 DIV MUL PUSH1 0x20 ADD PUSH1 0x40 MLOAD SWAP1 DUP2 ADD PUSH1 0x40 MSTORE DUP1 SWAP3 SWAP2 SWAP1 DUP2 DUP2 MSTORE PUSH1 0x20 ADD DUP3 DUP1 SLOAD PUSH2 0x463 SWAP1 PUSH2 0x133B JUMP JUMPDEST DUP1 ISZERO PUSH2 0x4AE JUMPI DUP1 PUSH1 0x1F LT PUSH2 0x485 JUMPI PUSH2 0x100 DUP1 DUP4 SLOAD DIV MUL DUP4 MSTORE SWAP2 PUSH1 0x20 ADD SWAP2 PUSH2 0x4AE JUMP JUMPDEST DUP3 ADD SWAP2 SWAP1 PUSH0 MSTORE PUSH1 0x20 PUSH0 KECCAK256 SWAP1 JUMPDEST DUP2 SLOAD DUP2 MSTORE SWAP1 PUSH1 0x1 ADD SWAP1 PUSH1 0x20 ADD DUP1 DUP4 GT PUSH2 0x491 JUMPI DUP3 SWAP1 SUB PUSH1 0x1F AND DUP3 ADD SWAP2 JUMPDEST POP POP POP POP POP DUP2 MSTORE PUSH1 0x20 ADD PUSH1 0x3 DUP3 ADD SLOAD DUP2 MSTORE PUSH1 0x20 ADD PUSH1 0x4 DUP3 ADD PUSH0 SWAP1 SLOAD SWAP1 PUSH2 0x100 EXP SWAP1 DIV PUSH20 0xFFFFFFFFFFFFFFFFFFFFFFFFFFFFFFFFFFFFFFFF AND PUSH20 0xFFFFFFFFFFFFFFFFFFFFFFFFFFFFFFFFFFFFFFFF AND PUSH20 0xFFFFFFFFFFFFFFFFFFFFFFFFFFFFFFFFFFFFFFFF AND DUP2 MSTORE PUSH1 0x20 ADD PUSH1 0x5 DUP3 ADD SLOAD DUP2 MSTORE POP POP SWAP1 POP DUP1 PUSH0 ADD MLOAD DUP2 PUSH1 0x20 ADD MLOAD DUP3 PUSH1 0x40 ADD MLOAD DUP4 PUSH1 0x60 ADD MLOAD DUP5 PUSH1 0x80 ADD MLOAD DUP6 PUSH1 0xA0 ADD MLOAD SWAP7 POP SWAP7 POP SWAP7 POP SWAP7 POP SWAP7 POP SWAP7 POP POP SWAP2 SWAP4 SWAP6 POP SWAP2 SWAP4 SWAP6 JUMP JUMPDEST PUSH1 0x2 PUSH0 DUP2 SLOAD DUP1 SWAP3 SWAP2 SWAP1 PUSH2 0x567 SWAP1 PUSH2 0x1398 JUMP JUMPDEST SWAP2 SWAP1 POP SSTORE POP PUSH1 0x40 MLOAD DUP1 PUSH1 0xE0 ADD PUSH1 0x40 MSTORE DUP1 PUSH1 0x2 SLOAD DUP2 MSTORE PUSH1 0x20 ADD DUP7 DUP2 MSTORE PUSH1 0x20 ADD DUP6 DUP2 MSTORE PUSH1 0x20 ADD DUP5 DUP2 MSTORE PUSH1 0x20 ADD DUP4 DUP2 MSTORE PUSH1 0x20 ADD DUP3 DUP2 MSTORE PUSH1 0x20 ADD PUSH0 DUP2 MSTORE POP PUSH0 DUP1 PUSH1 0x2 SLOAD DUP2 MSTORE PUSH1 0x20 ADD SWAP1 DUP2 MSTORE PUSH1 0x20 ADD PUSH0 KECCAK256 PUSH0 DUP3 ADD MLOAD DUP2 PUSH0 ADD SSTORE PUSH1 0x20 DUP3 ADD MLOAD DUP2 PUSH1 0x1 ADD SWAP1 DUP2 PUSH2 0x5D0 SWAP2 SWAP1 PUSH2 0x157C JUMP JUMPDEST POP PUSH1 0x40 DUP3 ADD MLOAD DUP2 PUSH1 0x2 ADD SWAP1 DUP2 PUSH2 0x5E6 SWAP2 SWAP1 PUSH2 0x157C JUMP JUMPDEST POP PUSH1 0x60 DUP3 ADD MLOAD DUP2 PUSH1 0x3 ADD SWAP1 DUP2 PUSH2 0x5FC SWAP2 SWAP1 PUSH2 0x157C JUMP JUMPDEST POP PUSH1 0x80 DUP3 ADD MLOAD DUP2 PUSH1 0x4 ADD SWAP1 DUP2 PUSH2 0x612 SWAP2 SWAP1 PUSH2 0x157C JUMP JUMPDEST POP PUSH1 0xA0 DUP3 ADD MLOAD DUP2 PUSH1 0x5 ADD SWAP1 DUP2 PUSH2 0x628 SWAP2 SWAP1 PUSH2 0x157C JUMP JUMPDEST POP PUSH1 0xC0 DUP3 ADD MLOAD DUP2 PUSH1 0x6 ADD SSTORE SWAP1 POP POP POP POP POP POP POP JUMP JUMPDEST PUSH0 PUSH1 0x20 MSTORE DUP1 PUSH0 MSTORE PUSH1 0x40 PUSH0 KECCAK256 PUSH0 SWAP2 POP SWAP1 POP DUP1 PUSH0 ADD SLOAD SWAP1 DUP1 PUSH1 0x1 ADD DUP1 SLOAD PUSH2 0x661 SWAP1 PUSH2 0x133B JUMP JUMPDEST DUP1 PUSH1 0x1F ADD PUSH1 0x20 DUP1 SWAP2 DIV MUL PUSH1 0x20 ADD PUSH1 0x40 MLOAD SWAP1 DUP2 ADD PUSH1 0x40 MSTORE DUP1 SWAP3 SWAP2 SWAP1 DUP2 DUP2 MSTORE PUSH1 0x20 ADD DUP3 DUP1 SLOAD PUSH2 0x68D SWAP1 PUSH2 0x133B JUMP JUMPDEST DUP1 ISZERO PUSH2 0x6D8 JUMPI DUP1 PUSH1 0x1F LT PUSH2 0x6AF JUMPI PUSH2 0x100 DUP1 DUP4 SLOAD DIV MUL DUP4 MSTORE SWAP2 PUSH1 0x20 ADD SWAP2 PUSH2 0x6D8 JUMP JUMPDEST DUP3 ADD SWAP2 SWAP1 PUSH0 MSTORE PUSH1 0x20 PUSH0 KECCAK256 SWAP1 JUMPDEST DUP2 SLOAD DUP2 MSTORE SWAP1 PUSH1 0x1 ADD SWAP1 PUSH1 0x20 ADD DUP1 DUP4 GT PUSH2 0x6BB JUMPI DUP3 SWAP1 SUB PUSH1 0x1F AND DUP3 ADD SWAP2 JUMPDEST POP POP POP POP POP SWAP1 DUP1 PUSH1 0x2 ADD DUP1 SLOAD PUSH2 0x6ED SWAP1 PUSH2 0x133B JUMP JUMPDEST DUP1 PUSH1 0x1F ADD PUSH1 0x20 DUP1 SWAP2 DIV MUL PUSH1 0x20 ADD PUSH1 0x40 MLOAD SWAP1 DUP2 ADD PUSH1 0x40 MSTORE DUP1 SWAP3 SWAP2 SWAP1 DUP2 DUP2 MSTORE PUSH1 0x20 ADD DUP3 DUP1 SLOAD PUSH2 0x719 SWAP1 PUSH2 0x133B JUMP JUMPDEST DUP1 ISZERO PUSH2 0x764 JUMPI DUP1 PUSH1 0x1F LT PUSH2 0x73B JUMPI PUSH2 0x100 DUP1 DUP4 SLOAD DIV MUL DUP4 MSTORE SWAP2 PUSH1 0x20 ADD SWAP2 PUSH2 0x764 JUMP JUMPDEST DUP3 ADD SWAP2 SWAP1 PUSH0 MSTORE PUSH1 0x20 PUSH0 KECCAK256 SWAP1 JUMPDEST DUP2 SLOAD DUP2 MSTORE SWAP1 PUSH1 0x1 ADD SWAP1 PUSH1 0x20 ADD DUP1 DUP4 GT PUSH2 0x747 JUMPI DUP3 SWAP1 SUB PUSH1 0x1F AND DUP3 ADD SWAP2 JUMPDEST POP POP POP POP POP SWAP1 DUP1 PUSH1 0x3 ADD DUP1 SLOAD PUSH2 0x779 SWAP1 PUSH2 0x133B JUMP JUMPDEST DUP1 PUSH1 0x1F ADD PUSH1 0x20 DUP1 SWAP2 DIV MUL PUSH1 0x20 ADD PUSH1 0x40 MLOAD SWAP1 DUP2 ADD PUSH1 0x40 MSTORE DUP1 SWAP3 SWAP2 SWAP1 DUP2 DUP2 MSTORE PUSH1 0x20 ADD DUP3 DUP1 SLOAD PUSH2 0x7A5 SWAP1 PUSH2 0x133B JUMP JUMPDEST DUP1 ISZERO PUSH2 0x7F0 JUMPI DUP1 PUSH1 0x1F LT PUSH2 0x7C7 JUMPI PUSH2 0x100 DUP1 DUP4 SLOAD DIV MUL DUP4 MSTORE SWAP2 PUSH1 0x20 ADD SWAP2 PUSH2 0x7F0 JUMP JUMPDEST DUP3 ADD SWAP2 SWAP1 PUSH0 MSTORE PUSH1 0x20 PUSH0 KECCAK256 SWAP1 JUMPDEST DUP2 SLOAD DUP2 MSTORE SWAP1 PUSH1 0x1 ADD SWAP1 PUSH1 0x20 ADD DUP1 DUP4 GT PUSH2 0x7D3 JUMPI DUP3 SWAP1 SUB PUSH1 0x1F AND DUP3 ADD SWAP2 JUMPDEST POP POP POP POP POP SWAP1 DUP1 PUSH1 0x4 ADD DUP1 SLOAD PUSH2 0x805 SWAP1 PUSH2 0x133B JUMP JUMPDEST DUP1 PUSH1 0x1F ADD PUSH1 0x20 DUP1 SWAP2 DIV MUL PUSH1 0x20 ADD PUSH1 0x40 MLOAD SWAP1 DUP2 ADD PUSH1 0x40 MSTORE DUP1 SWAP3 SWAP2 SWAP1 DUP2 DUP2 MSTORE PUSH1 0x20 ADD DUP3 DUP1 SLOAD PUSH2 0x831 SWAP1 PUSH2 0x133B JUMP JUMPDEST DUP1 ISZERO PUSH2 0x87C JUMPI DUP1 PUSH1 0x1F LT PUSH2 0x853 JUMPI PUSH2 0x100 DUP1 DUP4 SLOAD DIV MUL DUP4 MSTORE SWAP2 PUSH1 0x20 ADD SWAP2 PUSH2 0x87C JUMP JUMPDEST DUP3 ADD SWAP2 SWAP1 PUSH0 MSTORE PUSH1 0x20 PUSH0 KECCAK256 SWAP1 JUMPDEST DUP2 SLOAD DUP2 MSTORE SWAP1 PUSH1 0x1 ADD SWAP1 PUSH1 0x20 ADD DUP1 DUP4 GT PUSH2 0x85F JUMPI DUP3 SWAP1 SUB PUSH1 0x1F AND DUP3 ADD SWAP2 JUMPDEST POP POP POP POP POP SWAP1 DUP1 PUSH1 0x5 ADD DUP1 SLOAD PUSH2 0x891 SWAP1 PUSH2 0x133B JUMP JUMPDEST DUP1 PUSH1 0x1F ADD PUSH1 0x20 DUP1 SWAP2 DIV MUL PUSH1 0x20 ADD PUSH1 0x40 MLOAD SWAP1 DUP2 ADD PUSH1 0x40 MSTORE DUP1 SWAP3 SWAP2 SWAP1 DUP2 DUP2 MSTORE PUSH1 0x20 ADD DUP3 DUP1 SLOAD PUSH2 0x8BD SWAP1 PUSH2 0x133B JUMP JUMPDEST DUP1 ISZERO PUSH2 0x908 JUMPI DUP1 PUSH1 0x1F LT PUSH2 0x8DF JUMPI PUSH2 0x100 DUP1 DUP4 SLOAD DIV MUL DUP4 MSTORE SWAP2 PUSH1 0x20 ADD SWAP2 PUSH2 0x908 JUMP JUMPDEST DUP3 ADD SWAP2 SWAP1 PUSH0 MSTORE PUSH1 0x20 PUSH0 KECCAK256 SWAP1 JUMPDEST DUP2 SLOAD DUP2 MSTORE SWAP1 PUSH1 0x1 ADD SWAP1 PUSH1 0x20 ADD DUP1 DUP4 GT PUSH2 0x8EB JUMPI DUP3 SWAP1 SUB PUSH1 0x1F AND DUP3 ADD SWAP2 JUMPDEST POP POP POP POP POP SWAP1 DUP1 PUSH1 0x6 ADD SLOAD SWAP1 POP DUP8 JUMP JUMPDEST PUSH0 PUSH1 0x60 DUP1 PUSH1 0x60 DUP1 PUSH1 0x60 PUSH0 DUP1 PUSH0 DUP1 DUP11 DUP2 MSTORE PUSH1 0x20 ADD SWAP1 DUP2 MSTORE PUSH1 0x20 ADD PUSH0 KECCAK256 PUSH1 0x40 MLOAD DUP1 PUSH1 0xE0 ADD PUSH1 0x40 MSTORE SWAP1 DUP2 PUSH0 DUP3 ADD SLOAD DUP2 MSTORE PUSH1 0x20 ADD PUSH1 0x1 DUP3 ADD DUP1 SLOAD PUSH2 0x957 SWAP1 PUSH2 0x133B JUMP JUMPDEST DUP1 PUSH1 0x1F ADD PUSH1 0x20 DUP1 SWAP2 DIV MUL PUSH1 0x20 ADD PUSH1 0x40 MLOAD SWAP1 DUP2 ADD PUSH1 0x40 MSTORE DUP1 SWAP3 SWAP2 SWAP1 DUP2 DUP2 MSTORE PUSH1 0x20 ADD DUP3 DUP1 SLOAD PUSH2 0x983 SWAP1 PUSH2 0x133B JUMP JUMPDEST DUP1 ISZERO PUSH2 0x9CE JUMPI DUP1 PUSH1 0x1F LT PUSH2 0x9A5 JUMPI PUSH2 0x100 DUP1 DUP4 SLOAD DIV MUL DUP4 MSTORE SWAP2 PUSH1 0x20 ADD SWAP2 PUSH2 0x9CE JUMP JUMPDEST DUP3 ADD SWAP2 SWAP1 PUSH0 MSTORE PUSH1 0x20 PUSH0 KECCAK256 SWAP1 JUMPDEST DUP2 SLOAD DUP2 MSTORE SWAP1 PUSH1 0x1 ADD SWAP1 PUSH1 0x20 ADD DUP1 DUP4 GT PUSH2 0x9B1 JUMPI DUP3 SWAP1 SUB PUSH1 0x1F AND DUP3 ADD SWAP2 JUMPDEST POP POP POP POP POP DUP2 MSTORE PUSH1 0x20 ADD PUSH1 0x2 DUP3 ADD DUP1 SLOAD PUSH2 0x9E7 SWAP1 PUSH2 0x133B JUMP JUMPDEST DUP1 PUSH1 0x1F ADD PUSH1 0x20 DUP1 SWAP2 DIV MUL PUSH1 0x20 ADD PUSH1 0x40 MLOAD SWAP1 DUP2 ADD PUSH1 0x40 MSTORE DUP1 SWAP3 SWAP2 SWAP1 DUP2 DUP2 MSTORE PUSH1 0x20 ADD DUP3 DUP1 SLOAD PUSH2 0xA13 SWAP1 PUSH2 0x133B JUMP JUMPDEST DUP1 ISZERO PUSH2 0xA5E JUMPI DUP1 PUSH1 0x1F LT PUSH2 0xA35 JUMPI PUSH2 0x100 DUP1 DUP4 SLOAD DIV MUL DUP4 MSTORE SWAP2 PUSH1 0x20 ADD SWAP2 PUSH2 0xA5E JUMP JUMPDEST DUP3 ADD SWAP2 SWAP1 PUSH0 MSTORE PUSH1 0x20 PUSH0 KECCAK256 SWAP1 JUMPDEST DUP2 SLOAD DUP2 MSTORE SWAP1 PUSH1 0x1 ADD SWAP1 PUSH1 0x20 ADD DUP1 DUP4 GT PUSH2 0xA41 JUMPI DUP3 SWAP1 SUB PUSH1 0x1F AND DUP3 ADD SWAP2 JUMPDEST POP POP POP POP POP DUP2 MSTORE PUSH1 0x20 ADD PUSH1 0x3 DUP3 ADD DUP1 SLOAD PUSH2 0xA77 SWAP1 PUSH2 0x133B JUMP JUMPDEST DUP1 PUSH1 0x1F ADD PUSH1 0x20 DUP1 SWAP2 DIV MUL PUSH1 0x20 ADD PUSH1 0x40 MLOAD SWAP1 DUP2 ADD PUSH1 0x40 MSTORE DUP1 SWAP3 SWAP2 SWAP1 DUP2 DUP2 MSTORE PUSH1 0x20 ADD DUP3 DUP1 SLOAD PUSH2 0xAA3 SWAP1 PUSH2 0x133B JUMP JUMPDEST DUP1 ISZERO PUSH2 0xAEE JUMPI DUP1 PUSH1 0x1F LT PUSH2 0xAC5 JUMPI PUSH2 0x100 DUP1 DUP4 SLOAD DIV MUL DUP4 MSTORE SWAP2 PUSH1 0x20 ADD SWAP2 PUSH2 0xAEE JUMP JUMPDEST DUP3 ADD SWAP2 SWAP1 PUSH0 MSTORE PUSH1 0x20 PUSH0 KECCAK256 SWAP1 JUMPDEST DUP2 SLOAD DUP2 MSTORE SWAP1 PUSH1 0x1 ADD SWAP1 PUSH1 0x20 ADD DUP1 DUP4 GT PUSH2 0xAD1 JUMPI DUP3 SWAP1 SUB PUSH1 0x1F AND DUP3 ADD SWAP2 JUMPDEST POP POP POP POP POP DUP2 MSTORE PUSH1 0x20 ADD PUSH1 0x4 DUP3 ADD DUP1 SLOAD PUSH2 0xB07 SWAP1 PUSH2 0x133B JUMP JUMPDEST DUP1 PUSH1 0x1F ADD PUSH1 0x20 DUP1 SWAP2 DIV MUL PUSH1 0x20 ADD PUSH1 0x40 MLOAD SWAP1 DUP2 ADD PUSH1 0x40 MSTORE DUP1 SWAP3 SWAP2 SWAP1 DUP2 DUP2 MSTORE PUSH1 0x20 ADD DUP3 DUP1 SLOAD PUSH2 0xB33 SWAP1 PUSH2 0x133B JUMP JUMPDEST DUP1 ISZERO PUSH2 0xB7E JUMPI DUP1 PUSH1 0x1F LT PUSH2 0xB55 JUMPI PUSH2 0x100 DUP1 DUP4 SLOAD DIV MUL DUP4 MSTORE SWAP2 PUSH1 0x20 ADD SWAP2 PUSH2 0xB7E JUMP JUMPDEST DUP3 ADD SWAP2 SWAP1 PUSH0 MSTORE PUSH1 0x20 PUSH0 KECCAK256 SWAP1 JUMPDEST DUP2 SLOAD DUP2 MSTORE SWAP1 PUSH1 0x1 ADD SWAP1 PUSH1 0x20 ADD DUP1 DUP4 GT PUSH2 0xB61 JUMPI DUP3 SWAP1 SUB PUSH1 0x1F AND DUP3 ADD SWAP2 JUMPDEST POP POP POP POP POP DUP2 MSTORE PUSH1 0x20 ADD PUSH1 0x5 DUP3 ADD DUP1 SLOAD PUSH2 0xB97 SWAP1 PUSH2 0x133B JUMP JUMPDEST DUP1 PUSH1 0x1F ADD PUSH1 0x20 DUP1 SWAP2 DIV MUL PUSH1 0x20 ADD PUSH1 0x40 MLOAD SWAP1 DUP2 ADD PUSH1 0x40 MSTORE DUP1 SWAP3 SWAP2 SWAP1 DUP2 DUP2 MSTORE PUSH1 0x20 ADD DUP3 DUP1 SLOAD PUSH2 0xBC3 SWAP1 PUSH2 0x133B JUMP JUMPDEST DUP1 ISZERO PUSH2 0xC0E JUMPI DUP1 PUSH1 0x1F LT PUSH2 0xBE5 JUMPI PUSH2 0x100 DUP1 DUP4 SLOAD DIV MUL DUP4 MSTORE SWAP2 PUSH1 0x20 ADD SWAP2 PUSH2 0xC0E JUMP JUMPDEST DUP3 ADD SWAP2 SWAP1 PUSH0 MSTORE PUSH1 0x20 PUSH0 KECCAK256 SWAP1 JUMPDEST DUP2 SLOAD DUP2 MSTORE SWAP1 PUSH1 0x1 ADD SWAP1 PUSH1 0x20 ADD DUP1 DUP4 GT PUSH2 0xBF1 JUMPI DUP3 SWAP1 SUB PUSH1 0x1F AND DUP3 ADD SWAP2 JUMPDEST POP POP POP POP POP DUP2 MSTORE PUSH1 0x20 ADD PUSH1 0x6 DUP3 ADD SLOAD DUP2 MSTORE POP POP SWAP1 POP DUP1 PUSH0 ADD MLOAD DUP2 PUSH1 0x20 ADD MLOAD DUP3 PUSH1 0x40 ADD MLOAD DUP4 PUSH1 0x60 ADD MLOAD DUP5 PUSH1 0x80 ADD MLOAD DUP6 PUSH1 0xA0 ADD MLOAD DUP7 PUSH1 0xC0 ADD MLOAD SWAP8 POP SWAP8 POP SWAP8 POP SWAP8 POP SWAP8 POP SWAP8 POP SWAP8 POP POP SWAP2 SWAP4 SWAP6 SWAP8 SWAP1 SWAP3 SWAP5 SWAP7 POP JUMP JUMPDEST PUSH1 0x1 PUSH0 DUP1 DUP5 DUP2 MSTORE PUSH1 0x20 ADD SWAP1 DUP2 MSTORE PUSH1 0x20 ADD PUSH0 KECCAK256 PUSH1 0x6 ADD PUSH0 DUP3 DUP3 SLOAD PUSH2 0xC82 SWAP2 SWAP1 PUSH2 0x164B JUMP JUMPDEST SWAP3 POP POP DUP2 SWAP1 SSTORE POP PUSH1 0x1 DUP1 PUSH0 DUP4 DUP2 MSTORE PUSH1 0x20 ADD SWAP1 DUP2 MSTORE PUSH1 0x20 ADD PUSH0 KECCAK256 PUSH1 0x5 ADD PUSH0 DUP3 DUP3 SLOAD PUSH2 0xCAC SWAP2 SWAP1 PUSH2 0x164B JUMP JUMPDEST SWAP3 POP POP DUP2 SWAP1 SSTORE POP POP POP JUMP JUMPDEST PUSH1 0x3 PUSH0 DUP2 SLOAD DUP1 SWAP3 SWAP2 SWAP1 PUSH2 0xCC9 SWAP1 PUSH2 0x1398 JUMP JUMPDEST SWAP2 SWAP1 POP SSTORE POP PUSH1 0x40 MLOAD DUP1 PUSH1 0xC0 ADD PUSH1 0x40 MSTORE DUP1 PUSH1 0x3 SLOAD DUP2 MSTORE PUSH1 0x20 ADD DUP5 DUP2 MSTORE PUSH1 0x20 ADD DUP4 DUP2 MSTORE PUSH1 0x20 ADD DUP3 DUP2 MSTORE PUSH1 0x20 ADD CALLER PUSH20 0xFFFFFFFFFFFFFFFFFFFFFFFFFFFFFFFFFFFFFFFF AND DUP2 MSTORE PUSH1 0x20 ADD PUSH0 DUP2 MSTORE POP PUSH1 0x1 PUSH0 PUSH1 0x3 SLOAD DUP2 MSTORE PUSH1 0x20 ADD SWAP1 DUP2 MSTORE PUSH1 0x20 ADD PUSH0 KECCAK256 PUSH0 DUP3 ADD MLOAD DUP2 PUSH0 ADD SSTORE PUSH1 0x20 DUP3 ADD MLOAD DUP2 PUSH1 0x1 ADD SWAP1 DUP2 PUSH2 0xD43 SWAP2 SWAP1 PUSH2 0x157C JUMP JUMPDEST POP PUSH1 0x40 DUP3 ADD MLOAD DUP2 PUSH1 0x2 ADD SWAP1 DUP2 PUSH2 0xD59 SWAP2 SWAP1 PUSH2 0x157C JUMP JUMPDEST POP PUSH1 0x60 DUP3 ADD MLOAD DUP2 PUSH1 0x3 ADD SSTORE PUSH1 0x80 DUP3 ADD MLOAD DUP2 PUSH1 0x4 ADD PUSH0 PUSH2 0x100 EXP DUP2 SLOAD DUP2 PUSH20 0xFFFFFFFFFFFFFFFFFFFFFFFFFFFFFFFFFFFFFFFF MUL NOT AND SWAP1 DUP4 PUSH20 0xFFFFFFFFFFFFFFFFFFFFFFFFFFFFFFFFFFFFFFFF AND MUL OR SWAP1 SSTORE POP PUSH1 0xA0 DUP3 ADD MLOAD DUP2 PUSH1 0x5 ADD SSTORE SWAP1 POP POP POP POP POP JUMP JUMPDEST PUSH0 PUSH1 0x40 MLOAD SWAP1 POP SWAP1 JUMP JUMPDEST PUSH0 DUP1 REVERT JUMPDEST PUSH0 DUP1 REVERT JUMPDEST PUSH0 DUP2 SWAP1 POP SWAP2 SWAP1 POP JUMP JUMPDEST PUSH2 0xDDF DUP2 PUSH2 0xDCD JUMP JUMPDEST DUP2 EQ PUSH2 0xDE9 JUMPI PUSH0 DUP1 REVERT JUMPDEST POP JUMP JUMPDEST PUSH0 DUP2 CALLDATALOAD SWAP1 POP PUSH2 0xDFA DUP2 PUSH2 0xDD6 JUMP JUMPDEST SWAP3 SWAP2 POP POP JUMP JUMPDEST PUSH0 PUSH1 0x20 DUP3 DUP5 SUB SLT ISZERO PUSH2 0xE15 JUMPI PUSH2 0xE14 PUSH2 0xDC5 JUMP JUMPDEST JUMPDEST PUSH0 PUSH2 0xE22 DUP5 DUP3 DUP6 ADD PUSH2 0xDEC JUMP JUMPDEST SWAP2 POP POP SWAP3 SWAP2 POP POP JUMP JUMPDEST PUSH2 0xE34 DUP2 PUSH2 0xDCD JUMP JUMPDEST DUP3 MSTORE POP POP JUMP JUMPDEST PUSH0 DUP2 MLOAD SWAP1 POP SWAP2 SWAP1 POP JUMP JUMPDEST PUSH0 DUP3 DUP3 MSTORE PUSH1 0x20 DUP3 ADD SWAP1 POP SWAP3 SWAP2 POP POP JUMP JUMPDEST PUSH0 JUMPDEST DUP4 DUP2 LT ISZERO PUSH2 0xE71 JUMPI DUP1 DUP3 ADD MLOAD DUP2 DUP5 ADD MSTORE PUSH1 0x20 DUP2 ADD SWAP1 POP PUSH2 0xE56 JUMP JUMPDEST PUSH0 DUP5 DUP5 ADD MSTORE POP POP POP POP JUMP JUMPDEST PUSH0 PUSH1 0x1F NOT PUSH1 0x1F DUP4 ADD AND SWAP1 POP SWAP2 SWAP1 POP JUMP JUMPDEST PUSH0 PUSH2 0xE96 DUP3 PUSH2 0xE3A JUMP JUMPDEST PUSH2 0xEA0 DUP2 DUP6 PUSH2 0xE44 JUMP JUMPDEST SWAP4 POP PUSH2 0xEB0 DUP2 DUP6 PUSH1 0x20 DUP7 ADD PUSH2 0xE54 JUMP JUMPDEST PUSH2 0xEB9 DUP2 PUSH2 0xE7C JUMP JUMPDEST DUP5 ADD SWAP2 POP POP SWAP3 SWAP2 POP POP JUMP JUMPDEST PUSH0 PUSH20 0xFFFFFFFFFFFFFFFFFFFFFFFFFFFFFFFFFFFFFFFF DUP3 AND SWAP1 POP SWAP2 SWAP1 POP JUMP JUMPDEST PUSH0 PUSH2 0xEED DUP3 PUSH2 0xEC4 JUMP JUMPDEST SWAP1 POP SWAP2 SWAP1 POP JUMP JUMPDEST PUSH2 0xEFD DUP2 PUSH2 0xEE3 JUMP JUMPDEST DUP3 MSTORE POP POP JUMP JUMPDEST PUSH0 PUSH1 0xC0 DUP3 ADD SWAP1 POP PUSH2 0xF16 PUSH0 DUP4 ADD DUP10 PUSH2 0xE2B JUMP JUMPDEST DUP2 DUP2 SUB PUSH1 0x20 DUP4 ADD MSTORE PUSH2 0xF28 DUP2 DUP9 PUSH2 0xE8C JUMP JUMPDEST SWAP1 POP DUP2 DUP2 SUB PUSH1 0x40 DUP4 ADD MSTORE PUSH2 0xF3C DUP2 DUP8 PUSH2 0xE8C JUMP JUMPDEST SWAP1 POP PUSH2 0xF4B PUSH1 0x60 DUP4 ADD DUP7 PUSH2 0xE2B JUMP JUMPDEST PUSH2 0xF58 PUSH1 0x80 DUP4 ADD DUP6 PUSH2 0xEF4 JUMP JUMPDEST PUSH2 0xF65 PUSH1 0xA0 DUP4 ADD DUP5 PUSH2 0xE2B JUMP JUMPDEST SWAP8 SWAP7 POP POP POP POP POP POP POP JUMP JUMPDEST PUSH0 PUSH1 0x20 DUP3 ADD SWAP1 POP PUSH2 0xF83 PUSH0 DUP4 ADD DUP5 PUSH2 0xE2B JUMP JUMPDEST SWAP3 SWAP2 POP POP JUMP JUMPDEST PUSH0 DUP1 REVERT JUMPDEST PUSH0 DUP1 REVERT JUMPDEST PUSH32 0x4E487B7100000000000000000000000000000000000000000000000000000000 PUSH0 MSTORE PUSH1 0x41 PUSH1 0x4 MSTORE PUSH1 0x24 PUSH0 REVERT JUMPDEST PUSH2 0xFC7 DUP3 PUSH2 0xE7C JUMP JUMPDEST DUP2 ADD DUP2 DUP2 LT PUSH8 0xFFFFFFFFFFFFFFFF DUP3 GT OR ISZERO PUSH2 0xFE6 JUMPI PUSH2 0xFE5 PUSH2 0xF91 JUMP JUMPDEST JUMPDEST DUP1 PUSH1 0x40 MSTORE POP POP POP JUMP JUMPDEST PUSH0 PUSH2 0xFF8 PUSH2 0xDBC JUMP JUMPDEST SWAP1 POP PUSH2 0x1004 DUP3 DUP3 PUSH2 0xFBE JUMP JUMPDEST SWAP2 SWAP1 POP JUMP JUMPDEST PUSH0 PUSH8 0xFFFFFFFFFFFFFFFF DUP3 GT ISZERO PUSH2 0x1023 JUMPI PUSH2 0x1022 PUSH2 0xF91 JUMP JUMPDEST JUMPDEST PUSH2 0x102C DUP3 PUSH2 0xE7C JUMP JUMPDEST SWAP1 POP PUSH1 0x20 DUP2 ADD SWAP1 POP SWAP2 SWAP1 POP JUMP JUMPDEST DUP3 DUP2 DUP4 CALLDATACOPY PUSH0 DUP4 DUP4 ADD MSTORE POP POP POP JUMP JUMPDEST PUSH0 PUSH2 0x1059 PUSH2 0x1054 DUP5 PUSH2 0x1009 JUMP JUMPDEST PUSH2 0xFEF JUMP JUMPDEST SWAP1 POP DUP3 DUP2 MSTORE PUSH1 0x20 DUP2 ADD DUP5 DUP5 DUP5 ADD GT ISZERO PUSH2 0x1075 JUMPI PUSH2 0x1074 PUSH2 0xF8D JUMP JUMPDEST JUMPDEST PUSH2 0x1080 DUP5 DUP3 DUP6 PUSH2 0x1039 JUMP JUMPDEST POP SWAP4 SWAP3 POP POP POP JUMP JUMPDEST PUSH0 DUP3 PUSH1 0x1F DUP4 ADD SLT PUSH2 0x109C JUMPI PUSH2 0x109B PUSH2 0xF89 JUMP JUMPDEST JUMPDEST DUP2 CALLDATALOAD PUSH2 0x10AC DUP5 DUP3 PUSH1 0x20 DUP7 ADD PUSH2 0x1047 JUMP JUMPDEST SWAP2 POP POP SWAP3 SWAP2 POP POP JUMP JUMPDEST PUSH0 DUP1 PUSH0 DUP1 PUSH0 PUSH1 0xA0 DUP7 DUP9 SUB SLT ISZERO PUSH2 0x10CE JUMPI PUSH2 0x10CD PUSH2 0xDC5 JUMP JUMPDEST JUMPDEST PUSH0 DUP7 ADD CALLDATALOAD PUSH8 0xFFFFFFFFFFFFFFFF DUP2 GT ISZERO PUSH2 0x10EB JUMPI PUSH2 0x10EA PUSH2 0xDC9 JUMP JUMPDEST JUMPDEST PUSH2 0x10F7 DUP9 DUP3 DUP10 ADD PUSH2 0x1088 JUMP JUMPDEST SWAP6 POP POP PUSH1 0x20 DUP7 ADD CALLDATALOAD PUSH8 0xFFFFFFFFFFFFFFFF DUP2 GT ISZERO PUSH2 0x1118 JUMPI PUSH2 0x1117 PUSH2 0xDC9 JUMP JUMPDEST JUMPDEST PUSH2 0x1124 DUP9 DUP3 DUP10 ADD PUSH2 0x1088 JUMP JUMPDEST SWAP5 POP POP PUSH1 0x40 DUP7 ADD CALLDATALOAD PUSH8 0xFFFFFFFFFFFFFFFF DUP2 GT ISZERO PUSH2 0x1145 JUMPI PUSH2 0x1144 PUSH2 0xDC9 JUMP JUMPDEST JUMPDEST PUSH2 0x1151 DUP9 DUP3 DUP10 ADD PUSH2 0x1088 JUMP JUMPDEST SWAP4 POP POP PUSH1 0x60 DUP7 ADD CALLDATALOAD PUSH8 0xFFFFFFFFFFFFFFFF DUP2 GT ISZERO PUSH2 0x1172 JUMPI PUSH2 0x1171 PUSH2 0xDC9 JUMP JUMPDEST JUMPDEST PUSH2 0x117E DUP9 DUP3 DUP10 ADD PUSH2 0x1088 JUMP JUMPDEST SWAP3 POP POP PUSH1 0x80 DUP7 ADD CALLDATALOAD PUSH8 0xFFFFFFFFFFFFFFFF DUP2 GT ISZERO PUSH2 0x119F JUMPI PUSH2 0x119E PUSH2 0xDC9 JUMP JUMPDEST JUMPDEST PUSH2 0x11AB DUP9 DUP3 DUP10 ADD PUSH2 0x1088 JUMP JUMPDEST SWAP2 POP POP SWAP3 SWAP6 POP SWAP3 SWAP6 SWAP1 SWAP4 POP JUMP JUMPDEST PUSH0 PUSH1 0xE0 DUP3 ADD SWAP1 POP PUSH2 0x11CB PUSH0 DUP4 ADD DUP11 PUSH2 0xE2B JUMP JUMPDEST DUP2 DUP2 SUB PUSH1 0x20 DUP4 ADD MSTORE PUSH2 0x11DD DUP2 DUP10 PUSH2 0xE8C JUMP JUMPDEST SWAP1 POP DUP2 DUP2 SUB PUSH1 0x40 DUP4 ADD MSTORE PUSH2 0x11F1 DUP2 DUP9 PUSH2 0xE8C JUMP JUMPDEST SWAP1 POP DUP2 DUP2 SUB PUSH1 0x60 DUP4 ADD MSTORE PUSH2 0x1205 DUP2 DUP8 PUSH2 0xE8C JUMP JUMPDEST SWAP1 POP DUP2 DUP2 SUB PUSH1 0x80 DUP4 ADD MSTORE PUSH2 0x1219 DUP2 DUP7 PUSH2 0xE8C JUMP JUMPDEST SWAP1 POP DUP2 DUP2 SUB PUSH1 0xA0 DUP4 ADD MSTORE PUSH2 0x122D DUP2 DUP6 PUSH2 0xE8C JUMP JUMPDEST SWAP1 POP PUSH2 0x123C PUSH1 0xC0 DUP4 ADD DUP5 PUSH2 0xE2B JUMP JUMPDEST SWAP9 SWAP8 POP POP POP POP POP POP POP POP JUMP JUMPDEST PUSH0 DUP1 PUSH1 0x40 DUP4 DUP6 SUB SLT ISZERO PUSH2 0x125E JUMPI PUSH2 0x125D PUSH2 0xDC5 JUMP JUMPDEST JUMPDEST PUSH0 PUSH2 0x126B DUP6 DUP3 DUP7 ADD PUSH2 0xDEC JUMP JUMPDEST SWAP3 POP POP PUSH1 0x20 PUSH2 0x127C DUP6 DUP3 DUP7 ADD PUSH2 0xDEC JUMP JUMPDEST SWAP2 POP POP SWAP3 POP SWAP3 SWAP1 POP JUMP JUMPDEST PUSH0 DUP1 PUSH0 PUSH1 0x60 DUP5 DUP7 SUB SLT ISZERO PUSH2 0x129D JUMPI PUSH2 0x129C PUSH2 0xDC5 JUMP JUMPDEST JUMPDEST PUSH0 DUP5 ADD CALLDATALOAD PUSH8 0xFFFFFFFFFFFFFFFF DUP2 GT ISZERO PUSH2 0x12BA JUMPI PUSH2 0x12B9 PUSH2 0xDC9 JUMP JUMPDEST JUMPDEST PUSH2 0x12C6 DUP7 DUP3 DUP8 ADD PUSH2 0x1088 JUMP JUMPDEST SWAP4 POP POP PUSH1 0x20 DUP5 ADD CALLDATALOAD PUSH8 0xFFFFFFFFFFFFFFFF DUP2 GT ISZERO PUSH2 0x12E7 JUMPI PUSH2 0x12E6 PUSH2 0xDC9 JUMP JUMPDEST JUMPDEST PUSH2 0x12F3 DUP7 DUP3 DUP8 ADD PUSH2 0x1088 JUMP JUMPDEST SWAP3 POP POP PUSH1 0x40 PUSH2 0x1304 DUP7 DUP3 DUP8 ADD PUSH2 0xDEC JUMP JUMPDEST SWAP2 POP POP SWAP3 POP SWAP3 POP SWAP3 JUMP JUMPDEST PUSH32 0x4E487B7100000000000000000000000000000000000000000000000000000000 PUSH0 MSTORE PUSH1 0x22 PUSH1 0x4 MSTORE PUSH1 0x24 PUSH0 REVERT JUMPDEST PUSH0 PUSH1 0x2 DUP3 DIV SWAP1 POP PUSH1 0x1 DUP3 AND DUP1 PUSH2 0x1352 JUMPI PUSH1 0x7F DUP3 AND SWAP2 POP JUMPDEST PUSH1 0x20 DUP3 LT DUP2 SUB PUSH2 0x1365 JUMPI PUSH2 0x1364 PUSH2 0x130E JUMP JUMPDEST JUMPDEST POP SWAP2 SWAP1 POP JUMP JUMPDEST PUSH32 0x4E487B7100000000000000000000000000000000000000000000000000000000 PUSH0 MSTORE PUSH1 0x11 PUSH1 0x4 MSTORE PUSH1 0x24 PUSH0 REVERT JUMPDEST PUSH0 PUSH2 0x13A2 DUP3 PUSH2 0xDCD JUMP JUMPDEST SWAP2 POP PUSH32 0xFFFFFFFFFFFFFFFFFFFFFFFFFFFFFFFFFFFFFFFFFFFFFFFFFFFFFFFFFFFFFFFF DUP3 SUB PUSH2 0x13D4 JUMPI PUSH2 0x13D3 PUSH2 0x136B JUMP JUMPDEST JUMPDEST PUSH1 0x1 DUP3 ADD SWAP1 POP SWAP2 SWAP1 POP JUMP JUMPDEST PUSH0 DUP2 SWAP1 POP DUP2 PUSH0 MSTORE PUSH1 0x20 PUSH0 KECCAK256 SWAP1 POP SWAP2 SWAP1 POP JUMP JUMPDEST PUSH0 PUSH1 0x20 PUSH1 0x1F DUP4 ADD DIV SWAP1 POP SWAP2 SWAP1 POP JUMP JUMPDEST PUSH0 DUP3 DUP3 SHL SWAP1 POP SWAP3 SWAP2 POP POP JUMP JUMPDEST PUSH0 PUSH1 0x8 DUP4 MUL PUSH2 0x143B PUSH32 0xFFFFFFFFFFFFFFFFFFFFFFFFFFFFFFFFFFFFFFFFFFFFFFFFFFFFFFFFFFFFFFFF DUP3 PUSH2 0x1400 JUMP JUMPDEST PUSH2 0x1445 DUP7 DUP4 PUSH2 0x1400 JUMP JUMPDEST SWAP6 POP DUP1 NOT DUP5 AND SWAP4 POP DUP1 DUP7 AND DUP5 OR SWAP3 POP POP POP SWAP4 SWAP3 POP POP POP JUMP JUMPDEST PUSH0 DUP2 SWAP1 POP SWAP2 SWAP1 POP JUMP JUMPDEST PUSH0 PUSH2 0x1480 PUSH2 0x147B PUSH2 0x1476 DUP5 PUSH2 0xDCD JUMP JUMPDEST PUSH2 0x145D JUMP JUMPDEST PUSH2 0xDCD JUMP JUMPDEST SWAP1 POP SWAP2 SWAP1 POP JUMP JUMPDEST PUSH0 DUP2 SWAP1 POP SWAP2 SWAP1 POP JUMP JUMPDEST PUSH2 0x1499 DUP4 PUSH2 0x1466 JUMP JUMPDEST PUSH2 0x14AD PUSH2 0x14A5 DUP3 PUSH2 0x1487 JUMP JUMPDEST DUP5 DUP5 SLOAD PUSH2 0x140C JUMP JUMPDEST DUP3 SSTORE POP POP POP POP JUMP JUMPDEST PUSH0 SWAP1 JUMP JUMPDEST PUSH2 0x14C1 PUSH2 0x14B5 JUMP JUMPDEST PUSH2 0x14CC DUP2 DUP5 DUP5 PUSH2 0x1490 JUMP JUMPDEST POP POP POP JUMP JUMPDEST JUMPDEST DUP2 DUP2 LT ISZERO PUSH2 0x14EF JUMPI PUSH2 0x14E4 PUSH0 DUP3 PUSH2 0x14B9 JUMP JUMPDEST PUSH1 0x1 DUP2 ADD SWAP1 POP PUSH2 0x14D2 JUMP JUMPDEST POP POP JUMP JUMPDEST PUSH1 0x1F DUP3 GT ISZERO PUSH2 0x1534 JUMPI PUSH2 0x1505 DUP2 PUSH2 0x13DF JUMP JUMPDEST PUSH2 0x150E DUP5 PUSH2 0x13F1 JUMP JUMPDEST DUP2 ADD PUSH1 0x20 DUP6 LT ISZERO PUSH2 0x151D JUMPI DUP2 SWAP1 POP JUMPDEST PUSH2 0x1531 PUSH2 0x1529 DUP6 PUSH2 0x13F1 JUMP JUMPDEST DUP4 ADD DUP3 PUSH2 0x14D1 JUMP JUMPDEST POP POP JUMPDEST POP POP POP JUMP JUMPDEST PUSH0 DUP3 DUP3 SHR SWAP1 POP SWAP3 SWAP2 POP POP JUMP JUMPDEST PUSH0 PUSH2 0x1554 PUSH0 NOT DUP5 PUSH1 0x8 MUL PUSH2 0x1539 JUMP JUMPDEST NOT DUP1 DUP4 AND SWAP2 POP POP SWAP3 SWAP2 POP POP JUMP JUMPDEST PUSH0 PUSH2 0x156C DUP4 DUP4 PUSH2 0x1545 JUMP JUMPDEST SWAP2 POP DUP3 PUSH1 0x2 MUL DUP3 OR SWAP1 POP SWAP3 SWAP2 POP POP JUMP JUMPDEST PUSH2 0x1585 DUP3 PUSH2 0xE3A JUMP JUMPDEST PUSH8 0xFFFFFFFFFFFFFFFF DUP2 GT ISZERO PUSH2 0x159E JUMPI PUSH2 0x159D PUSH2 0xF91 JUMP JUMPDEST JUMPDEST PUSH2 0x15A8 DUP3 SLOAD PUSH2 0x133B JUMP JUMPDEST PUSH2 0x15B3 DUP3 DUP3 DUP6 PUSH2 0x14F3 JUMP JUMPDEST PUSH0 PUSH1 0x20 SWAP1 POP PUSH1 0x1F DUP4 GT PUSH1 0x1 DUP2 EQ PUSH2 0x15E4 JUMPI PUSH0 DUP5 ISZERO PUSH2 0x15D2 JUMPI DUP3 DUP8 ADD MLOAD SWAP1 POP JUMPDEST PUSH2 0x15DC DUP6 DUP3 PUSH2 0x1561 JUMP JUMPDEST DUP7 SSTORE POP PUSH2 0x1643 JUMP JUMPDEST PUSH1 0x1F NOT DUP5 AND PUSH2 0x15F2 DUP7 PUSH2 0x13DF JUMP JUMPDEST PUSH0 JUMPDEST DUP3 DUP2 LT ISZERO PUSH2 0x1619 JUMPI DUP5 DUP10 ADD MLOAD DUP3 SSTORE PUSH1 0x1 DUP3 ADD SWAP2 POP PUSH1 0x20 DUP6 ADD SWAP5 POP PUSH1 0x20 DUP2 ADD SWAP1 POP PUSH2 0x15F4 JUMP JUMPDEST DUP7 DUP4 LT ISZERO PUSH2 0x1636 JUMPI DUP5 DUP10 ADD MLOAD PUSH2 0x1632 PUSH1 0x1F DUP10 AND DUP3 PUSH2 0x1545 JUMP JUMPDEST DUP4 SSTORE POP JUMPDEST PUSH1 0x1 PUSH1 0x2 DUP9 MUL ADD DUP9 SSTORE POP POP POP JUMPDEST POP POP POP POP POP POP JUMP JUMPDEST PUSH0 PUSH2 0x1655 DUP3 PUSH2 0xDCD JUMP JUMPDEST SWAP2 POP PUSH2 0x1660 DUP4 PUSH2 0xDCD JUMP JUMPDEST SWAP3 POP DUP3 DUP3 ADD SWAP1 POP DUP1 DUP3 GT ISZERO PUSH2 0x1678 JUMPI PUSH2 0x1677 PUSH2 0x136B JUMP JUMPDEST JUMPDEST SWAP3 SWAP2 POP POP JUMP INVALID LOG2 PUSH5 0x6970667358 0x22 SLT KECCAK256 0xEE DUP8 SWAP16 RETURN DUP3 0x21 0xBC DUP8 EXTCODESIZE LOG2 0xDB 0xA7 0xDD ADD 0xAE PUSH23 0x933C073B95D8B92AB8C0CE4853F4078A64736F6C634300 ADDMOD AND STOP CALLER "
				},
				"gasEstimates": {
					"creation": {
						"codeDepositCost": "1162400",
						"executionCost": "1205",
						"totalCost": "1163605"
					},
					"external": {
						"addApplicant(string,string,string,string,string)": "infinite",
						"addJob(string,string,uint256)": "infinite",
						"applicantCount()": "2448",
						"applicants(uint256)": "infinite",
						"applyForJob(uint256,uint256)": "infinite",
						"getApplicantDetails(uint256)": "infinite",
						"getJobDetails(uint256)": "infinite",
						"jobCount()": "2470",
						"jobs(uint256)": "infinite"
					}
				},
				"methodIdentifiers": {
					"addApplicant(string,string,string,string,string)": "558e0a7b",
					"addJob(string,string,uint256)": "fa6b104a",
					"applicantCount()": "18f53993",
					"applicants(uint256)": "63de5323",
					"applyForJob(uint256,uint256)": "bfc7a66e",
					"getApplicantDetails(uint256)": "8798a47b",
					"getJobDetails(uint256)": "4cac35c6",
					"jobCount()": "4c5d8a0f",
					"jobs(uint256)": "180aedf3"
				}
			},
			"storageLayout": {
				"storage": [
					{
						"astId": 34,
						"contract": "contracts/Sample-Jon.sol:JobPortal",
						"label": "applicants",
						"offset": 0,
						"slot": "0",
						"type": "t_mapping(t_uint256,t_struct(Applicant)16_storage)"
					},
					{
						"astId": 39,
						"contract": "contracts/Sample-Jon.sol:JobPortal",
						"label": "jobs",
						"offset": 0,
						"slot": "1",
						"type": "t_mapping(t_uint256,t_struct(Job)29_storage)"
					},
					{
						"astId": 41,
						"contract": "contracts/Sample-Jon.sol:JobPortal",
						"label": "applicantCount",
						"offset": 0,
						"slot": "2",
						"type": "t_uint256"
					},
					{
						"astId": 43,
						"contract": "contracts/Sample-Jon.sol:JobPortal",
						"label": "jobCount",
						"offset": 0,
						"slot": "3",
						"type": "t_uint256"
					}
				],
				"types": {
					"t_address": {
						"encoding": "inplace",
						"label": "address",
						"numberOfBytes": "20"
					},
					"t_mapping(t_uint256,t_struct(Applicant)16_storage)": {
						"encoding": "mapping",
						"key": "t_uint256",
						"label": "mapping(uint256 => struct JobPortal.Applicant)",
						"numberOfBytes": "32",
						"value": "t_struct(Applicant)16_storage"
					},
					"t_mapping(t_uint256,t_struct(Job)29_storage)": {
						"encoding": "mapping",
						"key": "t_uint256",
						"label": "mapping(uint256 => struct JobPortal.Job)",
						"numberOfBytes": "32",
						"value": "t_struct(Job)29_storage"
					},
					"t_string_storage": {
						"encoding": "bytes",
						"label": "string",
						"numberOfBytes": "32"
					},
					"t_struct(Applicant)16_storage": {
						"encoding": "inplace",
						"label": "struct JobPortal.Applicant",
						"members": [
							{
								"astId": 3,
								"contract": "contracts/Sample-Jon.sol:JobPortal",
								"label": "id",
								"offset": 0,
								"slot": "0",
								"type": "t_uint256"
							},
							{
								"astId": 5,
								"contract": "contracts/Sample-Jon.sol:JobPortal",
								"label": "name",
								"offset": 0,
								"slot": "1",
								"type": "t_string_storage"
							},
							{
								"astId": 7,
								"contract": "contracts/Sample-Jon.sol:JobPortal",
								"label": "laborHistory",
								"offset": 0,
								"slot": "2",
								"type": "t_string_storage"
							},
							{
								"astId": 9,
								"contract": "contracts/Sample-Jon.sol:JobPortal",
								"label": "skills",
								"offset": 0,
								"slot": "3",
								"type": "t_string_storage"
							},
							{
								"astId": 11,
								"contract": "contracts/Sample-Jon.sol:JobPortal",
								"label": "availability",
								"offset": 0,
								"slot": "4",
								"type": "t_string_storage"
							},
							{
								"astId": 13,
								"contract": "contracts/Sample-Jon.sol:JobPortal",
								"label": "otherDetails",
								"offset": 0,
								"slot": "5",
								"type": "t_string_storage"
							},
							{
								"astId": 15,
								"contract": "contracts/Sample-Jon.sol:JobPortal",
								"label": "rating",
								"offset": 0,
								"slot": "6",
								"type": "t_uint256"
							}
						],
						"numberOfBytes": "224"
					},
					"t_struct(Job)29_storage": {
						"encoding": "inplace",
						"label": "struct JobPortal.Job",
						"members": [
							{
								"astId": 18,
								"contract": "contracts/Sample-Jon.sol:JobPortal",
								"label": "id",
								"offset": 0,
								"slot": "0",
								"type": "t_uint256"
							},
							{
								"astId": 20,
								"contract": "contracts/Sample-Jon.sol:JobPortal",
								"label": "title",
								"offset": 0,
								"slot": "1",
								"type": "t_string_storage"
							},
							{
								"astId": 22,
								"contract": "contracts/Sample-Jon.sol:JobPortal",
								"label": "description",
								"offset": 0,
								"slot": "2",
								"type": "t_string_storage"
							},
							{
								"astId": 24,
								"contract": "contracts/Sample-Jon.sol:JobPortal",
								"label": "salary",
								"offset": 0,
								"slot": "3",
								"type": "t_uint256"
							},
							{
								"astId": 26,
								"contract": "contracts/Sample-Jon.sol:JobPortal",
								"label": "provider",
								"offset": 0,
								"slot": "4",
								"type": "t_address"
							},
							{
								"astId": 28,
								"contract": "contracts/Sample-Jon.sol:JobPortal",
								"label": "rating",
								"offset": 0,
								"slot": "5",
								"type": "t_uint256"
							}
						],
						"numberOfBytes": "192"
					},
					"t_uint256": {
						"encoding": "inplace",
						"label": "uint256",
						"numberOfBytes": "32"
					}
				}
			},
			"userdoc": {
				"kind": "user",
				"methods": {},
				"version": 1
			}
		}
	}
}